:020000040800F2
:10000000F00A00246503000851E00008A1D20008AE
:1000100049E00008510D0008F1050108000000004A
:10002000000000000000000000000000E9E90008F6
:10003000E917000800000000F1E5000849EA00089F
:100040008303000883030008830300088303000878
:100050008303000883030008830300088303000868
:10006000830300088303000883030008590D000878
:100070008303000883030008830300088303000848
:100080008303000883030008310D00088303000880
:100090008303000883030008830300088303000828
:1000A00083030008C9EC00088303000883030008E9
:1000B0008303000883030008D9EC000883030008C9
:1000C00083030008830300088303000883030008F8
:1000D00083030008830300088303000883030008E8
:1000E0008303000883030008000000008303000866
:1000F00083030008830300088303000883030008C8
:100100008303000883030008E9EC00088303000868
:10011000830300088303000883030008F9EC000848
:100120008303000883030008830300088303000897
:100130008303000883030008830300088303000887
:1001400000000000000000000000000000000000AF
:100150008303000883030008830300088303000867
:100160008303000883030008830300088303000857
:1001700083030008830300088303000800000000D5
:100180008303000883030008830300088303000837
:100190008303000883030008830300088303000827
:1001A0008303000883030008830300088303000817
:1001B0008303000883030008830300088303000807
:1001C00083030008830300088303000883030008F7
:1001D00083030008830300088303000883030008E7
:1001E00083030008830300088303000883030008D7
:1001F00083030008830300088303000883030008C7
:1002000083030008830300088303000883030008B6
:1002100083030008830300088303000883030008A6
:100220008303000883030008830300080000000024
:100230008303000883030008000000008303000814
:100240008303000883030008830300088303000876
:100250008303000883030008830300088303000866
:100260008303000883030008830300088303000856
:1002700083030008830300088303000800000000D4
:1002800083030008830300088303000800000000C4
:10029000000000008303000800F002F800F052F8AC
:1002A00014A696E8000CB244B344DA4501D100F03C
:1002B00049F8BAE80F000FA696E83000A5EB040550
:1002C00004EB0607AAEB0704A7F101074FEA15158F
:1002D0004FEA3414A4F10104AC4201D300F032F827
:1002E00013F0010F18BFFB1A43F0010300F001F8EF
:1002F000DBE718474016010060160100103A24BFE2
:1003000078C878C1FAD8520724BF30C830C144BF7A
:1003100004680C6070470000704700000023002450
:1003200000250026103A28BF78C1FBD8520728BF05
:1003300030C148BF0B6070471FB511F0B8FA1FBD40
:1003400010B510BD00F0E8F81146FFF7F5FF10F00A
:10035000E3F900F006F903B4FFF7F2FF03BC00F085
:1003600009F900000A4880470A4880470A480047C0
:10037000FEE7FEE7FEE7FEE7FEE7FEE7FEE7FEE755
:10038000FEE7FEE705480649064A074B70470000AE
:100390000118000839EB000899020008F004002455
:1003A000F00A0024F0060024F006002453EA020CB0
:1003B00000F069802DE9F04B4FF00006002B1FBFC5
:1003C000B3FA83F503FA05F424FA05F65E4012BF8A
:1003D0001643B2FA82F502FA05F4C5F120051EBFF4
:1003E00022FA05FC44EA0C04203556EA044C4FEA94
:1003F000144418BF641C4FF000084FF000099042ED
:1004000071EB030C39D3002919BFB1FA81F701FA56
:1004100007F6B0FA80F700FA07F6C7F120071EBF0B
:1004200020FA07FC46EA0C062037B6FBF4FCA7EBE3
:100430000507103F07F01F0BCBF120062CFA06F63C
:100440000CFA0BFB44BFB3460026202FA4BF5E4628
:100450004FF0000B5BEA060C08BF4FF0010B19EBE5
:100460000B0948EB0608ABFB027C06FB02CC0BFB3E
:1004700003CCC01B71EB0C01C1E70B4602464146A1
:100480004846BDE8F08B13B5084318BF4FF0FF3066
:100490000146AFF30080BDE81C4070474FF00002FA
:1004A00000B5134694469646203922BFA0E80C506A
:1004B000A0E80C50B1F12001BFF4F7AF090728BF45
:1004C000A0E80C5048BF0CC05DF804EB890028BFC1
:1004D00040F8042B08BF704748BF20F8022B11F0EA
:1004E000804F18BF00F8012B704770477047704766
:1004F00010B500F009F8006810BD10B5044600F012
:1005000003F8046010BD000000487047A8000024F4
:1005100000487047A80000247546FFF7F9FFAE4673
:1005200005006946534620F00700854618B020B5FF
:10053000FFF728FFBDE820404FF000064FF000070E
:100540004FF000084FF0000BAC46ACE8C009ACE837
:10055000C009ACE8C009ACE8C00921F007018D462C
:10056000704710B50446AFF300802046BDE8104048
:10057000FFF7F1BE01491820ABBEFEE726000200DE
:10058000704700000000000082B040F62400C4F272
:10059000000090ED000AB8EE400A8DED010A9DEDD5
:1005A000010A40F62C00C4F200000068013001EEA0
:1005B000100AB8EE411A80EE010A30EE000A9FEDF3
:1005C0001B1A20EE010AB1EE001A20EE010A8DED91
:1005D000000AFFE79DED000A9FED151AB4EE410AEF
:1005E000F1EE10FA09DDFFE79DED000A9FED111A0B
:1005F00030EE010A8DED000AECE7FFE79DED000A01
:100600009FED0C1AB4EE410AF1EE10FA09DAFFE799
:100610009DED000A9FED061A30EE010A8DED000AED
:10062000ECE79DED000A02B0704700BFDB0F4940C8
:10063000DB0FC940DB0FC9C080B540F27430C2F295
:1006400000403C210BF078FD80BD00000000000060
:1006500080B584B003900398006842F20001C4F2B0
:100660000201884209D0FFE70398006842F20011B6
:10067000C4F20201884209D1FFE742F20830C4F215
:100680000200006810F4403F09D129E046F208302A
:10069000C5F60200006810F4403F21D0FFE709F0E2
:1006A00083FE0290039840680190B0F5803F0AD025
:1006B000FFE70198B0F5003F05D0FFE70198B0F5DE
:1006C000403F07D00AE00398C1880298B0FBF1F0E0
:1006D000029004E002988008029000E0FFE75FE0EB
:1006E0004FF40020002107F09BFD02900398406822
:1006F0000090B0F5802F32D0FFE70098B0F5002FC2
:100700002DD0FFE70098B0F5402F28D0FFE70098E4
:10071000B0F5801F23D0FFE70098B0F5A01F1ED0D2
:10072000FFE70098B0F5C01F19D0FFE70098B0F5BB
:10073000E01F1FD0FFE70098B0F5001F1ED0FFE7B5
:100740000098B0F5101F1DD0FFE70098B0F5201FEE
:100750001CD0FFE70098B0F5301F1BD01EE00398B7
:1007600041686FF0010000EA51410298B0FBF1F0DE
:10077000029014E002980009029010E002984009EB
:1007800002900CE002988009029008E00298C009EB
:10079000029004E00298000A029000E0FFE7FFE701
:1007A00006F09EFF41F20301884217D8FFE7029846
:1007B00042F60151C0F23111884207D3FFE7039896
:1007C0000168886840F48070886006E003980168DA
:1007D000886820F480708860FFE743E00298400852
:1007E0000290029845F61061C0F25F01884209D874
:1007F000FFE703980068806820F440700399096857
:1008000088602EE002984BF62041C0F2BE0188427B
:100810000AD8FFE7039800688068012161F3092086
:100820000399096888601BE0029847F64001C0F20E
:100830007D1188420AD8FFE703980068806802218A
:1008400061F3092003990968886008E0039800684B
:10085000806840F44070039909688860FFE7FFE70B
:10086000FFE7FFE704B080BD80B58AB0089007912C
:100870000020059007980490089800680CF010FE7E
:100880000290089800680CF08BFD0190029828B93E
:10089000FFE70198002800F0A880FFE708980068AB
:1008A000C0688001002836D5FFE70898407D012800
:1008B00031D1FFE70898007D01282CD1FFE7012006
:1008C0000490FFE708980068006800F040010020ED
:1008D000B0EB911F1AD1FFE705984DF60041C0F229
:1008E0000C0188420ED3FFE70899486D40F01000D4
:1008F00048650899886D40F00100886501208DF8F1
:10090000270076E0059801300590DBE7089801683C
:1009100040200860FFE70498022813D0FFE70898FA
:1009200000680CF0BDFD60B1FFE7089800680CF0AE
:1009300097FD28B9FFE7089800680CF019FEFFE75B
:10094000FFE7FFE70498012813D0FFE70898006845
:100950000CF026FD60B1FFE7089800680CF080FD00
:1009600028B9FFE7089800680CF062FDFFE7FFE791
:10097000FFE704980090022807D0FFE700980328BB
:1009800006D1FFE70C20039005E00820039002E069
:1009900004200390FFE706F0ABFE0690FFE70898FF
:1009A00000688068039908421ED0FFE706F0A0FEA9
:1009B0000699401A062816D3FFE708980068806851
:1009C000039908420ED0FFE70899486D40F01000E7
:1009D00048650899886D40F00100886501208DF810
:1009E000270006E0FFE7DAE7FFE700208DF82700A1
:1009F000FFE79DF827000AB080BD0000000000005E
:100A000080B582B001900198806B00900098406D95
:100A100010F0500F4AD1FFE70099486D40F4007084
:100A200048650098006800680007002821D5FFE7A6
:100A3000009800680CF044FDD0B1FFE70098006812
:100A4000C0688004002812D4FFE70099486D20F4A4
:100A5000807048650098406DC004002806D4FFE708
:100A60000099486D40F001004865FFE7FFE7FFE7A8
:100A700018E000980068C068800790B9FFE7009907
:100A8000486D20F4807048650098406DC0040028CF
:100A900006D4FFE70099486D40F001004865FFE784
:100AA000FFE7FFE7009803F023FC10E00098406D9B
:100AB000C006002804D5FFE7009803F021FC05E0FC
:100AC0000098C06CC16C01988847FFE7FFE702B04F
:100AD00080BD00000000000080B582B00190019848
:100AE000806B00900099486D40F040004865009987
:100AF000886D40F004008865009803F001FC02B0A6
:100B000080BD00000000000080B582B00190019817
:100B1000806B0090009803F0EFFB02B080BD0000F6
:100B200080B584B00290029800680CF099FC0090A7
:100B3000029800680CF09CFC00284BD0FFE700985E
:100B4000002847D1FFE702980068806800F00D0098
:100B5000012809D1FFE7029800680CF0A5FB029874
:100B60000168032008600DE00299486D40F0100014
:100B700048650299886D40F00100886501208DF874
:100B80000F002BE006F0B4FD0190FFE7029800682B
:100B90008068C007E8B1FFE706F0AAFD0199401A96
:100BA000032815D3FFE7029800688068C00770B17A
:100BB000FFE70299486D40F0100048650299886D82
:100BC00040F00100886501208DF80F0006E0FFE786
:100BD000DCE7FFE700208DF80F00FFE79DF80F002E
:100BE00004B080BD0000000080B586B00490049879
:100BF00000680CF03DFC002840F09280FFE704986C
:100C0000006880683F21C8F2000108420ED0FFE76B
:100C10000499486D40F0100048650499886D40F0D3
:100C20000100886501208DF817007DE004980068B8
:100C30000CF056FB06F05CFD03900498016801205F
:100C400042F20002C4F20202914201900CD0FFE78E
:100C5000049800684DF60071CBF6FD710844B0FAB7
:100C600080F040090190FFE70198C10746F200308B
:100C7000C5F6020000291CBF42F20030C4F2020097
:100C80000CF066FB02900498006842F20011C4F276
:100C90000201884206D1FFE742F20000C4F20200DE
:100CA000009003E0049800680090FFE70098049922
:100CB0000968884203D0FFE7029880BBFFE7FFE79F
:100CC000049800680068C00740BBFFE7049800680C
:100CD0000CF0CEFB28B9FFE7049800680CF000FB8D
:100CE000FFE706F005FD0399401A032815D3FFE737
:100CF000049800680068C00770B9FFE70499486D60
:100D000040F0100048650499886D40F00100886546
:100D100001208DF8170007E0FFE7D1E7FFE7FFE7C5
:100D200000208DF81700FFE79DF8170006B080BD82
:100D300080B540F2E810C2F2004003F0E5FA40F25C
:100D40004C20C2F2004003F0DFFA80BD000000003A
:100D5000FFE7FEE70000000080B540F2B020C2F2DD
:100D6000004004F06DF980BD83B0029002980168E4
:100D700001201022C4F202029142009000F0A380F0
:100D8000FFE70298016801202822C4F20202914282
:100D9000009000F09880FFE702980168012040224F
:100DA000C4F202029142009000F08D80FFE70298A9
:100DB000016801205822C4F202029142009000F022
:100DC0008280FFE70298016801207022C4F20202CB
:100DD0009142009077D0FFE70298016801208822B5
:100DE000C4F20202914200906DD0FFE702980168C0
:100DF0000120A022C4F202029142009063D0FFE7DA
:100E0000029801680120B822C4F2020291420090C7
:100E100059D0FFE702980168012040F21042C4F265
:100E20000202914200904ED0FFE702980168012033
:100E300040F22842C4F202029142009043D0FFE700
:100E400002980168012040F24042C4F2020291423D
:100E5000009038D0FFE702980168012040F2584224
:100E6000C4F20202914200902DD0FFE7029801687F
:100E7000012040F27042C4F202029142009022D05E
:100E8000FFE702980168012040F28842C4F20202A2
:100E90009142009017D0FFE702980168012040F2CC
:100EA000A042C4F20202914200900CD0FFE70298E7
:100EB00000684FF64831CBF6FD710844B0FA80F077
:100EC00040090090FFE70098C00740B3FFE7029891
:100ED000007810384AF6AB21CAF6AA21A0FB01100F
:100EE00000090190019800F0070141F60410C0F6D6
:100EF0000100405C0299C8650198042807D3FFE708
:100F000002990868042262F30900886506E00299E4
:100F1000086840F2FF3290438865FFE705E00299D8
:100F2000086820F0FF008865FFE70298806D03B035
:100F3000704700000000000084B003900398006830
:100F4000019003980168012045F20842C5F60202AB
:100F5000914200904ED0FFE703980168012045F2CE
:100F60001C42C5F602029142009043D0FFE703986D
:100F70000168012045F23042C5F60202914200901C
:100F800038D0FFE703980168012045F24442C5F6D6
:100F90000202914200902DD0FFE7039801680120E2
:100FA00045F25842C5F602029142009022D0FFE776
:100FB00003980168012045F26C42C5F60202914295
:100FC000009017D0FFE703980168012045F28042A6
:100FD000C5F60202914200900CD0FFE7039800682A
:100FE0004AF66C31CAF2FD710844B0FA80F040094B
:100FF0000090FFE70098C00710B3FFE70398007860
:1010000008384CF6CD41CCF6CC41A0FB01100009CC
:101010000290029945F60000C5F6020000EB81003F
:1010200003990866039945F68000C5F602004866F4
:10103000029800F01F01012088400399886635E07E
:101040000398007810384AF6AB21CAF6AA21A0FB13
:10105000011000090290019840F2B841C4F2020167
:1010600088420CD8FFE7019840F21041C4F2020117
:10107000884204D3FFE7029808300290FFE7029904
:1010800040F60000C4F2020000EB810003990866FC
:10109000039940F68000C4F202004866029800F00E
:1010A0001F010120884003998866FFE704B070475C
:1010B00083B002900298007901900198002800F016
:1010C0008A80FFE70198082800F28580FFE70298F0
:1010D0000168012045F20842C5F6020291420090E3
:1010E0004ED0FFE702980168012045F21C42C5F688
:1010F00002029142009043D0FFE70298016801206C
:1011000045F23042C5F602029142009038D0FFE726
:1011100002980168012045F24442C5F6020291425C
:1011200000902DD0FFE702980168012045F2584257
:10113000C5F602029142009022D0FFE702980168B2
:10114000012045F26C42C5F602029142009017D090
:10115000FFE702980168012045F28042C5F60202CD
:10116000914200900CD0FFE7029800684AF66C317B
:10117000CAF2FD710844B0FA80F040090090FFE720
:101180000098C00780B1FFE7019945F6FC00C5F65D
:10119000020000EB81000299C866029945F64010F2
:1011A000C5F6020008670FE0019940F6FC00C4F2A2
:1011B000020000EB81000299C866029940F64010D7
:1011C000C4F202000867FFE70198411E0120884031
:1011D00002994867FFE703B0704700000000000075
:1011E00085B0049000208DF80F000498806918BB2A
:1011F000FFE70498806A029003281BD80299DFE871
:1012000001F0020D0218049890F82F00C00720B1D9
:10121000FFE701208DF80F00FFE70CE00498C06A9B
:10122000B0F1C07F04D1FFE701208DF80F00FFE788
:1012300001E000E0FFE747E004988069B0F5005F57
:1012400026D1FFE70498806A019003281ED80199EF
:10125000DFE801F00206021101208DF80F0016E010
:10126000049890F82F00C00720B1FFE701208DF807
:101270000F00FFE70BE00498C06AB0F1C07F04D113
:10128000FFE701208DF80F00FFE700E0FFE71AE01D
:101290000498806A0090032804D3FFE7009803288D
:1012A00004D00EE001208DF80F000BE0049890F8B8
:1012B0002F00C00720B1FFE701208DF80F00FFE7E6
:1012C00000E0FFE7FFE7FFE79DF80F0005B070477C
:1012D00089B008900791069205930898806D049054
:1012E0000898806D03900898016801201022C4F2CC
:1012F00002029142029000F00381FFE70898016822
:1013000001202822C4F202029142029000F0F880EB
:10131000FFE70898016801204022C4F202029142CE
:10132000029000F0ED80FFE7089801680120582244
:10133000C4F202029142029000F0E280FFE70898B6
:10134000016801207022C4F202029142029000F072
:10135000D780FFE70898016801208822C4F20202C2
:101360009142029000F0CC80FFE7089801680120CC
:10137000A022C4F202029142029000F0C180FFE775
:10138000089801680120B822C4F20202914202903A
:1013900000F0B680FFE708980168012040F2104293
:1013A000C4F202029142029000F0AA80FFE708987E
:1013B0000168012040F22842C4F2020291420290E8
:1013C00000F09E80FFE708980168012040F240424B
:1013D000C4F202029142029000F09280FFE7089866
:1013E0000168012040F25842C4F202029142029088
:1013F00000F08680FFE708980168012040F2704203
:10140000C4F20202914202907AD0FFE70898016884
:10141000012040F28842C4F20202914202906FD051
:10142000FFE708980168012040F2A042C4F20202DE
:101430009142029064D0FFE708980168012040F2D1
:10144000B842C4F202029142029059D0FFE70898D4
:101450000168012045F20842C5F60202914202905D
:101460004ED0FFE708980168012045F21C42C5F6FE
:1014700002029142029043D0FFE7089801680120E0
:1014800045F23042C5F602029142029038D0FFE7A1
:1014900008980168012045F24442C5F602029142D3
:1014A00002902DD0FFE708980168012045F25842CC
:1014B000C5F602029142029022D0FFE70898016827
:1014C000012045F26C42C5F602029142029017D00B
:1014D000FFE708980168012045F28042C5F6020244
:1014E000914202900CD0FFE7089800684AF66C31F0
:1014F000CAF2FD710844B0FA80F040090290FFE79B
:101500000298C00770B1FFE70898416E806E48608E
:101510000898C06E28B1FFE70898016F406F4860D7
:10152000FFE7FFE70898016801201022C4F20202D9
:101530009142019000F0A380FFE708980168012024
:101540002822C4F202029142019000F09880FFE745
:101550000898016801204022C4F2020291420190E1
:1015600000F08D80FFE70898016801205822C4F23E
:1015700002029142019000F08280FFE70898016822
:1015800001207022C4F202029142019077D0FFE75D
:101590000898016801208822C4F202029142019059
:1015A0006DD0FFE7089801680120A022C4F2020272
:1015B0009142019063D0FFE7089801680120B822AA
:1015C000C4F202029142019059D0FFE708980168E5
:1015D000012040F21042C4F20202914201904ED02A
:1015E000FFE708980168012040F22842C4F2020295
:1015F0009142019043D0FFE708980168012040F232
:101600004042C4F202029142019038D0FFE70898AC
:101610000168012040F25842C4F202029142019056
:101620002DD0FFE708980168012040F27042C4F213
:1016300002029142019022D0FFE708980168012040
:1016400040F28842C4F202029142019017D0FFE7B3
:1016500008980168012040F2A042C4F202029142BF
:1016600001900CD0FFE7089800684FF64831CBF6A0
:10167000FD710844B0FA80F040090190FFE701983D
:10168000C00750B3FFE70898C06D00F01F013F206E
:1016900088400499886008980168086820F48020D0
:1016A000086005980899096848600898806840288B
:1016B00009D1FFE706980899096888600798089992
:1016C0000968C86008E00798089909688860069862
:1016D00008990968C860FFE782E00898016801205E
:1016E00045F20842C5F60202914200904ED0FFE753
:1016F00008980168012045F21C42C5F60202914299
:10170000009043D0FFE708980168012045F230427D
:10171000C5F602029142009038D0FFE708980168B0
:10172000012045F24442C5F60202914200902DD0BC
:10173000FFE708980168012045F25842C5F6020209
:101740009142009022D0FFE708980168012045F2FD
:101750006C42C5F602029142009017D0FFE708984C
:101760000168012045F28042C5F6020291420090D4
:101770000CD0FFE7089800684AF66C31CAF2FD7198
:101780000844B0FA80F040090090FFE70098C007D5
:1017900020B3FFE70898C06D00F01F0101208840CA
:1017A0000399486005980899096848600898806816
:1017B000402809D1FFE706980899096888600798CA
:1017C00008990968C86008E007980899096888605E
:1017D000069808990968C860FFE700E0FFE7FFE79F
:1017E00009B07047000000007047000000000000D2
:1017F00081B0EFF3108072B60090FFE7FEE70000C3
:1018000044F60C01C5F60201086840F002000860C9
:10181000FFE744F60400C5F60200006880040028D3
:1018200001D4FFE7F5E7704780B58AB009900891C9
:101830008DED070A099890ED010A8DED020A9DEDE4
:10184000070A0FF01DF88DED010A099890ED000AC6
:101850008DED030A9DED070A0FF0BAF89DED012A00
:101860009DED021AB0EE403A9DED030A20EE030A08
:1018700091EE020A089880ED000A099890ED010A9D
:101880008DED050A9DED070A0FF0A2F88DED040A13
:10189000099890ED000A8DED060A9DED070A0EF0FD
:1018A000EFFF9DED042A9DED051AB0EE403A9DED47
:1018B000060A20EE030AA1EE020A089880ED010A4A
:1018C0000AB080BD0000000080B584B00390029192
:1018D0000398006802990860039890ED000A90ED63
:1018E000011AB0EE002AA1EE020A8DED010AB0EE57
:1018F000080A0FF072F9B0EE401A9DED010A80EE71
:10190000010A029880ED010A04B080BD00000000C9
:1019100080B58AB0099008918DED070A089890ED7E
:10192000010A8DED020A9DED070A0EF0A9FF8DED6B
:10193000010A089890ED000A8DED030A9DED070A53
:101940000FF046F89DED012A9DED021AB0EE403AE7
:101950009DED030A20EE030A91EE020A099880ED3C
:10196000000A089890ED010A8DED050A9DED070A21
:101970000FF02EF88DED040A089890ED000A8DED19
:10198000060A9DED070A0EF07BFF9DED042A9DEDF2
:10199000051AB0EE403A9DED060A20EE030AA1EECC
:1019A000020A099880ED010A0AB080BD000000001B
:1019B00080B594B008910146089809918DED120AFE
:1019C000CDED130A8DF847008DED101A00208860C8
:1019D0004860086012980F9013980E909DED0F0AC2
:1019E0009DED0E1A30EE010A8DED0D0A9DED0D0AEA
:1019F0009DED101AB4EE410AF1EE10FA19DDFFE781
:101A00009DED0F0A9DED0D1A80EE010A9DED101A55
:101A100020EE010A8DED0F0A9DED0E0A9DED0D1AC7
:101A200080EE010A9DED101A20EE010A8DED0E0ADE
:101A3000FFE79DED100A9DED0F1A30EE410A9DED76
:101A40000E1A30EE410A10EE100A0FF08FFE41EC34
:101A5000100B51EC100B9FED700B53EC102B0FF093
:101A6000CDFB41EC100B51EC100B0FF091F90C90E9
:101A70000C980FF07BFE41EC100B8DED000B0F98D6
:101A80000FF074FE41EC100B51EC100B9FED640B4A
:101A900053EC102B039302920FF0B0FB9DED000B63
:101AA00041EC110B53EC112B51EC100B0FF0A2F980
:101AB00041EC100B51EC100B0FF06AF90B900B98E6
:101AC0000FF054FE41EC100B8DED040B0E980FF04F
:101AD0004DFE029A039B41EC100B51EC100B0FF0E2
:101AE0008DFB9DED040B41EC110B53EC112B51ECD4
:101AF000100B0FF07FF941EC100B51EC100B0FF0B5
:101B000047F90A909DF847000138014607910528DA
:101B100000F27E800799DFE801F01767033F2B533F
:101B200009989DED0C0ABCEEC00A80ED000A9DEDFF
:101B30000B0ABCEEC00A80ED010A9DED0A0ABCEE5C
:101B4000C00A80ED020A64E009989DED0B0ABCEE24
:101B5000C00A80ED000A9DED0C0ABCEEC00A80EDC3
:101B6000010A9DED0A0ABCEEC00A80ED020A50E0AF
:101B700009989DED0A0ABCEEC00A80ED000A9DEDB1
:101B80000C0ABCEEC00A80ED010A9DED0B0ABCEE0A
:101B9000C00A80ED020A3CE009989DED0A0ABCEEFD
:101BA000C00A80ED000A9DED0B0ABCEEC00A80ED74
:101BB000010A9DED0C0ABCEEC00A80ED020A28E085
:101BC00009989DED0B0ABCEEC00A80ED000A9DED60
:101BD0000A0ABCEEC00A80ED010A9DED0C0ABCEEBB
:101BE000C00A80ED020A14E009989DED0C0ABCEED3
:101BF000C00A80ED000A9DED0A0ABCEEC00A80ED25
:101C0000010A9DED0B0ABCEEC00A80ED020A00E05D
:101C1000FFE714B080BD00BF000000000000D03F0F
:101C2000000000000000E03F80B596B08DED150A81
:101C3000CDED140A149813909FED4D0B8DED060B0E
:101C40000EF08EFF8DED000B15980FF08FFD41EC1F
:101C5000100B8DED020B14980FF088FD9DED001B0D
:101C60009DED020B41EC120B8DED042B51EC110B91
:101C700053EC102B0FF0C2FA9DED040B41EC110B4D
:101C800051EC110B53EC102B0FF082FC41EC100BBC
:101C900051EC100B0FF07CF89DED060B12900EF03E
:101CA0005FFF8DED0E0B9DF83F0080F080008DF8FA
:101CB0003F000E980A900F980B9015980FF056FD64
:101CC00041EC100B8DED080B14980FF04FFD9DEDBE
:101CD000080B02460A980B460B9943EC112B8DED2D
:101CE0000C1B53EC102B0FF089FA9DED0C0B41EC03
:101CF000110B51EC110B53EC102B0FF049FC41EC84
:101D0000100B51EC100B0FF043F8119000208DF8E0
:101D100043009DED130AB5EE400AF1EE10FA06DD20
:101D2000FFE79DF8430001308DF84300FFE79DED8C
:101D3000120AB5EE400AF1EE10FA06DDFFE79DF853
:101D4000430002308DF84300FFE79DED110AB5EE28
:101D5000400AF1EE10FA06DDFFE79DF8430004307B
:101D60008DF84300FFE79DF8430016B080BD00BF2B
:101D7000000000000000084080B5ACB08DED290ADD
:101D8000CDED280A8DF89F008DED261ACDED251A90
:101D900000202B902A909FEDC00B8DED160B0EF0BE
:101DA000DFFE8DED000B25980FF0E0FC9DED001B94
:101DB00041EC100B51EC110B53EC102B0FF01EFAF1
:101DC00041EC100B8DED020B26980FF0CFFC9DED32
:101DD000021B41EC100B51EC110B53EC102B0FF0CC
:101DE000B1F841EC100B8DED040B28980FF0BEFC00
:101DF0009DED041B41EC100B51EC110B53EC102B1F
:101E00000FF0FCF941EC100B51EC100B0EF0C0FF81
:101E10009DED160B24900EF0A3FE8DED060B25987C
:101E20000FF0A4FC9DED061B41EC100B51EC110BC7
:101E300053EC102B0FF0E2F941EC100B8DED080B79
:101E400026980FF093FC9DED081B41EC100B51EC14
:101E5000110B53EC102B0FF075F89DED160B41ECA8
:101E6000110B8DED101B0EF07BFE9FED8D1B53ECC7
:101E7000112B51EC100B0FF0C1F941EC100B8DED53
:101E80000A0B29980FF072FC41EC100B8DED0C0B36
:101E90009DED280AB6EE001A8DED191A20EE010A02
:101EA00010EE100A0FF062FC9DED0A1B9DED0C0B6D
:101EB00041EC120B8DED0E2B51EC110B53EC102B52
:101EC0000FF09CF99DED0E0B53EC102B41EC100B19
:101ED00051EC100B0FF05CFB9DED100B41EC110B66
:101EE00053EC112B51EC100B0FF088F941EC100B57
:101EF00051EC100B0EF04CFF9DED160B23900EF0E5
:101F00002FFE8DED120B25980FF030FC9DED121B6E
:101F100041EC100B51EC110B53EC102B0FF06EF940
:101F200041EC100B8DED140B26980FF01FFC9DED6E
:101F3000141B41EC100B51EC110B53EC102B0FF058
:101F400001F89DED160B41EC110B8DED201B0EF0F1
:101F500007FE9FED551B53EC112B51EC100B0FF0AE
:101F60004DF941EC100B8DED1A0B29980FF0FEFB8B
:101F70009DED191A41EC100B8DED1C0B9DED280AFF
:101F800020EE010A10EE100A0FF0F0FB9DED1A1B77
:101F90009DED1C0B41EC120B8DED1E2B51EC110B2A
:101FA00053EC102B0FF02AF99DED1E0B53EC102B68
:101FB00041EC100B51EC100B0FF0EAFA9DED200BE9
:101FC00041EC110B53EC112B51EC100B0FF016F9E7
:101FD00041EC100B51EC100B0EF0DAFE22909DF844
:101FE0009F00032805D1FFE723982A9024982B907F
:101FF000FFE79DF89F0001280DD1FFE79DED230A23
:10200000B1EE400A8DED2A0A9DED220AB1EE400A9A
:102010008DED2B0AFFE79DF89F00052805D1FFE70E
:1020200024982A9022982B90FFE79DF89F0004287F
:102030000DD1FFE79DED240AB1EE400A8DED2A0A8D
:102040009DED230AB1EE400A8DED2B0AFFE79DF8C6
:102050009F00062805D1FFE722982A9023982B900D
:10206000FFE79DF89F0002280DD1FFE79DED220AB2
:10207000B1EE400A8DED2A0A9DED240AB1EE400A28
:102080008DED2B0AFFE79DED2A0ADDED2B0A2CB022
:1020900080BD00BF00BF00BF00000000000008407E
:1020A000000000000000E03F000000000000E0BF72
:1020B00080B582B040F29811C2F200410020486021
:1020C000086040F29111C2F20041087040F2901194
:1020D000C2F2004108708DF80700FFE79DF8070085
:1020E000032810D8FFE79DF8072040F28011C2F2C4
:1020F0000041002041F82200FFE79DF80700013071
:102100008DF80700EAE740F25411C2F200410020C6
:10211000086240F2C030C2F2004009F0FDF902B09E
:1021200080BD00000000000080B584B003900398DB
:1021300000680BF0BDF90190039800680BF038F9C6
:102140000090019868B9FFE7009850B9FFE703983D
:1021500000684FF000410BF04BF900208DF80B00A8
:1021600003E001208DF80B00FFE79DF80B0004B0A1
:1021700080BD00000000000081B0009001B07047F9
:1021800080B5C6B03290319100208DF8C3002B90FD
:102190002A903298C06808B1FFE7FFE7329890F8BC
:1021A0003800012801D1FFE700E0FFE73198C0685F
:1021B0000021C4F2FF71884201D0FFE71EE032988F
:1021C000006842F20001C4F20201884201D1FFE737
:1021D000FFE73298006842F20011C4F2020188421F
:1021E00001D1FFE7FFE73298006846F20001C5F62B
:1021F0000201884201D1FFE7FFE7FFE7FFE73298DE
:1022000090F85000012805D1FFE702208DF8CF009B
:1022100000F0F7BD3299012081F85000FFE7FFE799
:102220003298C06828B1FFE73198006A01282FD1A1
:10223000FFE731984068092829D1FFE73198806A83
:1022400068B1FFE731990A68886AC96A02F0F84202
:1022500000F07C0040EA524008432A9006E03198A2
:10226000006800F0F840400C2A90FFE732980068C0
:10227000C06C44F20001C0F2104108402A990843A2
:1022800032990968C8642A983299C865FFE747E01F
:102290003298006EE0B9FFE73198006A329908661B
:1022A00032990020C8653198806A58B1FFE73199AA
:1022B000086A8A6AC96A013802F07C02104308433E
:1022C0002A9004E03198006A01382A90FFE7FFE77E
:1022D000319908684968C0F3846001F01F0100FA71
:1022E00001F12A9808432A903299086E013808664D
:1022F0002A9A3299C86D1043C8653298006E70B939
:10230000FFE732980068C06C44F20001C0F210414F
:102310000840329A1168D26D1043C864FFE7FFE7A6
:10232000329800680BF044F8002859D1FFE7319843
:10233000C078000600282DD4FFE73198006800031C
:1023400030B9FFE731980068C0F38460299015E048
:102350003198006890FAA0F04490449820B9FFE7C3
:1023600020208DF8170105E04498B0FA80F08DF830
:102370001701FFE79DF817012990FFE7299800F062
:102380001F01012000FA01F232980168C869104368
:10239000C861FFE7319890F8250090B9FFE73298BF
:1023A0000068C06820F44010319991F8242091F819
:1023B0002610490541EA0251084332990968C8606C
:1023C0000DE032980068C06820F44010319991F80F
:1023D000261040EA415032990968C860FFE7FFE7DC
:1023E000329800680BF064F82D90329800680AF07B
:1023F000DFFF2C902D98002840F02682FFE72C98D4
:10240000002840F02182FFE73198806A20B1FFE781
:102410003198C06AA8B9FFE7319890F825000128E3
:1024200007D1FFE732980168C86840F00070C860C3
:1024300006E032980168C86820F00070C860FFE7C5
:1024400016E0319890F82500012809D1FFE732996C
:10245000486D40F02000486501208DF8C30006E07B
:1024600032980168C86820F00070C860FFE7FFE795
:10247000319890F83000012818D1FFE732980068B1
:1024800000694FF61D61CFF6004101403198436B62
:10249000826B0020CFF6FF7000EB0340104308432F
:1024A00040F0020032990968086106E0329801683C
:1024B000086920F002000861FFE732980068319A4D
:1024C000116892680BF0E0F841F20000C5F6004098
:1024D000006800F07040B0F1805F0BD1FFE73198E9
:1024E000406932990968C96801F01C0149088840AF
:1024F00028901FE032980068C068C00600280BD4FE
:10250000FFE73198406932990968C96801F01C01F8
:102510004908884027900AE0319840693299096853
:10252000C96801F01001490888402790FFE7279803
:102530002890FFE728982F9031980069042815D03B
:10254000FFE73298006831990A6809692F9B0BF000
:102550004FF932980068319A1169127F013AB2FA44
:1025600082F25209D2070BF073F96CE132980068DD
:1025700000210AF0FDFE000348B9FFE73298006829
:1025800000210AF0F5FEC0F38460269018E032982E
:10259000006800210AF0ECFE90FAA0F04290429808
:1025A00020B9FFE720208DF80F0105E04298B0FA2E
:1025B00080F08DF80F01FFE79DF80F012690FFE7EF
:1025C0002698259031980068000330B9FFE73198CC
:1025D0000068C0F38460249015E03198006890FA98
:1025E000A0F04090409820B9FFE720208DF8070127
:1025F00005E04098B0FA80F08DF80701FFE79DF8FC
:1026000007012490FFE725982499884209D1FFE724
:102610003298006831990A68002319460BF0E8F8EF
:10262000FFE73298006801210AF0A2FE000348B9D2
:10263000FFE73298006801210AF09AFEC0F3846037
:10264000239018E03298006801210AF091FE90FA78
:10265000A0F03E903E9820B9FFE720208DF8FF00C3
:1026600005E03E98B0FA80F08DF8FF00FFE79DF896
:10267000FF002390FFE72398229031980068000321
:1026800030B9FFE731980068C0F38460219015E00D
:102690003198006890FAA0F03C903C9820B9FFE790
:1026A00020208DF8F70005E03C98B0FA80F08DF816
:1026B000F700FFE79DF8F7002190FFE722982199A6
:1026C000884209D1FFE73298006831990A680121F0
:1026D00000230BF08DF8FFE73298006802210AF022
:1026E00047FE000348B9FFE73298006802210AF06C
:1026F0003FFEC0F38460209018E032980068022109
:102700000AF036FE90FAA0F03A903A9820B9FFE726
:1027100020208DF8EF0005E03A98B0FA80F08DF8AF
:10272000EF00FFE79DF8EF002090FFE720981F9053
:1027300031980068000330B9FFE731980068C0F3B2
:1027400084601E9015E03198006890FAA0F03890EF
:10275000389820B9FFE720208DF8E70005E0389889
:10276000B0FA80F08DF8E700FFE79DF8E7001E90D3
:10277000FFE71F981E99884209D1FFE73298006849
:1027800031990A68032100230BF032F8FFE73298F1
:10279000006803210AF0ECFD000348B9FFE7329816
:1027A000006803210AF0E4FDC0F384601D9018E086
:1027B0003298006803210AF0DBFD90FAA0F0369011
:1027C000369820B9FFE720208DF8DF0005E0369825
:1027D000B0FA80F08DF8DF00FFE79DF8DF001D9074
:1027E000FFE71D981C9031980068000330B9FFE79F
:1027F00031980068C0F384601B9015E03198006840
:1028000090FAA0F03490349820B9FFE720208DF89A
:10281000D70005E03498B0FA80F08DF8D700FFE7D4
:102820009DF8D7001B90FFE71C981B99884209D19F
:10283000FFE73298006831990A68032100230AF003
:10284000D7FFFFE7FFE7FFE7329800680AF018FEBE
:10285000002840F0CB82FFE732980068319A116877
:10286000D2680AF049FF3198C0680021C4F2FF71B4
:10287000884240F05781FFE7329800681A9042F290
:102880000001C4F20201884240F0A480FFE73198C1
:1028900000680221C0F23041884203D1FFE70120E5
:1028A000199094E0319800680421C0F660018842D4
:1028B00005D1FFE74020C1F62010189084E0319840
:1028C00000680821C0F69041884205D1FFE78020CA
:1028D000C1F65050179074E0319800681021C1F291
:1028E000C001884206D1FFE740F20010C2F280101A
:1028F000169063E0319800682021C1F2F0418842CF
:1029000006D1FFE740F20020C2F2B050159052E02D
:102910003198006840F20041C2F60021884206D199
:10292000FFE740F60000C2F63060149040E03198B6
:10293000006840F60001C2F63061884206D1FFE728
:1029400041F20000C3F2602013902EE0319800683D
:1029500041F20001C3F26021884206D1FFE742F252
:102960000000C3F2906012901CE0319800680021D2
:10297000C4F22131884205D1FFE70020C4F2527031
:1029800011900CE0319801680022C4F684320020D6
:10299000914204BF0020C4F6B8701190FFE711986F
:1029A0001290FFE712981390FFE713981490FFE737
:1029B00014981590FFE715981690FFE71698179052
:1029C000FFE717981890FFE718981990FFE71998F4
:1029D0001090A2E03298006842F20011C4F20201A5
:1029E000884240F09480FFE7319800680221C0F2ED
:1029F0003041884203D1FFE701200F9084E03198F5
:102A000000680421C0F66001884205D1FFE740203C
:102A1000C1F620100E9074E0319800680821C0F6CD
:102A20009041884205D1FFE78020C1F650500D90BB
:102A300064E0319800681021C1F2C001884206D1DB
:102A4000FFE740F20010C2F280100C9053E0319882
:102A500000682021C1F2F041884206D1FFE740F230
:102A60000020C2F2B0500B9042E03198006840F272
:102A70000041C2F60021884206D1FFE740F600007F
:102A8000C2F630600A9030E03198006840F60001EC
:102A9000C2F63061884206D1FFE741F20000C3F27E
:102AA000602009901EE03198006841F20001C3F2F5
:102AB0006021884206D1FFE742F20000C3F2906035
:102AC00008900CE0319801680022C4F6843200209E
:102AD000914204BF0020C4F6B8700890FFE7089840
:102AE0000990FFE709980A90FFE70A980B90FFE723
:102AF0000B980C90FFE70C980D90FFE70D980E9047
:102B0000FFE70E980F90FFE70F98079002E0002074
:102B10000790FFE707981090FFE71A9810990AF0BE
:102B200067FDFFE73198C0780006002840F15D811D
:102B3000FFE732980168012042F20002C4F202026B
:102B4000914206900CD0FFE7329800684DF6007174
:102B5000CBF6FD710844B0FA80F040090690FFE71B
:102B60000698C10746F20030C5F6020000291CBFD6
:102B700042F20030C4F2020042F20031C4F202011B
:102B8000884212D1FFE742F20000C4F202000AF0CC
:102B900077FC049042F20010C4F202000AF070FCCC
:102BA000014604980843059007E046F20000C5F688
:102BB00002000AF065FC0590FFE70598002840F048
:102BC0000A81FFE732980168012042F20002C4F254
:102BD0000202914203900CD0FFE7329800684DF654
:102BE0000071CBF6FD710844B0FA80F04009039003
:102BF000FFE70398C10746F20030C5F6020000293E
:102C00001CBF42F20030C4F202000AF091FB2E9089
:102C10003198006840F20001CCF68431884255D1E9
:102C2000FFE79DF8BA00000600284FD4FFE732986E
:102C3000006846F20001C5F60201884245D1FFE76F
:102C400032980168012042F20002C4F2020291426D
:102C500002900CD0FFE7329800684DF60071CBF679
:102C6000FD710844B0FA80F040090290FFE7029835
:102C7000C10746F20030C5F6020000291CBF42F22F
:102C80000030C4F202002E9941F400010AF070FDF8
:102C900040F29400C2F2004000684FEA901042F601
:102CA0006351C0F23E51A0FB01104FEA90114FF06A
:102CB000020000EB41002B90FFE72B9820B1FFE7CB
:102CC0002B9801382B90F8E7FFE783E031980068F4
:102CD0000021CCF25271884238D1FFE79DF8BB0049
:102CE000C00798BBFFE73298006846F20001C5F6BE
:102CF0000201884229D1FFE732980168012042F29F
:102D00000002C4F20202914201900CD0FFE7329817
:102D100000684DF60071CBF6FD710844B0FA80F002
:102D200040090190FFE70198C10746F20030C5F65F
:102D3000020000291CBF42F20030C4F202002E99AA
:102D400041F080710AF014FDFFE742E0319800681D
:102D50000021CCF6B871884239D1FFE79DF8BA005E
:102D60004006002833D4FFE73298006846F200019D
:102D7000C5F60201884229D1FFE732980168012097
:102D800042F20002C4F20202914200900CD0FFE72E
:102D9000329800684DF60071CBF6FD710844B0FA28
:102DA00080F040090090FFE70098C10746F200302C
:102DB000C5F6020000291CBF42F20030C4F2020036
:102DC0002E9941F480010AF0D3FCFFE700E0FFE711
:102DD000FFE7FFE708E03299486D40F020004865C2
:102DE00001208DF8C300FFE7FFE7FFE7FFE7329917
:102DF000002081F85000FFE79DF8C3008DF8CF0058
:102E0000FFE79DF8CF0046B080BD00000000000045
:102E100080B592B01190119840F2E811C2F20041D1
:102E2000884240F04C81FFE740F21811C2F20041A5
:102E30000868013008600BF067FA40F25C00C2F2EB
:102E40000040007801460991012808D0FFE7099861
:102E5000022829D0FFE7099803284FD0B0E040F2BC
:102E60000001C2F200410020086040F22C01C2F2D1
:102E700000414FF08040086040F21810C2F200405C
:102E8000006842F2117188420DD3FFE740F25C0105
:102E9000C2F200410220087040F21811C2F2004153
:102EA00000200860FFE78CE040F20001C2F2004120
:102EB0000020086040F22C01C2F200414FF0804037
:102EC000086040F21810C2F20040006842F211712E
:102ED000884212D3FFE740F25C01C2F200410320B6
:102EE000087040F21811C2F200410020086040F260
:102EF000C411C2F200410880FFE762E040F2C41151
:102F0000C2F2004108880130088080B2052856DBF3
:102F1000FFE740F2C411C2F200410020088040F2F5
:102F20005800C2F2004090ED000A9FED6B1A20EEAF
:102F3000010AB3EE0E1A80EE010A8DED100A40F27E
:102F40005410C2F2004090ED080AB5EE001A20EECF
:102F5000010A8DED0F0A0F980EF008FC41EC100BE2
:102F60009FED591B53EC112B51EC100B0EF046F951
:102F700041EC100B51EC100B9FED550B53EC102B4B
:102F80000DF0E0FF41EC100B51EC100B0DF000FFC9
:102F9000014640F2A410C2F200400160016840F214
:102FA0006800C2F20040089041600BF08DF808986C
:102FB000806840F22C01C2F200410860FFE700E0A7
:102FC000FFE740F24C10C2F200400290416840F22C
:102FD0000000C2F20040019041600BF075F80199C9
:102FE0000298896840F26002C2F200420492516085
:102FF000016840F22C00C2F20040039041600BF0E7
:1030000063F8039904988968016040F24011C2F2A4
:10301000004191ED000A40F2AC11C2F2004105916D
:10302000FEF702FC059890ED000AD0ED010AFEF7CC
:10303000FBFD0599024640F2A810C2F2004006903E
:10304000027091ED000AD1ED010A0078B3EE0E1A7C
:10305000DFED221ACDED071AFEF78EFE06999DEDE3
:10306000071A8DED0D0ACDED0E0A40F2E010C2F206
:1030700000400D9A0E9B43600260097890ED000AB3
:10308000D0ED010A0AA8FEF793FC40F2B810C2F294
:1030900000400A990B9A0C9B8360426001600168B2
:1030A0003422C4F20102116041683822C4F20102E4
:1030B000116080683C21C4F201010860FFE712B092
:1030C00080BD00BF00BF00BF0000000000003E4008
:1030D00000000060FB210940DB0F49400080BB4637
:1030E00080B58EB00C900B910C980168012042F2D3
:1030F0000002C4F20202914203900CD0FFE70C9848
:1031000000684DF60071CBF6FD710844B0FA80F00E
:1031100040090390FFE70398C10746F20030C5F667
:10312000020000291CBF42F20030C4F202000AF083
:1031300017F904900C980069082803D1FFE7402094
:10314000099002E020200990FFE704F0D1FA0A90EC
:10315000FFE70C98006800680999084228D1FFE74A
:103160000B98013018B3FFE704F0C2FA0A99401A2D
:103170000B99884203D8FFE70B98B8B9FFE70C9882
:1031800000680068099908420FD1FFE70C99486D63
:1031900040F004004865FFE70C99002081F85000DA
:1031A000FFE703208DF837009FE0FFE7FFE7D0E758
:1031B0000C9800680AF010F908900C9800680AF062
:1031C0008BF907900C98006842F20011C4F20201DA
:1031D000884206D1FFE742F20000C4F202000290EA
:1031E00003E00C9800680290FFE702980C990968C8
:1031F00088420BD0FFE7049840B1FFE70498062807
:1032000004D0FFE70498072805D1FFE70C98006871
:10321000C068069018E00C98006842F20011C4F2F1
:103220000201884206D1FFE742F20000C4F2020028
:10323000019003E00C9800680190FFE70198059069
:103240000598C0680690FFE70C99486D40F400505F
:103250004865089878B9FFE79DF81B0080070028AB
:103260002AD4FFE7079838B3FFE79DF819008006D6
:10327000002821D4FFE70C98006800684006002869
:1032800019D5FFE79DF81A008006002812D4FFE741
:103290000C99486D20F4805048650C98406DC0052D
:1032A000002806D4FFE70C99486D40F001004865FE
:1032B000FFE7FFE7FFE7FFE7099840280CD1FFE7AA
:1032C0009DF819004006002805D4FFE70C98016816
:1032D00060200860FFE704E00C9801682020086087
:1032E000FFE700208DF83700FFE79DF837000EB0AC
:1032F00080BD00000000000081B0009001B0704768
:1033000080B588B0069006980168012042F200025C
:10331000C4F20202914202900CD0FFE706980068C6
:103320004DF60071CBF6FD710844B0FA80F040090B
:103330000290FFE70298C10746F20030C5F602008E
:1033400000291CBF42F20030C4F202000AF008F863
:103350000390069800680AF02BF820B1FFE70220DE
:103360008DF81F00BBE006980068C06800F00040C0
:10337000049006980068C06C10F4C07F0CD1FFE781
:10338000049848B9FFE70699486D40F02000486569
:1033900001208DF81F00A2E0FFE7069890F850008A
:1033A000012804D1FFE702208DF81F0097E006995D
:1033B000012081F85000FFE7FFE70698FDF714FCB5
:1033C0008DF817009DF8170000287CD1FFE70698BC
:1033D000406DC005002806D5FFE70699886D20F0EE
:1033E0000800886503E0069900208865FFE70698D5
:1033F000406D40F4805042F20101884306994865CF
:103400000698006842F20011C4F20201884206D117
:10341000FFE742F20000C4F20200019003E00698C8
:1034200000680190FFE7019806990968884203D077
:10343000FFE7039830B9FFE70699486D20F4801044
:103440004865FFE70698016860200860FFE7069975
:10345000002081F85000FFE70698006842F2001152
:10346000C4F20201884206D1FFE742F20000C4F232
:103470000200009003E0069800680090FFE70098C3
:103480000699096888420BD0FFE7039840B1FFE72F
:103490000398062804D0FFE7039807280CD1FFE71C
:1034A0000698006809F074FF28B9FFE706980068DD
:1034B00009F0AEFFFFE705E00699486D40F4801083
:1034C0004865FFE706E0FFE70699002081F8500015
:1034D000FFE7FFE79DF817008DF81F00FFE79DF855
:1034E0001F0008B080BD000080B588B00690069827
:1034F0000168012042F20002C4F2020291420290ED
:103500000CD0FFE7069800684DF60071CBF6FD7110
:103510000844B0FA80F040090290FFE70298C10722
:1035200046F20030C5F6020000291CBF42F200300E
:10353000C4F2020009F014FF03900698006809F035
:1035400037FF20B1FFE702208DF81F00E9E0069861
:103550000068C06800F00040049006980068C06CE5
:1035600010F4C07F0CD1FFE7049848B9FFE7069933
:10357000486D40F02000486501208DF81F00D0E024
:10358000FFE7069890F85000012804D1FFE70220D9
:103590008DF81F00C5E00699012081F85000FFE773
:1035A000FFE70698FDF720FB8DF817009DF8170040
:1035B000002840F0AA80FFE70698406DC00500286B
:1035C00006D5FFE70699886D20F00800886503E0BE
:1035D000069900208865FFE70698406D40F480500A
:1035E00042F201018843069948650698006842F254
:1035F0000011C4F20201884206D1FFE742F2000046
:10360000C4F20200019003E0069800680190FFE711
:10361000019806990968884203D0FFE7039830B9FA
:10362000FFE70699486D20F480104865FFE706988B
:10363000016860200860FFE70699002081F85000CB
:10364000FFE706980068C0688002002807D5FFE7FA
:1036500006980168486840F480604860FFE7069873
:10366000006908280DD1FFE706980168486820F036
:103670002000486006980168486840F040004860B3
:103680000CE006980168486820F040004860069801
:103690000168486840F020004860FFE7069800682D
:1036A00042F20011C4F20201884206D1FFE742F261
:1036B0000000C4F20200009003E006980068009049
:1036C000FFE700980699096888420BD0FFE7039846
:1036D00040B1FFE70398062804D0FFE703980728C6
:1036E0000CD1FFE70698006809F052FE28B9FFE701
:1036F0000698006809F08CFEFFE705E00699486D22
:1037000040F480104865FFE706E0FFE706990020D7
:1037100081F85000FFE7FFE79DF817008DF81F00C4
:10372000FFE79DF81F0008B080BD0000000000000A
:1037300080B584B00290FFE7029890F8500001280D
:1037400004D1FFE702208DF80F003AE00299012032
:1037500081F85000FFE7FFE702980221FDF784F8A7
:103760008DF807009DF8070000BBFFE7029800688E
:1037700009F09EFE98B9FFE70298FDF7D1F98DF8A0
:1037800007009DF8070048B9FFE70298406D40F038
:10379000010020F4885002994865FFE705E002998E
:1037A000486D20F480504865FFE7FFE7FFE7029986
:1037B000002081F85000FFE79DF807008DF80F000A
:1037C000FFE79DF80F0004B080BD0000000000007E
:1037D00081B0009001B0704781B0009001B0704797
:1037E00080B5A6B02490239100208DF88B002398FB
:1037F000006808B1FFE7FFE7FFE7249890F8500062
:10380000012804D1FFE702208DF897002DE12499CB
:10381000012081F85000FFE7FFE700201D901E9077
:103820002498006842F20001C4F20201884206D1E5
:10383000FFE742F20010C4F20200089002E000200C
:103840000890FFE7089878B9FFE72499486D40F0A1
:1038500020004865FFE72499002081F85000FFE729
:1038600001208DF8970000E1089809F021FE0790EB
:103870002498006809F01CFE002840F0E280FFE771
:103880000798002840F0DD80FFE7249801680120B8
:1038900042F20002C4F20202914206900CD0FFE70D
:1038A000249800684DF60071CBF6FD710844B0FA1B
:1038B00080F040090690FFE70698C10746F2003005
:1038C000C5F6020000291CBF42F20030C4F202001B
:1038D00021902398006800285ED0FFE72198806837
:1038E00020F440402399496808432199886024982E
:1038F0000168012042F20002C4F2020291420590E6
:103900000CD0FFE7249800684DF60071CBF6FD71EE
:103910000844B0FA80F040090590FFE70598C10718
:1039200046F20030C5F6020000291CBF42F200300A
:10393000C4F2020042F20031C4F20201884212D104
:10394000FFE742F20000C4F2020009F099FD039083
:1039500042F20010C4F2020009F092FD0146039801
:103960000843049007E046F20000C5F6020009F0A3
:1039700087FD0490FFE7049868B9FFE72198806805
:1039800040F61F718843239A1168926811430843D7
:1039900021998860FFE753E02199886820F440402E
:1039A000886024980168012042F20002C4F20202F9
:1039B000914202900CD0FFE7249800684DF6007108
:1039C000CBF6FD710844B0FA80F040090290FFE7A1
:1039D0000298C10746F20030C5F6020000291CBF5C
:1039E00042F20030C4F2020042F20031C4F202019D
:1039F000884212D1FFE742F20000C4F2020009F04F
:103A00003FFD009042F20010C4F2020009F038FDC0
:103A1000014600980843019007E046F20000C5F611
:103A2000020009F02DFD0190FFE7019838B9FFE78A
:103A30002199886840F61F7290438860FFE7FFE78E
:103A400008E02499486D40F02000486501208DF879
:103A50008B00FFE7FFE72499002081F85000FFE783
:103A60009DF88B008DF89700FFE79DF8970026B032
:103A700080BD00000000000080B5AAB0269025910E
:103A800000208DF893002190269890F838000128A6
:103A900001D1FFE700E0FFE72598C0680021C4F2EC
:103AA000FF71884201D0FFE71EE02698006842F2CD
:103AB0000001C4F20201884201D1FFE7FFE7269826
:103AC000006842F20011C4F20201884201D1FFE70E
:103AD000FFE72698006846F20001C5F60201884219
:103AE00001D1FFE7FFE7FFE7FFE7269890F85000D6
:103AF000012804D1FFE702208DF89F00F1E3269909
:103B0000012081F85000FFE7FFE72698006809F0E0
:103B1000C7FC002840F0D183FFE72598C078000655
:103B200000282DD4FFE725980068000330B9FFE78F
:103B300025980068C0F384601E9015E02598006801
:103B400090FAA0F02890289820B9FFE720208DF85F
:103B5000A70005E02898B0FA80F08DF8A700FFE7ED
:103B60009DF8A7001E90FFE71E9800F01F0101209E
:103B700000FA01F226980168C8691043C861FFE79E
:103B80002698006825990A68496809F0C1FC2698BA
:103B9000006809F085FC20902698006809F000FC78
:103BA0001F902098002840F0B580FFE71F9800285C
:103BB00040F0B080FFE726980068259A1168926867
:103BC00009F046FD41F20000C5F60040006800F033
:103BD0007040B0F1805F0BD1FFE7259840692699CE
:103BE0000968C96801F01C01490888401D901FE060
:103BF00026980068C068C00600280BD4FFE7259807
:103C0000406926990968C96801F01C014908884083
:103C10001C900AE02598406926990968C96801F056
:103C20001001490888401C90FFE71C981D90FFE791
:103C30001D98239025980069042821D0FFE7269835
:103C4000006825990A680969239B09F0B5FD269843
:103C50000068259A1169527E013AB2FA82F252093D
:103C6000D20709F0E1FD26980068259A1169127EB5
:103C7000013AB2FA82F25209D20209F089FD48E013
:103C800026980068006E00F0F84025990968B0EBAE
:103C9000816F07D1FFE726980168086E20F0004089
:103CA0000866FFE726980068406E00F0F840259906
:103CB0000968B0EB816F07D1FFE726980168486E6D
:103CC00020F000404866FFE726980068806E00F00C
:103CD000F84025990968B0EB816F07D1FFE7269876
:103CE0000168886E20F000408866FFE7269800682B
:103CF000C06E00F0F84025990968B0EB816F07D1DC
:103D0000FFE726980168C86E20F00040C866FFE70C
:103D1000FFE7FFE72698006809F0AAFB002840F0BB
:103D2000CB82FFE726980068259A1168D26809F0CF
:103D3000C7FC2598C0680021C4F2FF71884240F09A
:103D40005781FFE7269800681B9042F20001C4F2F9
:103D50000201884240F0A480FFE725980068022114
:103D6000C0F23041884203D1FFE701201A9094E06D
:103D7000259800680421C0F66001884205D1FFE75C
:103D80004020C1F62010199084E025980068082191
:103D9000C0F69041884205D1FFE78020C1F650501F
:103DA000189074E0259800681021C1F2C001884283
:103DB00006D1FFE740F20010C2F28010179063E0D6
:103DC000259800682021C1F2F041884206D1FFE722
:103DD00040F20020C2F2B050169052E025980068E0
:103DE00040F20041C2F60021884206D1FFE740F6CA
:103DF0000000C2F63060159040E02598006840F65B
:103E00000001C2F63061884206D1FFE741F20000AE
:103E1000C3F2602014902EE02598006841F2000162
:103E2000C3F26021884206D1FFE742F20000C3F2EC
:103E3000906013901CE0259800680021C4F22131A5
:103E4000884205D1FFE70020C4F2527012900CE0C6
:103E5000259801680022C4F684320020914204BFF4
:103E60000020C4F6B8701290FFE712981390FFE795
:103E700013981490FFE714981590FFE71598169083
:103E8000FFE716981790FFE717981890FFE7189824
:103E90001990FFE719981A90FFE71A981190A2E07D
:103EA0002698006842F20011C4F20201884240F0F4
:103EB0009480FFE7259800680221C0F230418842D3
:103EC00003D1FFE70120109084E0259800680421C9
:103ED000C0F66001884205D1FFE74020C1F62010FE
:103EE0000F9074E0259800680821C0F69041884240
:103EF00005D1FFE78020C1F650500E9064E0259870
:103F000000681021C1F2C001884206D1FFE740F2EB
:103F10000010C2F280100D9053E025980068202117
:103F2000C1F2F041884206D1FFE740F20020C2F220
:103F3000B0500C9042E02598006840F20041C2F673
:103F40000021884206D1FFE740F60000C2F630604B
:103F50000B9030E02598006840F60001C2F6306111
:103F6000884206D1FFE741F20000C3F260200A90C8
:103F70001EE02598006841F20001C3F260218842EA
:103F800006D1FFE742F20000C3F2906009900CE016
:103F9000259801680022C4F684320020914204BFB3
:103FA0000020C4F6B8700990FFE709980A90FFE76F
:103FB0000A980B90FFE70B980C90FFE70C980D9078
:103FC000FFE70D980E90FFE70E980F90FFE70F9810
:103FD0001090FFE71098089002E000200890FFE79B
:103FE00008981190FFE71B98119909F0D1FAFFE7A3
:103FF0002598C0780006002840F15D81FFE72698EB
:104000000168012042F20002C4F2020291420790CC
:104010000CD0FFE7269800684DF60071CBF6FD71D5
:104020000844B0FA80F040090790FFE70798C107FD
:1040300046F20030C5F6020000291CBF42F20030F3
:10404000C4F2020009F06CF92290269801684FF042
:10405000010042F20002C4F20202914206900CD02A
:10406000FFE7269800684DF60071CBF6FD71084415
:10407000B0FA80F040090690FFE70698C10746F2C3
:104080000030C5F6020000291CBF42F20030C4F225
:10409000020042F20031C4F20201884212D1FFE76D
:1040A00042F20000C4F2020009F0E2F9049042F288
:1040B0000010C4F2020009F0DBF90146049808433D
:1040C000059007E046F20000C5F6020009F0D0F9BD
:1040D0000590FFE70598002840F0E380FFE725986A
:1040E00000680021CCF68431884255D1FFE79DF865
:1040F0008A00000600284FD4FFE72698006846F2A1
:104100000001C5F60201884245D1FFE72698016803
:10411000012042F20002C4F20202914203900CD04C
:10412000FFE7269800684DF60071CBF6FD71084454
:10413000B0FA80F040090390FFE70398C10746F208
:104140000030C5F6020000291CBF42F20030C4F264
:104150000200229941F4000109F0FAFA40F29400B9
:10416000C2F2004000684FEA901042F66351C0F27C
:104170003E51A0FB01104FEA90114FF0020000EBFE
:1041800041002190FFE7219820B1FFE721980138F5
:104190002190F8E7FFE783E0259800680021CCF242
:1041A0005271884238D1FFE79DF88B00C00798BB59
:1041B000FFE72698006846F20001C5F60201884232
:1041C00029D1FFE726980168012042F20002C4F2DB
:1041D0000202914202900CD0FFE7269800684DF64B
:1041E0000071CBF6FD710844B0FA80F040090290EE
:1041F000FFE70298C10746F20030C5F60200002929
:104200001CBF42F20030C4F20200229941F08071DA
:1042100009F09EFAFFE742E0259800680021CCF6FD
:10422000B871884239D1FFE79DF88A00400600281E
:1042300033D4FFE72698006846F20001C5F6020174
:10424000884229D1FFE726980168012042F2000246
:10425000C4F20202914201900CD0FFE72698006858
:104260004DF60071CBF6FD710844B0FA80F04009BC
:104270000190FFE70198C10746F20030C5F6020041
:1042800000291CBF42F20030C4F20200229941F41E
:10429000800109F05DFAFFE700E0FFE7FFE7FFE7D5
:1042A00008E02699486D40F02000486501208DF80F
:1042B0009300FFE7FFE7FFE708E02699486D40F02D
:1042C0002000486501208DF89300FFE7FFE726995D
:1042D000002081F85000FFE79DF893008DF89F00C3
:1042E000FFE79DF89F002AB080BD0000000000009D
:1042F00081B0009001B0704781B0009001B070476C
:1043000081B0009001B0704780B590B00F90002050
:104310000E900F98006800680D900F980068406834
:104320000C900F980168012042F20002C4F20202D0
:10433000914206900CD0FFE70F9800684DF600718F
:10434000CBF6FD710844B0FA80F040090690FFE713
:104350000698C10746F20030C5F6020000291CBFCE
:1043600042F20030C4F2020008F0F2FF07909DF81C
:1043700034004FEA807000281AD5FFE79DF830001E
:104380008007002814D5FFE70F98406DC00600286D
:1043900006D4FFE70F99486D40F400604865FFE7D9
:1043A0000F98FDF7E9FE0F98016802200860FFE70B
:1043B0009DF834004007002806D5FFE70C9800F070
:1043C000040004280ED0FFE79DF834000007002801
:1043D00040F19F80FFE79DF830000007002840F182
:1043E0009880FFE70F98406DC006002806D4FFE7CD
:1043F0000F99486D40F400704865FFE70F9800681A
:1044000009F05EF800287CD0FFE70F98006842F2C0
:104410000011C4F20201884206D1FFE742F2000017
:10442000C4F20200059003E00F9800680590FFE7D2
:1044300005980F99096888420BD0FFE7079840B1AB
:10444000FFE70798052804D0FFE70798092805D15A
:10445000FFE70F980068C068099018E00F9800689F
:1044600042F20011C4F20201884206D1FFE742F293
:104470000000C4F20200049003E00F98006804906A
:10448000FFE7049808900898C0680990FFE709982A
:1044900000F40050B0F5005F32D0FFE70F980068DD
:1044A0000068000700282AD5FFE70F98006808F089
:1044B000F7FFC0B9FFE70F980168486820F00C00CB
:1044C00048600F99486D20F4807048650F98406DE2
:1044D000C004002806D4FFE70F99486D40F00100A2
:1044E0004865FFE70AE00F99486D40F01000486505
:1044F0000F99886D40F001008865FFE7FFE7FFE74F
:10450000FFE70F98FFF7F4FE0F9801680C20086092
:10451000FFE79DF834008006002806D5FFE70C98D9
:1045200000F0200020280ED0FFE79DF83400400660
:10453000002840F1B680FFE79DF8300040060028D3
:1045400040F1AF80FFE70F98406DC006002806D409
:10455000FFE70F99486D40F400504865FFE70F985A
:10456000006808F02DFF0B900F98006808F0A8FF76
:104570000A900F98006842F20011C4F202018842CA
:1045800006D1FFE742F20000C4F20200039003E00C
:104590000F9800680390FFE703980F990968884215
:1045A0000BD0FFE7079840B1FFE70798062804D033
:1045B000FFE70798072805D1FFE70F980068C06854
:1045C000099018E00F98006842F20011C4F202014D
:1045D000884206D1FFE742F20000C4F202000290D6
:1045E00003E00F9800680290FFE70298089008988F
:1045F000C0680990FFE70B9800284AD0FFE79DF8B4
:104600002700800700280AD5FFE70A9800283FD036
:10461000FFE79DF825008006002839D4FFE70F98B2
:10462000006800684006002831D5FFE79DF82600A5
:10463000800600282AD4FFE70F98006808F0B0FE33
:10464000C0B9FFE70F980168486820F06000486033
:104650000F99486D20F4805048650F98406DC00553
:10466000002806D4FFE70F99486D40F00100486527
:10467000FFE70AE00F99486D40F0100048650F9978
:10468000886D40F001008865FFE7FFE7FFE7FFE77F
:10469000FFE70F98FEF7BCFB0F98016860200860E9
:1046A000FFE79DF834000006002813D5FFE79DF8CA
:1046B0003000000600280DD5FFE70F99486D40F443
:1046C000803048650F9800F09FFA0F9801688020AD
:1046D0000860FFE79DF83500C00798B1FFE79DF837
:1046E0003100C00770B1FFE70F99486D40F400300A
:1046F00048650F98FFF76CF80F9801684FF48070C9
:104700000860FFE79DF835008007002814D5FFE713
:104710009DF83100800700280ED5FFE70F99486DFE
:1047200040F4802048650F98FFF756F80F9801680D
:104730004FF400700860FFE79DF83400C0060028C1
:104740005DD5FFE79DF83000C006002857D5FFE78C
:104750000F98006B18B9FFE701200E9038E007981A
:1047600058B3FFE70F980168012042F20002C4F23B
:104770000202914201900CD0FFE70F9800684DF6BD
:104780000071CBF6FD710844B0FA80F04009019049
:10479000FFE70198C10746F20030C5F60200002984
:1047A0001CBF42F20030C4F2020008F0C9FD18B18B
:1047B000FFE701200E90FFE709E00F980068C0684E
:1047C000800718B1FFE701200E90FFE7FFE7FFE742
:1047D0000E9801280ED1FFE70F99486D40F48060D4
:1047E00048650F99886D40F0020088650F98FFF7C3
:1047F00087FDFFE70F98016810200860FFE79DF82C
:1048000035004007002819D5FFE79DF83100400723
:10481000002813D5FFE70F99486D40F480404865A4
:104820000F99886D40F0080088650F9801684FF473
:10483000806008600F98FEF75FFDFFE710B080BD55
:1048400010B58CB00A9000208DF8270006900A98C9
:1048500020B9FFE701208DF82F00D1E10A98C06848
:1048600038B1FFE70A98007F012801D1FFE7FFE791
:10487000FFE70A98406D50B9FFE70A9800F0C8F9C1
:104880000A99002088650A9981F85000FFE70A9884
:10489000006808F0DDFD28B1FFE70A98006808F01D
:1048A00013FDFFE70A98006808F0F2FDE8B9FFE79A
:1048B0000A98006808F024FD40F29400C2F200401B
:1048C0000068800942F66351C0F23E51A0FB01012D
:1048D000012000EB91100690FFE7069820B1FFE75A
:1048E000069801380690F8E7FFE70A98006808F094
:1048F000CFFD70B9FFE70A99486D40F01000486598
:104900000A99886D40F00100886501208DF8270024
:10491000FFE70A98006808F0C3FD07900A98406D09
:10492000C006002800F15E81FFE70798002840F0EC
:104930005981FFE70A98406D40F0020020F4807032
:104940000A9948650A98006808F092FD002870D11D
:10495000FFE70A980168012042F20002C4F2020255
:10496000914203900CD0FFE70A9800684DF6007161
:10497000CBF6FD710844B0FA80F040090390FFE7E0
:104980000398C10746F20030C5F6020000291CBF9B
:1049900042F20030C4F2020042F20031C4F20201DD
:1049A000884212D1FFE742F20000C4F2020008F090
:1049B0005FFD019042F20010C4F2020008F058FDC1
:1049C000014601980843029007E046F20000C5F650
:1049D000020008F04DFD0290FFE7029840BBFFE7A0
:1049E0000A980168012042F20002C4F202029142D8
:1049F00000900CD0FFE70A9800684DF60071CBF6E6
:104A0000FD710844B0FA80F040090090FFE700987B
:104A1000C10746F20030C5F6020000291CBF42F271
:104A20000030C4F202000A99496808F081FEFFE7ED
:104A3000FFE702F055FE41F20401884213D3FFE77D
:104A40000A98806810280ED1FFE70A994A7D086B02
:104A500040EA42308A681043097F40EA014040F052
:104A60000C0008900BE00A994A7D086B40EA42303E
:104A70008A681043097F40EA01400890FFE70A98DE
:104A8000007F01280BD1FFE70A98016A0020CFF6CA
:104A9000FE7000EB4141089808430890FFE70A9830
:104AA000406A50B1FFE70A99486A896A00F4787051
:104AB0000143089808430890FFE70A980068C06817
:104AC0004CF20301CFF6F0710840089908430A99A7
:104AD0000968C8600A98006808F0E2FC05900A9826
:104AE000006808F05DFC04900598002859D1FFE7A4
:104AF0000498002855D1FFE70A98017DC06A40EA72
:104B0000813008900A980068C06844F20301884325
:104B1000089908430A990968C8600A9890F838000B
:104B2000012829D1FFE70A98406A20B1FFE70A98D7
:104B3000806A08B9FFE7FFE70A98006800694FF646
:104B40001E01CFF6004100EA01020A9B1968DC6BE6
:104B5000D3F840E0D3F844C00020CFF6FF7000EB5C
:104B6000044040EA0E0040EA0C009B6C18431043DE
:104B700040F00100086106E00A980168086920F029
:104B800001000861FFE70A980068006920F07040A2
:104B90000A9A1168526B104308610A98FBF758FD96
:104BA000FFE70A98C06801280CD1FFE70A9800685F
:104BB000006B20F00F000A9A11689269013A1043C5
:104BC000086306E00A980168086B20F00F0008638C
:104BD000FFE70A98406D40F0010020F002000A99BA
:104BE000486508E00A99486D40F0100048650120CA
:104BF0008DF82700FFE79DF827008DF82F00FFE7CD
:104C00009DF82F000CB010BD81B0009001B070472E
:104C100080B596B0159000201490139012901190CA
:104C200010901598006842F20001C4F20201884217
:104C30007CD1FFE740F27C10C2F2004001680131F4
:104C400001600068012810D1FFE7FFE744F2D84077
:104C5000C5F60200016841F020010160006800F023
:104C600020000F900F98FFE7FFE7FFE744F2E040D6
:104C7000C5F60200016841F001010160006800F022
:104C800001000E900E98FFE7FFE744F2E040C5F602
:104C90000200016841F004010160006800F00400B6
:104CA0000D900D98FFE7FFE744F2E040C5F60200E3
:104CB000016841F020010160006800F020000C90C4
:104CC0000C98FFE7802010900320059011900020A1
:104CD000079012900020C5F6020010A9069102F07C
:104CE000EBFA059A069907982023109311921290D7
:104CF00040F60000C5F6020002F0DEFA059A0699B9
:104D000007984FF4805310931192129041F2004093
:104D1000C5F6020002F0D0FA079A12200890114658
:104D200002F012FE089802F003FE96E01598006863
:104D300042F20011C4F20201884240F08D80FFE788
:104D400040F27C10C2F2004001680131016000684D
:104D5000012810D1FFE7FFE744F2D840C5F6020072
:104D6000016841F020010160006800F020000B9014
:104D70000B98FFE7FFE7FFE744F2E040C5F60200CB
:104D8000016841F004010160006800F004000A902D
:104D90000A98FFE7FFE744F2E040C5F60200016829
:104DA00041F001010160006800F0010009900998DC
:104DB000FFE7012010900320019011900020039044
:104DC000129040F60000C5F6020010A9029102F010
:104DD00073FA019A02990398182310931192129072
:104DE0000020C5F6020002F067FA039940F2B020F5
:104DF000C2F2004004901022C4F2020202600A22B1
:104E000042608160C1604FF4806202614FF40062D1
:104E100042614FF4005282614FF48072C2610162BC
:104E2000416201F0EDF918B1FFE7FCF7E1FCFFE7A3
:104E3000FFE7159840F2B021C2F20041C164159815
:104E40008863FFE7122000900022114602F07CFDEB
:104E5000009802F06DFDFFE7FFE716B080BD00008F
:104E600080B588B0069005910492069801680120EB
:104E700042F20002C4F20202914201900CD0FFE71C
:104E8000069800684DF60071CBF6FD710844B0FA43
:104E900080F040090190FFE70198C10746F2003019
:104EA000C5F6020000291CBF42F20030C4F2020025
:104EB00008F04EFA02900698006808F0F1FA00280F
:104EC00040F0AF80FFE7FFE7069890F85000012818
:104ED00004D1FFE702208DF81F00ABE00699012006
:104EE00081F85000FFE7FFE7029848B1FFE702981A
:104EF000052805D0FFE70298092840F08780FFE7E2
:104F00000698FBF771FE8DF80F009DF80F00002842
:104F100074D1FFE70698406D40F4807040F601615F
:104F20008843069948650698006842F20011C4F269
:104F30000201884206D1FFE742F20000C4F20200FB
:104F4000009003E0069800680090FFE7009806993B
:104F50000968884203D0FFE7029830B9FFE7069955
:104F6000486D20F480104865FFE70698406DC00446
:104F7000002806D5FFE70699886D20F006008865B1
:104F800003E0069900208865FFE70698C16C40F6AB
:104F90000120C0F60000C8630698C16C40F60930D5
:104FA000C0F6000008640698C16C40F6D920C0F62F
:104FB0000000C864069801681C200860FFE7069995
:104FC000002081F85000FFE706980168486840F02B
:104FD0001000486006990868C96A08F089FA0698BE
:104FE0000168C06C4031059A049B01F0BDFD8DF84D
:104FF0000F000698006808F0ABFA06E0FFE7069994
:10500000002081F85000FFE7FFE709E001208DF85C
:105010000F00FFE70699002081F85000FFE7FFE747
:1050200003E002208DF80F00FFE79DF80F008DF8D8
:105030001F00FFE79DF81F0008B080BD00000000C2
:1050400080B590B00F9000200B9040F29400C2F217
:105050000040006848F2B511C1F64E31A0FB0110C6
:10506000800A0A900F98806D09900F98806D0890C3
:10507000099800680E90089800680D900F980168D4
:1050800001201022C4F202029142079000F0A38096
:10509000FFE70F98016801202822C4F20202914222
:1050A000079000F09880FFE70F98016801204022E8
:1050B000C4F202029142079000F08D80FFE70F9842
:1050C000016801205822C4F202029142079000F0C8
:1050D0008280FFE70F98016801207022C4F202026B
:1050E0009142079077D0FFE70F980168012088224E
:1050F000C4F20202914207906DD0FFE70F98016859
:105100000120A022C4F202029142079063D0FFE77F
:105110000F9801680120B822C4F202029142079060
:1051200059D0FFE70F980168012040F21042C4F205
:105130000202914207904ED0FFE70F9801680120CC
:1051400040F22842C4F202029142079043D0FFE7A6
:105150000F980168012040F24042C4F202029142DD
:10516000079038D0FFE70F980168012040F25842BD
:10517000C4F20202914207902DD0FFE70F98016818
:10518000012040F27042C4F202029142079022D004
:10519000FFE70F980168012040F28842C4F2020242
:1051A0009142079017D0FFE70F980168012040F265
:1051B000A042C4F20202914207900CD0FFE70F9880
:1051C00000684FF64831CBF6FD710844B0FA80F024
:1051D00040090790FFE70798C007002800F01385F3
:1051E000FFE70E980F99C96D01F01F01C840000735
:1051F000002840F1B080FFE70F9800681021C4F24A
:105200000201884200F08180FFE70F9800682821A2
:10521000C4F20201884278D0FFE70F98006840216D
:10522000C4F20201884270D0FFE70F98006858214D
:10523000C4F20201884268D0FFE70F98006870212D
:10524000C4F20201884260D0FFE70F98006888210D
:10525000C4F20201884258D0FFE70F980068A021ED
:10526000C4F20201884250D0FFE70F980068B821CD
:10527000C4F20201884248D0FFE70F98006840F26C
:105280001041C4F2020188423FD0FFE70F98006846
:1052900040F22841C4F20201884236D0FFE70F985D
:1052A000006840F24041C4F2020188422DD0FFE77D
:1052B0000F98006840F25841C4F20201884224D09D
:1052C000FFE70F98006840F27041C4F20201884283
:1052D0001BD0FFE70F98006840F28841C4F202013A
:1052E000884212D0FFE70F98006840F2A041C4F254
:1052F0000201884209D0FFE70F98006840F2B841E8
:10530000C4F20201884207D1FFE70F9800680068E5
:1053100000F00400069006E00F980068006800F0B6
:1053200008000690FFE70698A0B1FFE70F98016814
:10533000086820F0040008600F98C06D00F01F019D
:1053400008208840099988600F99486D40F0010055
:105350004865FFE7FFE70E980F99C96D01F01F013F
:10536000C840C007002800F0A980FFE70F98006838
:105370001021C4F20201884200F08180FFE70F98FB
:1053800000682821C4F20201884278D0FFE70F9814
:1053900000684021C4F20201884270D0FFE70F98F4
:1053A00000685821C4F20201884268D0FFE70F98D4
:1053B00000687021C4F20201884260D0FFE70F98B4
:1053C00000688821C4F20201884258D0FFE70F9894
:1053D0000068A021C4F20201884250D0FFE70F9874
:1053E0000068B821C4F20201884248D0FFE70F9854
:1053F000006840F21041C4F2020188423FD0FFE74A
:105400000F98006840F22841C4F20201884236D069
:10541000FFE70F98006840F24041C4F20201884261
:105420002DD0FFE70F98006840F25841C4F2020106
:10543000884224D0FFE70F98006840F27041C4F220
:10544000020188421BD0FFE70F98006840F28841B4
:10545000C4F20201884212D0FFE70F98006840F2C0
:10546000A041C4F20201884209D0FFE70F9800680A
:1054700040F2B841C4F20201884207D1FFE70F9819
:105480000068406900F08000059005E00F98006812
:10549000006800200590FFE7059870B1FFE70F98BE
:1054A000C06D00F01F0101208840099988600F99A4
:1054B000486D40F002004865FFE7FFE70E980F993E
:1054C000C96D01F01F01C8404007002840F1A980C4
:1054D000FFE70F9800681021C4F20201884200F033
:1054E0008180FFE70F9800682821C4F202018842FA
:1054F00078D0FFE70F9800684021C4F2020188428B
:1055000070D0FFE70F9800685821C4F2020188426A
:1055100068D0FFE70F9800687021C4F2020188424A
:1055200060D0FFE70F9800688821C4F2020188422A
:1055300058D0FFE70F980068A021C4F2020188420A
:1055400050D0FFE70F980068B821C4F202018842EA
:1055500048D0FFE70F98006840F21041C4F2020102
:1055600088423FD0FFE70F98006840F22841C4F21C
:105570000201884236D0FFE70F98006840F24041B0
:10558000C4F2020188422DD0FFE70F98006840F274
:105590005841C4F20201884224D0FFE70F98006806
:1055A00040F27041C4F2020188421BD0FFE70F981D
:1055B000006840F28841C4F20201884212D0FFE73D
:1055C0000F98006840F2A041C4F20201884209D05D
:1055D000FFE70F98006840F2B841C4F20201884228
:1055E00007D1FFE70F980068006800F00200049000
:1055F00005E00F980068006800200490FFE7049819
:1056000070B1FFE70F98C06D00F01F0104208840C3
:10561000099988600F99486D40F004004865FFE7DC
:10562000FFE70E980F99C96D01F01F01C840C00631
:10563000002840F1DE80FFE70F9800681021C4F2D7
:105640000201884200F08180FFE70F98006828215E
:10565000C4F20201884278D0FFE70F980068402129
:10566000C4F20201884270D0FFE70F980068582109
:10567000C4F20201884268D0FFE70F9800687021E9
:10568000C4F20201884260D0FFE70F9800688821C9
:10569000C4F20201884258D0FFE70F980068A021A9
:1056A000C4F20201884250D0FFE70F980068B82189
:1056B000C4F20201884248D0FFE70F98006840F228
:1056C0001041C4F2020188423FD0FFE70F98006802
:1056D00040F22841C4F20201884236D0FFE70F9819
:1056E000006840F24041C4F2020188422DD0FFE739
:1056F0000F98006840F25841C4F20201884224D059
:10570000FFE70F98006840F27041C4F2020188423E
:105710001BD0FFE70F98006840F28841C4F20201F5
:10572000884212D0FFE70F98006840F2A041C4F20F
:105730000201884209D0FFE70F98006840F2B841A3
:10574000C4F20201884207D1FFE70F9800680068A1
:1057500000F00800039006E00F980068006800F071
:1057600004000390FFE70398002841D0FFE70F985B
:10577000C06D00F01F0110208840099988600F98C3
:1057800000680068400300281AD5FFE70F980068FA
:1057900000680003002809D4FFE70F98006C20B1CF
:1057A000FFE70F98016C8847FFE708E00F98806CCF
:1057B00020B1FFE70F98816C8847FFE7FFE716E00D
:1057C0000F9800680068C005002807D4FFE70F980D
:1057D0000168086820F008000860FFE70F98006C77
:1057E00020B1FFE70F98016C8847FFE7FFE7FFE76D
:1057F000FFE70E980F99C96D01F01F01C8408006A0
:10580000002840F12681FFE70F9800681021C4F2BC
:105810000201884200F08180FFE70F98006828218C
:10582000C4F20201884278D0FFE70F980068402157
:10583000C4F20201884270D0FFE70F980068582137
:10584000C4F20201884268D0FFE70F980068702117
:10585000C4F20201884260D0FFE70F9800688821F7
:10586000C4F20201884258D0FFE70F980068A021D7
:10587000C4F20201884250D0FFE70F980068B821B7
:10588000C4F20201884248D0FFE70F98006840F256
:105890001041C4F2020188423FD0FFE70F98006830
:1058A00040F22841C4F20201884236D0FFE70F9847
:1058B000006840F24041C4F2020188422DD0FFE767
:1058C0000F98006840F25841C4F20201884224D087
:1058D000FFE70F98006840F27041C4F2020188426D
:1058E0001BD0FFE70F98006840F28841C4F2020124
:1058F000884212D0FFE70F98006840F2A041C4F23E
:105900000201884209D0FFE70F98006840F2B841D1
:10591000C4F20201884207D1FFE70F9800680068CF
:1059200000F01000029006E00F980068006800F098
:1059300002000290FFE70298002800F08980FFE74C
:105940000F98C06D00F01F012020884009998860E1
:105950000F9890F83500042837D1FFE70F980168B9
:10596000086820F0160008600F980168486920F068
:10597000800048610F98006C20B9FFE70F98806C99
:1059800038B1FFE70F980168086820F00800086048
:10599000FFE70F98C06D00F01F013F208840099974
:1059A00088600F99012081F83500FFE70F990020EA
:1059B00081F83400FFE70F98006D20B1FFE70F98E2
:1059C000016D8847FFE700F019BC0F980068006878
:1059D000400300281AD5FFE70F980068006800030D
:1059E000002809D4FFE70F98406C20B1FFE70F981B
:1059F000416C8847FFE708E00F98C06B20B1FFE7D4
:105A00000F98C16B8847FFE7FFE720E00F98006819
:105A10000068C005002811D4FFE70F9801680868E6
:105A200020F0100008600F99012081F83500FFE791
:105A30000F99002081F83400FFE7FFE70F98C06B53
:105A400020B1FFE70F98C16B8847FFE7FFE7FFE74B
:105A5000FFE70F98406D002800F0D480FFE70F9813
:105A6000406DC007002800F0C480FFE70F990420B4
:105A700081F835000F9800681021C4F202018842B5
:105A800000F08180FFE70F9800682821C4F202012E
:105A9000884278D0FFE70F9800684021C4F20201E5
:105AA000884270D0FFE70F9800685821C4F20201C5
:105AB000884268D0FFE70F9800687021C4F20201A5
:105AC000884260D0FFE70F9800688821C4F2020185
:105AD000884258D0FFE70F980068A021C4F2020165
