:020000040800F2
:100000004809002465030008E19B0008E19000080E
:10001000D99B0008F9080008E1BF000800000000B3
:10002000000000000000000000000000E9A300083C
:10003000010900080000000041A0000849A40008D0
:100040008303000883030008830300088303000878
:100050008303000883030008830300088303000868
:100060008303000883030008830300088303000858
:100070008303000883030008830300088303000848
:100080008303000883030008E908000883030008CD
:100090008303000883030008830300088303000828
:1000A00083030008C9A6000883030008830300082F
:1000B0008303000883030008830300088303000808
:1000C00083030008830300088303000883030008F8
:1000D00083030008830300088303000883030008E8
:1000E0008303000883030008000000008303000866
:1000F00083030008830300088303000883030008C8
:100100008303000883030008D9A6000883030008BE
:10011000830300088303000883030008E9A600089E
:100120008303000883030008830300088303000897
:100130008303000883030008830300088303000887
:1001400000000000000000000000000000000000AF
:100150008303000883030008830300088303000867
:100160008303000883030008830300088303000857
:1001700083030008830300088303000800000000D5
:100180008303000883030008830300088303000837
:100190008303000883030008830300088303000827
:1001A0008303000883030008830300088303000817
:1001B0008303000883030008830300088303000807
:1001C00083030008830300088303000883030008F7
:1001D00083030008830300088303000883030008E7
:1001E00083030008830300088303000883030008D7
:1001F00083030008830300088303000883030008C7
:1002000083030008830300088303000883030008B6
:1002100083030008830300088303000883030008A6
:100220008303000883030008830300080000000024
:100230008303000883030008000000008303000814
:100240008303000883030008830300088303000876
:100250008303000883030008830300088303000866
:100260008303000883030008830300088303000856
:1002700083030008830300088303000800000000D4
:1002800083030008830300088303000800000000C4
:10029000000000008303000800F002F800F052F8AC
:1002A00014A696E8000CB244B344DA4501D100F03C
:1002B00049F8BAE80F000FA696E83000A5EB040550
:1002C00004EB0607AAEB0704A7F101074FEA15158F
:1002D0004FEA3414A4F10104AC4201D300F032F827
:1002E00013F0010F18BFFB1A43F0010300F001F8EF
:1002F000DBE71847ECCE00000CCF0000103A24BF1B
:1003000078C878C1FAD8520724BF30C830C144BF7A
:1003100004680C6070470000704700000023002450
:1003200000250026103A28BF78C1FBD8520728BF05
:1003300030C148BF0B6070471FB50CF012FF1FBDE6
:1003400010B510BD00F0E8F81146FFF7F5FF0BF00F
:10035000DBFE00F006F903B4FFF7F2FF03BC00F088
:1003600009F900000A4880470A4880470A480047C0
:10037000FEE7FEE7FEE7FEE7FEE7FEE7FEE7FEE755
:10038000FEE7FEE705480649064A074B70470000AE
:100390001909000839A5000899020008480300243B
:1003A00048090024480500244805002453EA020CAB
:1003B00000F069802DE9F04B4FF00006002B1FBFC5
:1003C000B3FA83F503FA05F424FA05F65E4012BF8A
:1003D0001643B2FA82F502FA05F4C5F120051EBFF4
:1003E00022FA05FC44EA0C04203556EA044C4FEA94
:1003F000144418BF641C4FF000084FF000099042ED
:1004000071EB030C39D3002919BFB1FA81F701FA56
:1004100007F6B0FA80F700FA07F6C7F120071EBF0B
:1004200020FA07FC46EA0C062037B6FBF4FCA7EBE3
:100430000507103F07F01F0BCBF120062CFA06F63C
:100440000CFA0BFB44BFB3460026202FA4BF5E4628
:100450004FF0000B5BEA060C08BF4FF0010B19EBE5
:100460000B0948EB0608ABFB027C06FB02CC0BFB3E
:1004700003CCC01B71EB0C01C1E70B4602464146A1
:100480004846BDE8F08B13B5084318BF4FF0FF3066
:100490000146AFF30080BDE81C4070474FF00002FA
:1004A00000B5134694469646203922BFA0E80C506A
:1004B000A0E80C50B1F12001BFF4F7AF090728BF45
:1004C000A0E80C5048BF0CC05DF804EB890028BFC1
:1004D00040F8042B08BF704748BF20F8022B11F0EA
:1004E000804F18BF00F8012B704770477047704766
:1004F00010B500F009F8006810BD10B5044600F012
:1005000003F8046010BD000000487047700000242C
:1005100000487047700000247546FFF7F9FFAE46AB
:1005200005006946534620F00700854618B020B5FF
:10053000FFF728FFBDE820404FF000064FF000070E
:100540004FF000084FF0000BAC46ACE8C009ACE837
:10055000C009ACE8C009ACE8C00921F007018D462C
:10056000704710B50446AFF300802046BDE8104048
:10057000FFF7F1BE01491820ABBEFEE726000200DE
:10058000704700000000000080B584B0039003981D
:10059000006842F20001C4F20201884209D0FFE77C
:1005A0000398006842F20011C4F20201884209D1A6
:1005B000FFE742F20830C4F20200006810F4403F46
:1005C00009D129E046F20830C5F60200006810F4AF
:1005D000403F21D0FFE706F063F90290039840689E
:1005E0000190B0F5803F0AD0FFE70198B0F5003FD9
:1005F00005D0FFE70198B0F5403F07D00AE0039827
:10060000C1880298B0FBF1F0029004E002988008E3
:10061000029000E0FFE75FE04FF40020002104F0CB
:100620007BF80290039840680090B0F5802F32D09C
:10063000FFE70098B0F5002F2DD0FFE70098B0F548
:10064000402F28D0FFE70098B0F5801F23D0FFE7A8
:100650000098B0F5A01F1ED0FFE70098B0F5C01FAE
:1006600019D0FFE70098B0F5E01F1FD0FFE7009812
:10067000B0F5001F1ED0FFE70098B0F5101F1DD089
:10068000FFE70098B0F5201F1CD0FFE70098B0F5F9
:10069000301F1BD01EE0039841686FF0010000EA94
:1006A00051410298B0FBF1F0029014E00298000969
:1006B000029010E00298400902900CE00298800934
:1006C000029008E00298C009029004E00298000A33
:1006D000029000E0FFE7FFE703F07EFA41F203013A
:1006E000884217D8FFE7029842F60151C0F2311153
:1006F000884207D3FFE703980168886840F4807058
:10070000886006E003980168886820F4807088603B
:10071000FFE743E0029840080290029845F6106116
:10072000C0F25F01884209D8FFE70398006880683B
:1007300020F440700399096888602EE002984BF617
:100740002041C0F2BE0188420AD8FFE70398006842
:100750008068012161F309200399096888601BE022
:10076000029847F64001C0F27D1188420AD8FFE79F
:10077000039800688068022161F3092003990968E1
:10078000886008E003980068806840F4407003992E
:1007900009688860FFE7FFE7FFE7FFE704B080BD77
:1007A00080B586B004900498006808F04DFD0028DC
:1007B00040F09280FFE70498006880683F21C8F20B
:1007C000000108420ED0FFE70499486D40F0100088
:1007D00048650499886D40F00100886501208DF816
:1007E00017007DE00498006808F08AFC03F0FCF92B
:1007F000039004980168012042F20002C4F2020250
:10080000914201900CD0FFE7049800684DF600710A
:10081000CBF6FD710844B0FA80F040090190FFE783
:100820000198C10746F20030C5F6020000291CBF3E
:1008300042F20030C4F2020008F09AFC02900498E0
:10084000006842F20011C4F20201884206D1FFE7BB
:1008500042F20000C4F20200009003E00498006835
:100860000090FFE7009804990968884203D0FFE7E9
:10087000029880BBFFE7FFE7049800680068C007A4
:1008800040BBFFE70498006808F0DEFC28B9FFE7EA
:100890000498006808F034FCFFE703F0A5F9039919
:1008A000401A032815D3FFE7049800680068C007C2
:1008B00070B9FFE70499486D40F01000486504994D
:1008C000886D40F00100886501208DF8170007E071
:1008D000FFE7D1E7FFE7FFE700208DF81700FFE70C
:1008E0009DF8170006B080BD80B540F26810C2F2D6
:1008F000004002F035FA80BDFFE7FEE7000000008F
:10090000704700000000000081B0EFF3108072B665
:100910000090FFE7FEE7000044F60C01C5F6020177
:10092000086840F002000860FFE744F60400C5F6DE
:10093000020000688004002801D4FFE7F5E7704753
:1009400080B58AB0099008918DED070A099890ED5D
:10095000010A8DED020A9DED070A0BF01BFC8DEDDF
:10096000010A099890ED000A8DED030A9DED070A32
:100970000BF0B8FC9DED012A9DED021AB0EE403A55
:100980009DED030A20EE030A91EE020A089880ED1D
:10099000000A099890ED010A8DED050A9DED070A00
:1009A0000BF0A0FC8DED040A099890ED000A8DED86
:1009B000060A9DED070A0BF0EDFB9DED042A9DED67
:1009C000051AB0EE403A9DED060A20EE030AA1EEAC
:1009D000020A089880ED010A0AB080BD00000000FC
:1009E00080B584B003900291039800680299086072
:1009F000039890ED000A90ED011AB0EE002AA1EEE6
:100A0000020A8DED010AB0EE080A0BF070FDB0EE9F
:100A1000401A9DED010A80EE010A029880ED010A5C
:100A200004B080BD0000000080B58AB00990089134
:100A30008DED070A089890ED010A8DED020A9DEDF3
:100A4000070A0BF0A7FB8DED010A089890ED000A4C
:100A50008DED030A9DED070A0BF044FC9DED012A84
:100A60009DED021AB0EE403A9DED030A20EE030A16
:100A700091EE020A099880ED000A089890ED010AAB
:100A80008DED050A9DED070A0BF02CFC8DED040A97
:100A9000089890ED000A8DED060A9DED070A0BF00F
:100AA00079FB9DED042A9DED051AB0EE403A9DEDCF
:100AB000060A20EE030AA1EE020A099880ED010A57
:100AC0000AB080BD0000000080B594B008910146D6
:100AD000089809918DED120ACDED130A8DF84700A3
:100AE0008DED101A002088604860086012980F9001
:100AF00013980E909DED0F0A9DED0E1A30EE010A2F
:100B00008DED0D0A9DED0D0A9DED101AB4EE410A12
:100B1000F1EE10FA19DDFFE79DED0F0A9DED0D1ABC
:100B200080EE010A9DED101A20EE010A8DED0F0AEC
:100B30009DED0E0A9DED0D1A80EE010A9DED101A35
:100B400020EE010A8DED0E0AFFE79DED100A9DEDE6
:100B50000F1A30EE410A9DED0E1A30EE410A10EEEA
:100B6000100A0CF08DFA41EC100B51EC100B9FEDBC
:100B7000700B53EC102B0BF0CBFF41EC100B51EC36
:100B8000100B0BF08FFD0C900C980CF079FA41ECE7
:100B9000100B8DED000B0F980CF072FA41EC100B5E
:100BA00051EC100B9FED640B53EC102B039302924E
:100BB0000BF0AEFF9DED000B41EC110B53EC112B34
:100BC00051EC100B0BF0A0FD41EC100B51EC100B95
:100BD0000BF068FD0B900B980CF052FA41EC100BE7
:100BE0008DED040B0E980CF04BFA029A039B41EC2E
:100BF000100B51EC100B0BF08BFF9DED040B41EC37
:100C0000110B53EC112B51EC100B0BF07DFD41EC53
:100C1000100B51EC100B0BF045FD0A909DF84700AE
:100C2000013801460791052800F27E800799DFE828
:100C300001F01767033F2B5309989DED0C0ABCEE9A
:100C4000C00A80ED000A9DED0B0ABCEEC00A80EDE3
:100C5000010A9DED0A0ABCEEC00A80ED020A64E0BA
:100C600009989DED0B0ABCEEC00A80ED000A9DEDCF
:100C70000C0ABCEEC00A80ED010A9DED0A0ABCEE2A
:100C8000C00A80ED020A50E009989DED0A0ABCEE08
:100C9000C00A80ED000A9DED0C0ABCEEC00A80ED92
:100CA000010A9DED0B0ABCEEC00A80ED020A3CE091
:100CB00009989DED0A0ABCEEC00A80ED000A9DED80
:100CC0000B0ABCEEC00A80ED010A9DED0C0ABCEED9
:100CD000C00A80ED020A28E009989DED0B0ABCEEDF
:100CE000C00A80ED000A9DED0A0ABCEEC00A80ED44
:100CF000010A9DED0C0ABCEEC00A80ED020A14E068
:100D000009989DED0C0ABCEEC00A80ED000A9DED2D
:100D10000A0ABCEEC00A80ED010A9DED0B0ABCEE8A
:100D2000C00A80ED020A00E0FFE714B080BD00BFFA
:100D3000000000000000D03F000000000000E03F85
:100D400080B596B08DED150ACDED140A1498139068
:100D50009FED4D0B8DED060B0BF08CFB8DED000B1D
:100D600015980CF08DF941EC100B8DED020B1498D9
:100D70000CF086F99DED001B9DED020B41EC120B72
:100D80008DED042B51EC110B53EC102B0BF0C0FE2E
:100D90009DED040B41EC110B51EC110B53EC102B9E
:100DA0000CF080F841EC100B51EC100B0BF07AFCBE
:100DB0009DED060B12900BF05DFB8DED0E0B9DF87B
:100DC0003F0080F080008DF83F000E980A900F9849
:100DD0000B9015980CF054F941EC100B8DED080BAD
:100DE00014980CF04DF99DED080B02460A980B463D
:100DF0000B9943EC112B8DED0C1B53EC102B0BF0CE
:100E000087FE9DED0C0B41EC110B51EC110B53ECDB
:100E1000102B0CF047F841EC100B51EC100B0BF0C1
:100E200041FC119000208DF843009DED130AB5EEB2
:100E3000400AF1EE10FA06DDFFE79DF843000130AD
:100E40008DF84300FFE79DED120AB5EE400AF1EE82
:100E500010FA06DDFFE79DF8430002308DF84300ED
:100E6000FFE79DED110AB5EE400AF1EE10FA06DD3E
:100E7000FFE79DF8430004308DF84300FFE79DF83D
:100E8000430016B080BD00BF000000000000084015
:100E900080B5ACB08DED290ACDED280A8DF89F0004
:100EA0008DED261ACDED251A00202B902A909FED6E
:100EB000C00B8DED160B0BF0DDFA8DED000B2598B8
:100EC0000CF0DEF89DED001B41EC100B51EC110B0A
:100ED00053EC102B0BF01CFE41EC100B8DED020BB4
:100EE00026980CF0CDF89DED021B41EC100B51EC57
:100EF000110B53EC102B0BF0AFFC41EC100B8DEDF4
:100F0000040B28980CF0BCF89DED041B41EC100B71
:100F100051EC110B53EC102B0BF0FAFD41EC100BC4
:100F200051EC100B0BF0BEFB9DED160B24900BF05B
:100F3000A1FA8DED060B25980CF0A2F89DED061B8D
:100F400041EC100B51EC110B53EC102B0BF0E0FDAE
:100F500041EC100B8DED080B26980CF091F89DEDEF
:100F6000081B41EC100B51EC110B53EC102B0BF048
:100F700073FC9DED160B41EC110B8DED101B0BF06E
:100F800079FA9FED8D1B53EC112B51EC100B0BF0EC
:100F9000BFFD41EC100B8DED0A0B29980CF070F899
:100FA00041EC100B8DED0C0B9DED280AB6EE001AEE
:100FB0008DED191A20EE010A10EE100A0CF060F8FF
:100FC0009DED0A1B9DED0C0B41EC120B8DED0E2BD4
:100FD00051EC110B53EC102B0BF09AFD9DED0E0B09
:100FE00053EC102B41EC100B51EC100B0BF05AFF93
:100FF0009DED100B41EC110B53EC112B51EC100B30
:101000000BF086FD41EC100B51EC100B0BF04AFB82
:101010009DED160B23900BF02DFA8DED120B2598FC
:101020000CF02EF89DED121B41EC100B51EC110B46
:1010300053EC102B0BF06CFD41EC100B8DED140BF1
:1010400026980CF01DF89DED141B41EC100B51EC93
:10105000110B53EC102B0BF0FFFB9DED160B41EC2D
:10106000110B8DED201B0BF005FA9FED551B53EC7A
:10107000112B51EC100B0BF04BFD41EC100B8DEDD7
:101080001A0B29980BF0FCFF9DED191A41EC100B7F
:101090008DED1C0B9DED280A20EE010A10EE100AC2
:1010A0000BF0EEFF9DED1A1B9DED1C0B41EC120B9E
:1010B0008DED1E2B51EC110B53EC102B0BF028FD7A
:1010C0009DED1E0B53EC102B41EC100B51EC100B53
:1010D0000BF0E8FE9DED200B41EC110B53EC112BB6
:1010E00051EC100B0BF014FD41EC100B51EC100BFC
:1010F0000BF0D8FA22909DF89F00032805D1FFE756
:1011000023982A9024982B90FFE79DF89F000128B0
:101110000DD1FFE79DED230AB1EE400A8DED2A0ABD
:101120009DED220AB1EE400A8DED2B0AFFE79DF8F6
:101130009F00052805D1FFE724982A9022982B903C
:10114000FFE79DF89F0004280DD1FFE79DED240ADD
:10115000B1EE400A8DED2A0A9DED230AB1EE400A58
:101160008DED2B0AFFE79DF89F00062805D1FFE7CC
:1011700022982A9023982B90FFE79DF89F00022841
:101180000DD1FFE79DED220AB1EE400A8DED2A0A4E
:101190009DED240AB1EE400A8DED2B0AFFE79DED8F
:1011A0002A0ADDED2B0A2CB080BD00BF00BF00BFB6
:1011B0000000000000000840000000000000E03FC8
:1011C000000000000000E0BF80B540F21820C2F22D
:1011D000004006F01DFC80BD80B584B003900398EC
:1011E000006808F051F801900398006807F0F0FFDC
:1011F0000090019868B9FFE7009850B9FFE703989D
:1012000000684FF0004107F0F7FF00208DF80B0059
:1012100003E001208DF80B00FFE79DF80B0004B000
:1012200080BD00000000000081B0009001B0704758
:1012300080B5C6B03290319100208DF8C3002B905C
:101240002A903298C06808B1FFE7FFE7329890F81B
:101250003800012801D1FFE700E0FFE73198C068BE
:101260000021C4F2FF71884201D0FFE71EE03298EE
:10127000006842F20001C4F20201884201D1FFE796
:10128000FFE73298006842F20011C4F2020188427E
:1012900001D1FFE7FFE73298006846F20001C5F68A
:1012A0000201884201D1FFE7FFE7FFE7FFE732983D
:1012B00090F85000012805D1FFE702208DF8CF00FB
:1012C00000F0F7BD3299012081F85000FFE7FFE7F9
:1012D0003298C06828B1FFE73198006A01282FD101
:1012E000FFE731984068092829D1FFE73198806AE3
:1012F00068B1FFE731990A68886AC96A02F0F84262
:1013000000F07C0040EA524008432A9006E0319801
:10131000006800F0F840400C2A90FFE7329800681F
:10132000C06C44F20001C0F2104108402A99084301
:1013300032990968C8642A983299C865FFE747E07E
:101340003298006EE0B9FFE73198006A329908667A
:1013500032990020C8653198806A58B1FFE7319909
:10136000086A8A6AC96A013802F07C02104308439D
:101370002A9004E03198006A01382A90FFE7FFE7DD
:10138000319908684968C0F3846001F01F0100FAD0
:1013900001F12A9808432A903299086E01380866AC
:1013A0002A9A3299C86D1043C8653298006E70B998
:1013B000FFE732980068C06C44F20001C0F21041AF
:1013C0000840329A1168D26D1043C864FFE7FFE706
:1013D0003298006807F0FCFE002859D1FFE73198E9
:1013E000C078000600282DD4FFE73198006800037C
:1013F00030B9FFE731980068C0F38460299015E0A8
:101400003198006890FAA0F04490449820B9FFE722
:1014100020208DF8170105E04498B0FA80F08DF88F
:101420001701FFE79DF817012990FFE7299800F0C1
:101430001F01012000FA01F232980168C8691043C7
:10144000C861FFE7319890F8250090B9FFE732981E
:101450000068C06820F44010319991F8242091F878
:101460002610490541EA0251084332990968C860CB
:101470000DE032980068C06820F44010319991F86E
:10148000261040EA415032990968C860FFE7FFE73B
:101490003298006807F0F8FE2D903298006807F047
:1014A00097FE2C902D98002840F02682FFE72C987C
:1014B000002840F02182FFE73198806A20B1FFE7E1
:1014C0003198C06AA8B9FFE7319890F82500012843
:1014D00007D1FFE732980168C86840F00070C86023
:1014E00006E032980168C86820F00070C860FFE725
:1014F00016E0319890F82500012809D1FFE73299CC
:10150000486D40F02000486501208DF8C30006E0DA
:1015100032980168C86820F00070C860FFE7FFE7F4
:10152000319890F83000012818D1FFE73298006810
:1015300000694FF61D61CFF6004101403198436BC1
:10154000826B0020CFF6FF7000EB0340104308438E
:1015500040F0020032990968086106E0329801689B
:10156000086920F002000861FFE732980068319AAC
:101570001168926807F038FF41F20000C5F600409C
:10158000006800F07040B0F1805F0BD1FFE7319848
:10159000406932990968C96801F01C01490888400E
:1015A00028901FE032980068C068C00600280BD45D
:1015B000FFE73198406932990968C96801F01C0158
:1015C0004908884027900AE03198406932990968B3
:1015D000C96801F01001490888402790FFE7279863
:1015E0002890FFE728982F9031980069042815D09B
:1015F000FFE73298006831990A6809692F9B07F064
:10160000A7FF32980068319A1169127F013AB2FA45
:1016100082F25209D20707F0CBFF6CE132980068E2
:10162000002107F0B5FD000348B9FFE732980068D4
:10163000002107F0ADFDC0F38460269018E03298D9
:101640000068002107F0A4FD90FAA0F042904298B3
:1016500020B9FFE720208DF80F0105E04298B0FA8D
:1016600080F08DF80F01FFE79DF80F012690FFE74E
:101670002698259031980068000330B9FFE731982B
:101680000068C0F38460249015E03198006890FAF7
:10169000A0F04090409820B9FFE720208DF8070186
:1016A00005E04098B0FA80F08DF80701FFE79DF85B
:1016B00007012490FFE725982499884209D1FFE784
:1016C0003298006831990A680023194607F040FFF4
:1016D000FFE732980068012107F05AFD000348B97E
:1016E000FFE732980068012107F052FDC0F38460E3
:1016F000239018E032980068012107F049FD90FA24
:10170000A0F03E903E9820B9FFE720208DF8FF0022
:1017100005E03E98B0FA80F08DF8FF00FFE79DF8F5
:10172000FF002390FFE72398229031980068000380
:1017300030B9FFE731980068C0F38460219015E06C
:101740003198006890FAA0F03C903C9820B9FFE7EF
:1017500020208DF8F70005E03C98B0FA80F08DF875
:10176000F700FFE79DF8F7002190FFE72298219905
:10177000884209D1FFE73298006831990A6801214F
:10178000002307F0E5FEFFE732980068022107F02A
:10179000FFFC000348B9FFE732980068022107F018
:1017A000F7FCC0F38460209018E0329800680221B2
:1017B00007F0EEFC90FAA0F03A903A9820B9FFE7D3
:1017C00020208DF8EF0005E03A98B0FA80F08DF80F
:1017D000EF00FFE79DF8EF002090FFE720981F90B3
:1017E00031980068000330B9FFE731980068C0F312
:1017F00084601E9015E03198006890FAA0F038904F
:10180000389820B9FFE720208DF8E70005E03898E8
:10181000B0FA80F08DF8E700FFE79DF8E7001E9032
:10182000FFE71F981E99884209D1FFE732980068A8
:1018300031990A680321002307F08AFEFFE73298F6
:101840000068032107F0A4FC000348B9FFE73298C1
:101850000068032107F09CFCC0F384601D9018E031
:1018600032980068032107F093FC90FAA0F03690BC
:10187000369820B9FFE720208DF8DF0005E0369884
:10188000B0FA80F08DF8DF00FFE79DF8DF001D90D3
:10189000FFE71D981C9031980068000330B9FFE7FE
:1018A00031980068C0F384601B9015E0319800689F
:1018B00090FAA0F03490349820B9FFE720208DF8FA
:1018C000D70005E03498B0FA80F08DF8D700FFE734
:1018D0009DF8D7001B90FFE71C981B99884209D1FF
:1018E000FFE73298006831990A680321002307F066
:1018F0002FFEFFE7FFE7FFE73298006807F0ACFC38
:10190000002840F0CB82FFE732980068319A1168D6
:10191000D26807F0A1FD3198C0680021C4F2FF71C0
:10192000884240F05781FFE7329800681A9042F2EF
:101930000001C4F20201884240F0A480FFE7319820
:1019400000680221C0F23041884203D1FFE7012044
:10195000199094E0319800680421C0F66001884233
:1019600005D1FFE74020C1F62010189084E031989F
:1019700000680821C0F69041884205D1FFE7802029
:10198000C1F65050179074E0319800681021C1F2F0
:10199000C001884206D1FFE740F20010C2F2801079
:1019A000169063E0319800682021C1F2F04188422E
:1019B00006D1FFE740F20020C2F2B050159052E08D
:1019C0003198006840F20041C2F60021884206D1F9
:1019D000FFE740F60000C2F63060149040E0319816
:1019E000006840F60001C2F63061884206D1FFE788
:1019F00041F20000C3F2602013902EE0319800689D
:101A000041F20001C3F26021884206D1FFE742F2B1
:101A10000000C3F2906012901CE031980068002131
:101A2000C4F22131884205D1FFE70020C4F2527090
:101A300011900CE0319801680022C4F68432002035
:101A4000914204BF0020C4F6B8701190FFE71198CE
:101A50001290FFE712981390FFE713981490FFE796
:101A600014981590FFE715981690FFE716981790B1
:101A7000FFE717981890FFE718981990FFE7199853
:101A80001090A2E03298006842F20011C4F2020104
:101A9000884240F09480FFE7319800680221C0F24C
:101AA0003041884203D1FFE701200F9084E0319854
:101AB00000680421C0F66001884205D1FFE740209C
:101AC000C1F620100E9074E0319800680821C0F62D
:101AD0009041884205D1FFE78020C1F650500D901B
:101AE00064E0319800681021C1F2C001884206D13B
:101AF000FFE740F20010C2F280100C9053E03198E2
:101B000000682021C1F2F041884206D1FFE740F28F
:101B10000020C2F2B0500B9042E03198006840F2D1
:101B20000041C2F60021884206D1FFE740F60000DE
:101B3000C2F630600A9030E03198006840F600014B
:101B4000C2F63061884206D1FFE741F20000C3F2DD
:101B5000602009901EE03198006841F20001C3F254
:101B60006021884206D1FFE742F20000C3F2906094
:101B700008900CE0319801680022C4F684320020FD
:101B8000914204BF0020C4F6B8700890FFE708989F
:101B90000990FFE709980A90FFE70A980B90FFE782
:101BA0000B980C90FFE70C980D90FFE70D980E90A6
:101BB000FFE70E980F90FFE70F98079002E00020D4
:101BC0000790FFE707981090FFE71A98109907F021
:101BD000BFFBFFE73198C0780006002840F15D8127
:101BE000FFE732980168012042F20002C4F20202CB
:101BF000914206900CD0FFE7329800684DF60071D4
:101C0000CBF6FD710844B0FA80F040090690FFE77A
:101C10000698C10746F20030C5F6020000291CBF35
:101C200042F20030C4F2020042F20031C4F202017A
:101C3000884212D1FFE742F20000C4F2020007F02E
:101C40000BFB049042F20010C4F2020007F004FB08
:101C5000014604980843059007E046F20000C5F6E7
:101C6000020007F0F9FA0590FFE70598002840F018
:101C70000A81FFE732980168012042F20002C4F2B3
:101C80000202914203900CD0FFE7329800684DF6B3
:101C90000071CBF6FD710844B0FA80F04009039062
:101CA000FFE70398C10746F20030C5F6020000299D
:101CB0001CBF42F20030C4F2020007F049FA2E9035
:101CC0003198006840F20001CCF68431884255D149
:101CD000FFE79DF8BA00000600284FD4FFE73298CE
:101CE000006846F20001C5F60201884245D1FFE7CF
:101CF00032980168012042F20002C4F202029142CD
:101D000002900CD0FFE7329800684DF60071CBF6D8
:101D1000FD710844B0FA80F040090290FFE7029894
:101D2000C10746F20030C5F6020000291CBF42F28E
:101D30000030C4F202002E9941F4000107F0C8FB04
:101D400040F26000C2F2004000684FEA901042F694
:101D50006351C0F23E51A0FB01104FEA90114FF0C9
:101D6000020000EB41002B90FFE72B9820B1FFE72A
:101D70002B9801382B90F8E7FFE783E03198006853
:101D80000021CCF25271884238D1FFE79DF8BB00A8
:101D9000C00798BBFFE73298006846F20001C5F61D
:101DA0000201884229D1FFE732980168012042F2FE
:101DB0000002C4F20202914201900CD0FFE7329877
:101DC00000684DF60071CBF6FD710844B0FA80F062
:101DD00040090190FFE70198C10746F20030C5F6BF
:101DE000020000291CBF42F20030C4F202002E990A
:101DF00041F0807107F06CFBFFE742E0319800682A
:101E00000021CCF6B871884239D1FFE79DF8BA00BD
:101E10004006002833D4FFE73298006846F20001FC
:101E2000C5F60201884229D1FFE7329801680120F6
:101E300042F20002C4F20202914200900CD0FFE78D
:101E4000329800684DF60071CBF6FD710844B0FA87
:101E500080F040090090FFE70098C10746F200308B
:101E6000C5F6020000291CBF42F20030C4F2020095
:101E70002E9941F4800107F02BFBFFE700E0FFE71C
:101E8000FFE7FFE708E03299486D40F02000486521
:101E900001208DF8C300FFE7FFE7FFE7FFE7329976
:101EA000002081F85000FFE79DF8C3008DF8CF00B7
:101EB000FFE79DF8CF0046B080BD000000000000A5
:101EC00080B58EB00D900D9840F26811C2F20041BD
:101ED000884240F08180FFE707F056FF40F2FC00A7
:101EE000C2F200400290416840F20000C2F200409D
:101EF0000190416007F0B0FE01990298896840F2B4
:101F00005802C2F2004204925160016840F22C0073
:101F1000C2F200400390416007F09EFE03990498CE
:101F20008968016040F2F001C2F2004191ED000ABF
:101F300040F23411C2F200410591FEF701FD05980F
:101F400090ED000AD0ED010AFEF7FAFE059902466F
:101F500040F23010C2F200400690027091ED000A8B
:101F6000D1ED010A0078B3EE081ADFED1C1ACDEDB1
:101F7000071AFEF78DFF06999DED071A8DED0B0AE6
:101F8000CDED0C0A40F26010C2F200400B9A0C9B9F
:101F900043600260097890ED000AD0ED010A08A8BC
:101FA000FEF792FD40F23C10C2F200400899099AF7
:101FB0000A9B83604260016001683422C4F201021E
:101FC000116041683822C4F20102116080683C212E
:101FD000C4F201010860FFE70EB080BD0080BB467F
:101FE00081B0009001B0704780B588B00690069827
:101FF0000168012042F20002C4F202029142029002
:102000000CD0FFE7069800684DF60071CBF6FD7125
:102010000844B0FA80F040090290FFE70298C10737
:1020200046F20030C5F6020000291CBF42F2003023
:10203000C4F2020007F0A4F803900698006807F0C5
:10204000C7F820B1FFE702208DF81F00E9E00698ED
:102050000068C06800F00040049006980068C06CFA
:1020600010F4C07F0CD1FFE7049848B9FFE7069948
:10207000486D40F02000486501208DF81F00D0E039
:10208000FFE7069890F85000012804D1FFE70220EE
:102090008DF81F00C5E00699012081F85000FFE788
:1020A000FFE70698FEF77CFB8DF817009DF81700F8
:1020B000002840F0AA80FFE70698406DC005002880
:1020C00006D5FFE70699886D20F00800886503E0D3
:1020D000069900208865FFE70698406D40F480501F
:1020E00042F201018843069948650698006842F269
:1020F0000011C4F20201884206D1FFE742F200005B
:10210000C4F20200019003E0069800680190FFE726
:10211000019806990968884203D0FFE7039830B90F
:10212000FFE70699486D20F480104865FFE70698A0
:10213000016860200860FFE70699002081F85000E0
:10214000FFE706980068C0688002002807D5FFE70F
:1021500006980168486840F480604860FFE7069888
:10216000006908280DD1FFE706980168486820F04B
:102170002000486006980168486840F040004860C8
:102180000CE006980168486820F040004860069816
:102190000168486840F020004860FFE70698006842
:1021A00042F20011C4F20201884206D1FFE742F276
:1021B0000000C4F20200009003E00698006800905E
:1021C000FFE700980699096888420BD0FFE703985B
:1021D00040B1FFE70398062804D0FFE703980728DB
:1021E0000CD1FFE70698006806F0E2FF28B9FFE788
:1021F0000698006807F010F8FFE705E00699486DBB
:1022000040F480104865FFE706E0FFE706990020EC
:1022100081F85000FFE7FFE79DF817008DF81F00D9
:10222000FFE79DF81F0008B080BD0000000000001F
:1022300081B0009001B0704781B0009001B070474C
:1022400080B5A6B02490239100208DF88B002398B0
:10225000006808B1FFE7FFE7FFE7249890F8500017
:10226000012804D1FFE702208DF897002DE1249981
:10227000012081F85000FFE7FFE700201D901E902D
:102280002498006842F20001C4F20201884206D19B
:10229000FFE742F20010C4F20200089002E00020C2
:1022A0000890FFE7089878B9FFE72499486D40F057
:1022B00020004865FFE72499002081F85000FFE7DF
:1022C00001208DF8970000E1089806F0DDFF0790E7
:1022D0002498006806F0D8FF002840F0E280FFE76D
:1022E0000798002840F0DD80FFE72498016801206E
:1022F00042F20002C4F20202914206900CD0FFE7C3
:10230000249800684DF60071CBF6FD710844B0FAD0
:1023100080F040090690FFE70698C10746F20030BA
:10232000C5F6020000291CBF42F20030C4F20200D0
:1023300021902398006800285ED0FFE721988068EC
:1023400020F44040239949680843219988602498E3
:102350000168012042F20002C4F20202914205909B
:102360000CD0FFE7249800684DF60071CBF6FD71A4
:102370000844B0FA80F040090590FFE70598C107CE
:1023800046F20030C5F6020000291CBF42F20030C0
:10239000C4F2020042F20031C4F20201884212D1BA
:1023A000FFE742F20000C4F2020006F055FF03907E
:1023B00042F20010C4F2020006F04EFF01460398FC
:1023C0000843049007E046F20000C5F6020006F05C
:1023D00043FF0490FFE7049868B9FFE721988068FD
:1023E00040F61F718843239A11689268114308438D
:1023F00021998860FFE753E02199886820F44040E4
:10240000886024980168012042F20002C4F20202AE
:10241000914202900CD0FFE7249800684DF60071BD
:10242000CBF6FD710844B0FA80F040090290FFE756
:102430000298C10746F20030C5F6020000291CBF11
:1024400042F20030C4F2020042F20031C4F2020152
:10245000884212D1FFE742F20000C4F2020006F007
:10246000FBFE009042F20010C4F2020006F0F4FEFF
:10247000014600980843019007E046F20000C5F6C7
:10248000020006F0E9FE0190FFE7019838B9FFE786
:102490002199886840F61F7290438860FFE7FFE744
:1024A00008E02499486D40F02000486501208DF82F
:1024B0008B00FFE7FFE72499002081F85000FFE739
:1024C0009DF88B008DF89700FFE79DF8970026B0E8
:1024D00080BD00000000000080B5AAB026902591C4
:1024E00000208DF893002190269890F8380001285C
:1024F00001D1FFE700E0FFE72598C0680021C4F2A2
:10250000FF71884201D0FFE71EE02698006842F282
:102510000001C4F20201884201D1FFE7FFE72698DB
:10252000006842F20011C4F20201884201D1FFE7C3
:10253000FFE72698006846F20001C5F602018842CE
:1025400001D1FFE7FFE7FFE7FFE7269890F850008B
:10255000012804D1FFE702208DF89F00F1E32699BE
:10256000012081F85000FFE7FFE72698006806F099
:1025700083FE002840F0D183FFE72598C07800064D
:1025800000282DD4FFE725980068000330B9FFE745
:1025900025980068C0F384601E9015E025980068B7
:1025A00090FAA0F02890289820B9FFE720208DF815
:1025B000A70005E02898B0FA80F08DF8A700FFE7A3
:1025C0009DF8A7001E90FFE71E9800F01F01012054
:1025D00000FA01F226980168C8691043C861FFE754
:1025E0002698006825990A68496806F061FE2698D1
:1025F000006806F041FE20902698006806F0E0FD95
:102600001F902098002840F0B580FFE71F98002811
:1026100040F0B080FFE726980068259A116892681C
:1026200006F0C6FE41F20000C5F60040006800F06A
:102630007040B0F1805F0BD1FFE725984069269983
:102640000968C96801F01C01490888401D901FE015
:1026500026980068C068C00600280BD4FFE72598BC
:10266000406926990968C96801F01C014908884039
:102670001C900AE02598406926990968C96801F00C
:102680001001490888401C90FFE71C981D90FFE747
:102690001D98239025980069042821D0FFE72698EB
:1026A000006825990A680969239B06F035FF26987A
:1026B0000068259A1169527E013AB2FA82F25209F3
:1026C000D20706F061FF26980068259A1169127EEC
:1026D000013AB2FA82F25209D20206F009FF48E04A
:1026E00026980068006E00F0F84025990968B0EB64
:1026F000816F07D1FFE726980168086E20F000403F
:102700000866FFE726980068406E00F0F8402599BB
:102710000968B0EB816F07D1FFE726980168486E22
:1027200020F000404866FFE726980068806E00F0C1
:10273000F84025990968B0EB816F07D1FFE726982B
:102740000168886E20F000408866FFE726980068E0
:10275000C06E00F0F84025990968B0EB816F07D191
:10276000FFE726980168C86E20F00040C866FFE7C2
:10277000FFE7FFE72698006806F066FD002840F0B6
:10278000CB82FFE726980068259A1168D26806F088
:1027900047FE2598C0680021C4F2FF71884240F0CE
:1027A0005781FFE7269800681B9042F20001C4F2AF
:1027B0000201884240F0A480FFE7259800680221CA
:1027C000C0F23041884203D1FFE701201A9094E023
:1027D000259800680421C0F66001884205D1FFE712
:1027E0004020C1F62010199084E025980068082147
:1027F000C0F69041884205D1FFE78020C1F65050D5
:10280000189074E0259800681021C1F2C001884238
:1028100006D1FFE740F20010C2F28010179063E08B
:10282000259800682021C1F2F041884206D1FFE7D7
:1028300040F20020C2F2B050169052E02598006895
:1028400040F20041C2F60021884206D1FFE740F67F
:102850000000C2F63060159040E02598006840F610
:102860000001C2F63061884206D1FFE741F2000064
:10287000C3F2602014902EE02598006841F2000118
:10288000C3F26021884206D1FFE742F20000C3F2A2
:10289000906013901CE0259800680021C4F221315B
:1028A000884205D1FFE70020C4F2527012900CE07C
:1028B000259801680022C4F684320020914204BFAA
:1028C0000020C4F6B8701290FFE712981390FFE74B
:1028D00013981490FFE714981590FFE71598169039
:1028E000FFE716981790FFE717981890FFE71898DA
:1028F0001990FFE719981A90FFE71A981190A2E033
:102900002698006842F20011C4F20201884240F0A9
:102910009480FFE7259800680221C0F23041884288
:1029200003D1FFE70120109084E02598006804217E
:10293000C0F66001884205D1FFE74020C1F62010B3
:102940000F9074E0259800680821C0F690418842F5
:1029500005D1FFE78020C1F650500E9064E0259825
:1029600000681021C1F2C001884206D1FFE740F2A1
:102970000010C2F280100D9053E0259800682021CD
:10298000C1F2F041884206D1FFE740F20020C2F2D6
:10299000B0500C9042E02598006840F20041C2F629
:1029A0000021884206D1FFE740F60000C2F6306001
:1029B0000B9030E02598006840F60001C2F63061C7
:1029C000884206D1FFE741F20000C3F260200A907E
:1029D0001EE02598006841F20001C3F260218842A0
:1029E00006D1FFE742F20000C3F2906009900CE0CC
:1029F000259801680022C4F684320020914204BF69
:102A00000020C4F6B8700990FFE709980A90FFE724
:102A10000A980B90FFE70B980C90FFE70C980D902D
:102A2000FFE70D980E90FFE70E980F90FFE70F98C5
:102A30001090FFE71098089002E000200890FFE750
:102A400008981190FFE71B98119906F051FCFFE7D9
:102A50002598C0780006002840F15D81FFE72698A0
:102A60000168012042F20002C4F202029142079082
:102A70000CD0FFE7269800684DF60071CBF6FD718B
:102A80000844B0FA80F040090790FFE70798C107B3
:102A900046F20030C5F6020000291CBF42F20030A9
:102AA000C4F2020006F04CFB2290269801684FF019
:102AB000010042F20002C4F20202914206900CD0E0
:102AC000FFE7269800684DF60071CBF6FD710844CB
:102AD000B0FA80F040090690FFE70698C10746F279
:102AE0000030C5F6020000291CBF42F20030C4F2DB
:102AF000020042F20031C4F20201884212D1FFE723
:102B000042F20000C4F2020006F09EFB049042F282
:102B10000010C4F2020006F097FB01460498084337
:102B2000059007E046F20000C5F6020006F08CFBB7
:102B30000590FFE70598002840F0E380FFE725981F
:102B400000680021CCF68431884255D1FFE79DF81A
:102B50008A00000600284FD4FFE72698006846F256
:102B60000001C5F60201884245D1FFE726980168B9
:102B7000012042F20002C4F20202914203900CD002
:102B8000FFE7269800684DF60071CBF6FD7108440A
:102B9000B0FA80F040090390FFE70398C10746F2BE
:102BA0000030C5F6020000291CBF42F20030C4F21A
:102BB0000200229941F4000106F07AFC40F2600024
:102BC000C2F2004000684FEA901042F66351C0F232
:102BD0003E51A0FB01104FEA90114FF0020000EBB4
:102BE00041002190FFE7219820B1FFE721980138AB
:102BF0002190F8E7FFE783E0259800680021CCF2F8
:102C00005271884238D1FFE79DF88B00C00798BB0E
:102C1000FFE72698006846F20001C5F602018842E7
:102C200029D1FFE726980168012042F20002C4F290
:102C30000202914202900CD0FFE7269800684DF600
:102C40000071CBF6FD710844B0FA80F040090290A3
:102C5000FFE70298C10746F20030C5F602000029DE
:102C60001CBF42F20030C4F20200229941F0807190
:102C700006F01EFCFFE742E0259800680021CCF634
:102C8000B871884239D1FFE79DF88A0040060028D4
:102C900033D4FFE72698006846F20001C5F602012A
:102CA000884229D1FFE726980168012042F20002FC
:102CB000C4F20202914201900CD0FFE7269800680E
:102CC0004DF60071CBF6FD710844B0FA80F0400972
:102CD0000190FFE70198C10746F20030C5F60200F7
:102CE00000291CBF42F20030C4F20200229941F4D4
:102CF000800106F0DDFBFFE700E0FFE7FFE7FFE70D
:102D000008E02699486D40F02000486501208DF8C4
:102D10009300FFE7FFE7FFE708E02699486D40F0E2
:102D20002000486501208DF89300FFE7FFE7269912
:102D3000002081F85000FFE79DF893008DF89F0078
:102D4000FFE79DF89F002AB080BD00000000000052
:102D500081B0009001B0704781B0009001B0704721
:102D600080B590B00F9000200E900F98006800681A
:102D70000D900F98006840680C900F980168012032
:102D800042F20002C4F20202914206900CD0FFE728
:102D90000F9800684DF60071CBF6FD710844B0FA4B
:102DA00080F040090690FFE70698C10746F2003020
:102DB000C5F6020000291CBF42F20030C4F2020036
:102DC00006F0D6F907909DF834004FEA807000288D
:102DD0001AD5FFE79DF830008007002814D5FFE7DB
:102DE0000F98406DC006002806D4FFE70F99486D84
:102DF00040F400604865FFE70F98FEF715FA0F985A
:102E0000016802200860FFE79DF8340040070028B1
:102E100006D5FFE70C9800F0040004280ED0FFE769
:102E20009DF834000007002840F19F80FFE79DF8DF
:102E300030000007002840F19880FFE70F98406DB0
:102E4000C006002806D4FFE70F99486D40F40070D3
:102E50004865FFE70F98006806F01EFA00287CD04E
:102E6000FFE70F98006842F20011C4F202018842A5
:102E700006D1FFE742F20000C4F20200059003E031
:102E80000F9800680590FFE705980F990968884238
:102E90000BD0FFE7079840B1FFE70798052804D05B
:102EA000FFE70798092805D1FFE70F980068C06879
:102EB000099018E00F98006842F20011C4F2020174
:102EC000884206D1FFE742F20000C4F202000490FB
:102ED00003E00F9800680490FFE7049808900898B2
:102EE000C0680990FFE7099800F40050B0F5005F52
:102EF00032D0FFE70F9800680068000700282AD545
:102F0000FFE70F98006806F0B7F9C0B9FFE70F9820
:102F10000168486820F00C0048600F99486D20F463
:102F2000807048650F98406DC004002806D4FFE704
:102F30000F99486D40F001004865FFE70AE00F99DE
:102F4000486D40F0100048650F99886D40F0010011
:102F50008865FFE7FFE7FFE7FFE70F98FFF7F8FE59
:102F60000F9801680C200860FFE79DF83400800688
:102F7000002806D5FFE70C9800F0200020280ED08E
:102F8000FFE79DF834004006002840F1B680FFE7D7
:102F90009DF830004006002840F1AF80FFE70F9811
:102FA000406DC006002806D4FFE70F99486D40F435
:102FB00000504865FFE70F98006806F011F90B9084
:102FC0000F98006806F068F90A900F98006842F2BE
:102FD0000011C4F20201884206D1FFE742F200006C
:102FE000C4F20200039003E00F9800680390FFE72B
:102FF00003980F99096888420BD0FFE7079840B102
:10300000FFE70798062804D0FFE70798072805D1AF
:10301000FFE70F980068C068099018E00F980068F3
:1030200042F20011C4F20201884206D1FFE742F2E7
:103030000000C4F20200029003E00F9800680290C2
:10304000FFE7029808900898C0680990FFE70B987E
:1030500000284AD0FFE79DF82700800700280AD5FE
:10306000FFE70A9800283FD0FFE79DF8250080067B
:10307000002839D4FFE70F98006800684006002850
:1030800031D5FFE79DF82600800600282AD4FFE707
:103090000F98006806F094F8C0B9FFE70F98016830
:1030A000486820F0600048600F99486D20F4805017
:1030B00048650F98406DC005002806D4FFE70F99BA
:1030C000486D40F001004865FFE70AE00F99486D40
:1030D00040F0100048650F99886D40F00100886548
:1030E000FFE7FFE7FFE7FFE7FFE70F98FEF7E8FEE0
:1030F0000F98016860200860FFE79DF83400000623
:10310000002813D5FFE79DF83000000600280DD5F4
:10311000FFE70F99486D40F4803048650F9800F044
:103120009FFA0F98016880200860FFE79DF835003E
:10313000C00798B1FFE79DF83100C00770B1FFE705
:103140000F99486D40F4003048650F98FFF770F80C
:103150000F9801684FF480700860FFE79DF8350014
:103160008007002814D5FFE79DF83100800700286C
:103170000ED5FFE70F99486D40F4802048650F9801
:10318000FFF75AF80F9801684FF400700860FFE7E6
:103190009DF83400C00600285DD5FFE79DF830009B
:1031A000C006002857D5FFE70F98006B18B9FFE756
:1031B00001200E9038E0079858B3FFE70F98016898
:1031C000012042F20002C4F20202914201900CD0AE
:1031D000FFE70F9800684DF60071CBF6FD710844CB
:1031E000B0FA80F040090190FFE70198C10746F26C
:1031F0000030C5F6020000291CBF42F20030C4F2C4
:10320000020005F0ADFF18B1FFE701200E90FFE7C7
:1032100009E00F980068C068800718B1FFE7012037
:103220000E90FFE7FFE7FFE70E9801280ED1FFE7BA
:103230000F99486D40F4806048650F99886D40F0A3
:10324000020088650F98FFF787FDFFE70F98016878
:1032500010200860FFE79DF835004007002819D5C9
:10326000FFE79DF831004007002813D5FFE70F99CD
:10327000486D40F4804048650F99886D40F0080023
:1032800088650F9801684FF4806008600F98FEF71A
:10329000A7FEFFE710B080BD10B58CB00A900020EB
:1032A0008DF8270006900A9820B9FFE701208DF8D5
:1032B0002F00D1E10A98C06838B1FFE70A98007F73
:1032C000012801D1FFE7FFE7FFE70A98406D50B9F9
:1032D000FFE70A9800F0C8F90A99002088650A9962
:1032E00081F85000FFE70A98006805F0A5FF28B1B3
:1032F000FFE70A98006805F0F7FEFFE70A98006804
:1033000005F0B2FFE8B9FFE70A98006805F008FF8A
:1033100040F26000C2F200400068800942F663514A
:10332000C0F23E51A0FB0101012000EB911006907C
:10333000FFE7069820B1FFE7069801380690F8E706
:10334000FFE70A98006805F08FFF70B9FFE70A9958
:10335000486D40F0100048650A99886D40F0010002
:10336000886501208DF82700FFE70A98006805F0BE
:1033700083FF07900A98406DC006002800F15E8127
:10338000FFE70798002840F05981FFE70A98406D51
:1033900040F0020020F480700A9948650A9800689D
:1033A00005F052FF002870D1FFE70A98016801205C
:1033B00042F20002C4F20202914203900CD0FFE7F5
:1033C0000A9800684DF60071CBF6FD710844B0FA1A
:1033D00080F040090390FFE70398C10746F20030F0
:1033E000C5F6020000291CBF42F20030C4F2020000
:1033F00042F20031C4F20201884212D1FFE742F2E8
:103400000000C4F2020005F01FFF019042F200101C
:10341000C4F2020005F018FF01460198084302902B
:1034200007E046F20000C5F6020005F00DFF02902D
:10343000FFE7029840BBFFE70A980168012042F2CB
:103440000002C4F20202914200900CD0FFE70A98F9
:1034500000684DF60071CBF6FD710844B0FA80F0BB
:1034600040090090FFE70098C10746F20030C5F61A
:10347000020000291CBF42F20030C4F202000A9987
:10348000496806F005F8FFE7FFE700F0A5FB41F209
:103490000401884213D3FFE70A98806810280ED1F0
:1034A000FFE70A994A7D086B40EA42308A68104378
:1034B000097F40EA014040F00C0008900BE00A99B7
:1034C0004A7D086B40EA42308A681043097F40EA2F
:1034D00001400890FFE70A98007F01280BD1FFE721
:1034E0000A98016A0020CFF6FE7000EB414108986F
:1034F00008430890FFE70A98406A50B1FFE70A992D
:10350000486A896A00F47870014308980843089073
:10351000FFE70A980068C0684CF20301CFF6F0712B
:103520000840089908430A990968C8600A98006821
:1035300005F0A2FE05900A98006805F041FE04908F
:103540000598002859D1FFE70498002855D1FFE7D6
:103550000A98017DC06A40EA813008900A980068A4
:10356000C06844F203018843089908430A9909682E
:10357000C8600A9890F83800012829D1FFE70A9816
:10358000406A20B1FFE70A98806A08B9FFE7FFE7C1
:103590000A98006800694FF61E01CFF6004100EA64
:1035A00001020A9B1968DC6BD3F840E0D3F844C0F1
:1035B0000020CFF6FF7000EB044040EA0E0040EA26
:1035C0000C009B6C1843104340F00100086106E0BA
:1035D0000A980168086920F001000861FFE70A986D
:1035E0000068006920F070400A9A1168526B10431D
:1035F00008610A98FCF7C8FFFFE70A98C06801282D
:103600000CD1FFE70A980068006B20F00F000A9ABF
:1036100011689269013A1043086306E00A9801684C
:10362000086B20F00F000863FFE70A98406D40F038
:10363000010020F002000A99486508E00A99486DE7
:1036400040F01000486501208DF82700FFE79DF845
:1036500027008DF82F00FFE79DF82F000CB010BD5C
:1036600081B0009001B0704780B5BEB03D900020A1
:103670003C903B903A903990389008A8C021FCF7D4
:103680000DFF3D98006842F20001C4F20201884239
:1036900040F08B80FFE7002009904FF40021089153
:1036A00002210A910C220B920C910D910E91C021D6
:1036B0000F91202110911190319008A801F054FE33
:1036C00018B1FFE7FDF720F9FFE7FFE744F2D84024
:1036D000C5F60200016841F020010160006800F0B9
:1036E000200007900798FFE7FFE744F2E040C5F6A7
:1036F0000200016841F001010160006800F0010072
:1037000006900698FFE7FFE744F2E040C5F60200A6
:10371000016841F004010160006800F004000590B8
:103720000598FFE7FFE744F2E040C5F602000168B4
:1037300041F020010160006800F02000049004982E
:10374000FFE78020389003200090399000200290FD
:103750003A900020C5F6020038A9019100F028F83F
:10376000009A019902982023389339923A9040F6B2
:103770000000C5F6020000F01BF8009A01990298BB
:103780004FF48053389339923A9041F20040C5F695
:10379000020000F00DF8029A12200390114600F08A
:1037A0004FFB039800F040FBFFE73EB080BD0000F8
:1037B00090B00F900E9100200D908020C5F6000073
:1037C0000A90FFE70E9800680D99C840002800F0A5
:1037D000CF81FFE70E9800680D9A012191400840C3
:1037E0000C900C98002800F0BF81FFE70E9840680D
:1037F00000F00300012807D0FFE70E98406800F0B2
:10380000030002282FD1FFE70F9880680B900D98D6
:103810004100032000FA01F10B9888430B900E98A9
:10382000C0680D99490000FA01F10B9808430B900C
:103830000B980F9988600F9840680B900D990120A4
:1038400000FA01F10B9888430B900E984068C0F382
:1038500000100D9900FA01F10B9808430B900B989A
:103860000F994860FFE70E98406800F003000328B6
:1038700018D0FFE70F98C0680B900D984100032007
:1038800000FA01F10B9888430B900E9880680D990F
:10389000490000FA01F10B9808430B900B980F991F
:1038A000C860FFE70E98406800F00300022826D1A8
:1038B000FFE70F980D996FF0030202EA51010844E7
:1038C000006A0B900D9800F0070081000F2000FAAD
:1038D00001F10B9888430B900E9800690D9901F047
:1038E0000701890000FA01F10B9808430B900B982F
:1038F0000F990D9B02EA530211440862FFE70F98EB
:1039000000680B900D984100032000FA01F10B981C
:1039100088430B900E98406800F003000D99490011
:1039200000FA01F10B9808430B900B980F9908606F
:103930000E9880798007002800F01581FFE7FFE7E7
:1039400044F2F440C5F60200016841F00201016052
:10395000006800F0020009900998FFE70D9820F038
:10396000030040F20841C5F6000140580B900D9845
:1039700000F0030081000F2000FA01F10B9888434A
:103980000B900F980021C5F60201884203D1FFE792
:10399000002008907AE00F9840F20041C5F602013D
:1039A000884203D1FFE7012007906CE00F9840F6B2
:1039B0000001C5F60201884203D1FFE7022006900C
:1039C0005EE00F9840F60041C5F60201884203D13F
:1039D000FFE70320059050E00F9841F20001C5F683
:1039E0000201884203D1FFE70420049042E00F98CF
:1039F00041F20041C5F60201884203D1FFE70520EC
:103A0000039034E00F9841F60001C5F602018842A8
:103A100003D1FFE70620029026E00F9841F600410F
:103A2000C5F60201884203D1FFE70720019018E0A4
:103A30000F9842F20001C5F60201884203D1FFE768
:103A4000082000900AE00F9942F20042C5F60202F7
:103A50000A20914208BF09200090FFE700980190DA
:103A6000FFE701980290FFE702980390FFE70398B1
:103A70000490FFE704980590FFE705980690FFE79C
:103A800006980790FFE707980890FFE708980D99B8
:103A900001F00301890000FA01F10B9808430B9033
:103AA0000B980D9921F0030140F20842C5F600027F
:103AB00088504FF0B04000680B900C990B988843E9
:103AC0000B900E988079C006002805D5FFE70C9969
:103AD0000B9808430B90FFE70B984FF0B04108603C
:103AE0000420C5F6000000680B900C990B988843E1
:103AF0000B900E9880798006002805D5FFE70C9979
:103B00000B9808430B90FFE70B980421C5F60001C2
:103B100008600A9840680B900C990B9888430B90AA
:103B20000E9880798007002805D5FFE70C990B983F
:103B300008430B90FFE70B980A9948600A980068C1
:103B40000B900C990B9888430B900E988079C007C6
:103B500028B1FFE70C990B9808430B90FFE70B98EF
:103B60000A990860FFE7FFE70D9801300D9029E6FC
:103B700010B070470000000082B00190ADF8021054
:103B800001980069BDF80210084204D0FFE7012047
:103B90008DF8010003E000208DF80100FFE79DF89B
:103BA000010002B07047000082B00190ADF8021031
:103BB0008DF801209DF8010028B1FFE7BDF8020053
:103BC0000199886105E0BDF802000004019988614F
:103BD000FFE702B07047000041F20000C5F6004068
:103BE0000068000C7047000040F24430C2F2004010
:103BF000006870470000000040F26800C2F2004018
:103C0000027840F24431C2F2004108681044086072
:103C1000704700000000000080B582B0032000F073
:103C200027F902F091FE44F21842C5F6020211682B
:103C3000C1F303234DF2A811C0F60001CB5C03F0E1
:103C40001F03D84000900098126802F00F02895CB0
:103C500001F01F01C84040F26401C2F20041086057
:103C6000009840F26001C2F200410860002000F0BC
:103C700013F820B1FFE701208DF8070005E000F000
:103C8000BBF800208DF80700FFE79DF8070002B0A1
:103C900080BD00000000000080B582B0009040F2BE
:103CA0006800C2F20040007820B9FFE701208DF8DB
:103CB000070030E040F26000C2F20040006840F2CD
:103CC0006801C2F200410A784FF47A71B1FBF2F157
:103CD000B0FBF1F003F064FD20B1FFE701208DF8A7
:103CE000070018E000980F280DD8FFE700994FF063
:103CF000FF30002200F0A4F8009840F26C01C2F2FC
:103D00000041086003E001208DF8070003E0002077
:103D10008DF80700FFE79DF8070002B080BD0000A6
:103D200010B581B00090009840784EF69851CEF2D0
:103D3000000108604EF6A051CEF20001086820F0A4
:103D400001000860009840684EF69C52CEF20002D6
:103D50001060DDF800E09EF80C0000079EF80B20D4
:103D600040EA02609EF800209EF808309EF809C0E4
:103D70009EF80A4040EAC4409EF80D4040EA844064
:103D80009EF80E4040EA44409EF80FE040EA0E40A4
:103D900040EA0C2040EA43001043086001B010BD27
:103DA000BFF35F8F4EF62451CEF20001086820F475
:103DB000803008604EF69451CEF200010020086079
:103DC000704700000000000081B00090009840F0B3
:103DD00001004EF69451CEF2000108604EF62451D7
:103DE000CEF20001086840F480300860BFF34F8FC6
:103DF000BFF36F8F01B0704780B582B0FFE744F228
:103E0000F440C5F60200016841F00201016000685B
:103E100000F0020001900198FFE7052000F028F86B
:103E200002B080BD0000000080B582B0ADF8060091
:103E3000BDF9060008F004F902B080BD00000000E2
:103E400080B586B0ADF816000491039208F010F921
:103E50000290BDF91600019002980499039A05F0AA
:103E6000C3FE0146019808F00BF906B080BD0000C2
:103E700080B582B00190019808F026F902B080BDAB
:103E800080B584B0029044F60C00C5F602000068CC
:103E900000F004010020B0EB910F13D1FFE744F6CE
:103EA0000C00C5F60200006800F007000299884285
:103EB00004D0FFE701208DF80F002EE000208DF8E0
:103EC0000F002AE044F60C01C5F60201086820F054
:103ED0000700029A10430860FFF786FE0190FFE793
:103EE00044F60400C5F60200006800F4005100200A
:103EF000B0EB513F0DD1FFE7FFF776FE0199401A75
:103F0000B0F57A7F04D9FFE701208DF80F0004E0B7
:103F1000E6E700208DF80F00FFE79DF80F0004B0E2
:103F200080BD00000000000080B502F0B9FC44F242
:103F30002041C5F602010968C1F302124DF2A81131
:103F4000C0F60001895C01F01F01C84080BD00007F
:103F500088B0079044F22840C5F60200016801F0DD
:103F6000030106910068C0F30510059044F22C404F
:103F7000C5F60200006800F001000490049844F2C5
:103F80003441C5F60201096889B2C908484300EE08
:103F9000100AB8EE400A8DED020A0598002800F0DC
:103FA0001181FFE70698009048B1FFE700980128CB
:103FB00065D0FFE70098022800F08380A3E044F278
:103FC0000040C5F60200006800F020010020B0EBC0
:103FD000511F31D0FFE744F20040C5F602000068EF
:103FE000C0F3C10149F20000C0F2D030C8400390D4
:103FF0009DED030AB8EE400A9DED051AB8EE411A90
:1040000080EE010A44F23040C5F6020000686FF30A
:104010005F2001EE100AB8EE411A9DED022A9FEDD5
:104020006F3A02EE031AB7EE002A31EE021A20EEC2
:10403000010A8DED010A21E09DED050AB8EE401A56
:104040009FED680A80EE010A44F23040C5F6020096
:1040500000686FF35F2001EE100AB8EE411A9DED83
:10406000022A9FED5E3A02EE031AB7EE002A31EE05
:10407000021A20EE010A8DED010AFFE765E09DEDD1
:10408000050AB8EE401A9FED560A80EE010A44F286
:104090003040C5F6020000686FF35F2001EE100AA1
:1040A000B8EE411A9DED022A9FED4C3A02EE031A3A
:1040B000B7EE002A31EE021A20EE010A8DED010A58
:1040C00043E09DED050AB8EE401A9FED430A80EEED
:1040D000010A44F23040C5F6020000686FF35F2029
:1040E00001EE100AB8EE411A9DED022A9FED3B3A0F
:1040F00002EE031AB7EE002A31EE021A20EE010A90
:104100008DED010A21E09DED050AB8EE401A9FED04
:10411000350A80EE010A44F23040C5F6020000681C
:104120006FF35F2001EE100AB8EE411A9DED022AEE
:104130009FED2A3A02EE031AB7EE002A31EE021A78
:1041400020EE010A8DED010AFFE79DED010A44F220
:104150003040C5F60200016889B2490A01EE101A22
:10416000B8EE411AB7EE002A31EE021A80EE010ACB
:104170000799BCEEC00A81ED000A9DED010A0168B5
:10418000C1F3064101EE101AB8EE411A31EE021ADF
:1041900080EE010A0799BCEEC00A81ED010A9DED8F
:1041A000010A0068C0F3066001EE100AB8EE411A79
:1041B00031EE021A80EE010A0798BCEEC00A80EDCB
:1041C000020A07E0079900200860079948600799EC
:1041D0008860FFE708B0704720BCBE4B0000003984
:1041E0000024744A0024744C88B0079044F228409C
:1041F000C5F60200016801F0030106910068C0F3F2
:104200000530059044F22C40C5F602000068C0F36A
:1042100000100490049844F23C41C5F6020109687C
:1042200089B2C908484300EE100AB8EE400A8DED85
:10423000020A0598002800F01181FFE70698009017
:1042400048B1FFE70098012865D0FFE700980228F1
:1042500000F08380A3E044F20040C5F6020000684D
:1042600000F020010020B0EB511F31D0FFE744F2F5
:104270000040C5F602000068C0F3C10149F2000029
:10428000C0F2D030C84003909DED030AB8EE400A5A
:104290009DED051AB8EE411A80EE010A44F238404D
:1042A000C5F6020000686FF35F2001EE100AB8EE59
:1042B000411A9DED022A9FED6F3A02EE031AB7EE06
:1042C000002A31EE021A20EE010A8DED010A21E0EA
:1042D0009DED050AB8EE401A9FED680A80EE010ACE
:1042E00044F23840C5F6020000686FF35F2001EE2B
:1042F000100AB8EE411A9DED022A9FED5E3A02EED9
:10430000031AB7EE002A31EE021A20EE010A8DEDF3
:10431000010AFFE765E09DED050AB8EE401A9FED42
:10432000560A80EE010A44F23840C5F602000068E1
:104330006FF35F2001EE100AB8EE411A9DED022ADC
:104340009FED4C3A02EE031AB7EE002A31EE021A44
:1043500020EE010A8DED010A43E09DED050AB8EE5D
:10436000401A9FED430A80EE010A44F23840C5F638
:10437000020000686FF35F2001EE100AB8EE411AE8
:104380009DED022A9FED3B3A02EE031AB7EE002A9A
:1043900031EE021A20EE010A8DED010A21E09DEDB9
:1043A000050AB8EE401A9FED340A80EE010A44F285
:1043B0003840C5F6020000686FF35F2001EE100A76
:1043C000B8EE411A9DED022A9FED2A3A02EE031A39
:1043D000B7EE002A31EE021A20EE010A8DED010A35
:1043E000FFE79DED010A44F23840C5F6020001687E
:1043F00089B2490A01EE101AB8EE411AB7EE002A46
:1044000031EE021A80EE010A0799BCEEC00A81ED76
:10441000000A9DED010A0168C1F3064101EE101A80
:10442000B8EE411A31EE021A80EE010A0799BCEE8D
:10443000C00A81ED010A9DED010A0068C0F3066023
:1044400001EE100AB8EE411A31EE021A80EE010AAE
:104450000798BCEEC00A80ED020A07E00799002029
:1044600008600799486007998860FFE708B07047BF
:1044700020BCBE4B000000390024744A0024744C58
:1044800088B0079044F22840C5F60200016801F0A8
:10449000030106910068C0F30550059044F22C40DA
:1044A000C5F602000068C0F300200490049844F2AE
:1044B0004441C5F60201096889B2C908484300EEC3
:1044C000100AB8EE400A8DED020A0598002800F0A7
:1044D0001181FFE70698009048B1FFE70098012896
:1044E00065D0FFE70098022800F08380A3E044F243
:1044F0000040C5F60200006800F020010020B0EB8B
:10450000511F31D0FFE744F20040C5F602000068B9
:10451000C0F3C10149F20000C0F2D030C84003909E
:104520009DED030AB8EE400A9DED051AB8EE411A5A
:1045300080EE010A44F24040C5F6020000686FF3C5
:104540005F2001EE100AB8EE411A9DED022A9FEDA0
:104550006F3A02EE031AB7EE002A31EE021A20EE8D
:10456000010A8DED010A21E09DED050AB8EE401A21
:104570009FED680A80EE010A44F24040C5F6020051
:1045800000686FF35F2001EE100AB8EE411A9DED4E
:10459000022A9FED5E3A02EE031AB7EE002A31EED0
:1045A000021A20EE010A8DED010AFFE765E09DED9C
:1045B000050AB8EE401A9FED560A80EE010A44F251
:1045C0004040C5F6020000686FF35F2001EE100A5C
:1045D000B8EE411A9DED022A9FED4C3A02EE031A05
:1045E000B7EE002A31EE021A20EE010A8DED010A23
:1045F00043E09DED050AB8EE401A9FED430A80EEB8
:10460000010A44F24040C5F6020000686FF35F20E3
:1046100001EE100AB8EE411A9DED022A9FED3B3AD9
:1046200002EE031AB7EE002A31EE021A20EE010A5A
:104630008DED010A21E09DED050AB8EE401A9FEDCF
:10464000340A80EE010A44F24040C5F602000068D8
:104650006FF35F2001EE100AB8EE411A9DED022AB9
:104660009FED2A3A02EE031AB7EE002A31EE021A43
:1046700020EE010A8DED010AFFE79DED010A44F2EB
:104680004040C5F60200016889B2490A01EE101ADD
:10469000B8EE411AB7EE002A31EE021A80EE010A96
:1046A0000799BCEEC00A81ED000A9DED010A016880
:1046B000C1F3064101EE101AB8EE411A31EE021AAA
:1046C00080EE010A0799BCEEC00A81ED010A9DED5A
:1046D000010A0068C0F3066001EE100AB8EE411A44
:1046E00031EE021A80EE010A0798BCEEC00A80ED96
:1046F000020A07E0079900200860079948600799B7
:104700008860FFE708B0704720BCBE4B000000394E
:104710000024744A0024744C80B59AB01991189002
:104720001898199980F480700843002840F0A880F8
:10473000FFE744F25040C5F60200006800F00700B1
:104740000D900D980A90042800F295800A99DFE8F0
:1047500001F00316298C3C0044F20040C5F602002B
:1047600000688001002806D5FFE715A8FFF7F0FBD9
:1047700016980E9002E000200E90FFE77EE044F2D3
:104780000040C5F6020000680001002806D5FFE7DA
:1047900012A8FFF729FD12980E9002E000200E905B
:1047A000FFE76BE044F20040C5F6020000688000BD
:1047B000002806D5FFE70FA8FFF762FE0F980E90BE
:1047C00002E000200E90FFE758E044F24C40C5F6AE
:1047D0000200006800F040500C9044F20040C5F622
:1047E000020000684007002811D5FFE70C9870B957
:1047F000FFE744F20040C5F602000068C0F3C101C3
:1048000049F20000C0F2D030C8400E902CE044F2D3
:104810000040C5F602000068C00500280BD5FFE780
:104820000C98B0F1805F06D1FFE740F60010C0F2AF
:104830003D000E9017E044F20040C5F6020000680B
:10484000800300280BD5FFE70C98B0F1005F06D17C
:10485000FFE747F64000C0F27D100E9002E0002016
:104860000E90FFE7FFE7FFE708E048F20000C0F224
:10487000BB000E9002E000200E90FFE700F06EBD3E
:104880001898199980F400700843002840F0B3800C
:10489000FFE744F25040C5F60200006800F4E07003
:1048A0000D900D98099090B1FFE70998402821D00C
:1048B000FFE70998802830D0FFE70998C02800F06A
:1048C0008F80FFE70998B0F5807F39D08EE044F201
:1048D0000040C5F6020000688001002806D5FFE709
:1048E00015A8FFF735FB16980E9002E000200E90F9
:1048F000FFE77EE044F20040C5F6020000680001D8
:10490000002806D5FFE712A8FFF76EFC12980E905C
:1049100002E000200E90FFE76BE044F20040C5F695
:10492000020000688000002806D5FFE70FA8FFF707
:10493000A7FD0F980E9002E000200E90FFE758E0D0
:1049400044F24C40C5F60200006800F040500C9064
:1049500044F20040C5F6020000684007002811D567
:10496000FFE70C9870B9FFE744F20040C5F602007B
:104970000068C0F3C10149F20000C0F2D030C84065
:104980000E902CE044F20040C5F602000068C0051D
:1049900000280BD5FFE70C98B0F1805F06D1FFE748
:1049A00040F60010C0F23D000E9017E044F20040C7
:1049B000C5F602000068800300280BD5FFE70C98BD
:1049C000B0F1005F06D1FFE747F64000C0F27D106E
:1049D0000E9002E000200E90FFE7FFE7FFE708E0FF
:1049E00048F20000C0F2BB000E9002E000200E90E2
:1049F000FFE700F0B2BC1898199980F48060084372
:104A0000002840F0B580FFE744F25840C5F60200A8
:104A1000006800F460000D900D980890A8B1FFE7C1
:104A20000898B0F5001F23D0FFE70898B0F5800F75
:104A300031D0FFE70898B0F5C00F00F08F80FFE796
:104A40000898B0F5000F39D08EE044F20040C5F66A
:104A5000020000688001002806D5FFE715A8FFF7CF
:104A600077FA16980E9002E000200E90FFE77EE0A5
:104A700044F20040C5F6020000680001002806D597
:104A8000FFE712A8FFF7B0FB12980E9002E000209B
:104A90000E90FFE76BE044F20040C5F602000068AC
:104AA0008000002806D5FFE70FA8FFF7E9FC0F9864
:104AB0000E9002E000200E90FFE758E044F24C40D8
:104AC000C5F60200006800F040500C9044F200402F
:104AD000C5F6020000684007002811D5FFE70C98D2
:104AE00070B9FFE744F20040C5F602000068C0F369
:104AF000C10149F20000C0F2D030C8400E902CE055
:104B000044F20040C5F602000068C00500280BD53D
:104B1000FFE70C98B0F1805F06D1FFE740F6001088
:104B2000C0F23D000E9017E044F20040C5F60200CE
:104B30000068800300280BD5FFE70C98B0F1005FF8
:104B400006D1FFE747F64000C0F27D100E9002E06C
:104B500000200E90FFE7FFE7FFE708E048F20000C3
:104B6000C0F2BB000E9002E000200E90FFE7F3E3DE
:104B70001898199980F400600843002840F0B58027
:104B8000FFE744F25840C5F60200006800F0E0601C
:104B90000D900D980790A8B1FFE70798B0F1807FBE
:104BA00023D0FFE70798B0F1007F31D0FFE70798E7
:104BB000B0F1407F00F08F80FFE70798B0F1806F81
:104BC00039D08EE044F20040C5F602000068800152
:104BD000002806D5FFE715A8FFF7BAF916980E903A
:104BE00002E000200E90FFE77EE044F20040C5F6B0
:104BF000020000680001002806D5FFE712A8FFF7B1
:104C0000F3FA12980E9002E000200E90FFE76BE09E
:104C100044F20040C5F6020000688000002806D576
:104C2000FFE70FA8FFF72CFC0F980E9002E0002082
:104C30000E90FFE758E044F24C40C5F602000068D1
:104C400000F040500C9044F20040C5F602000068AD
:104C50004007002811D5FFE70C9870B9FFE744F230
:104C60000040C5F602000068C0F3C10149F200002F
:104C7000C0F2D030C8400E902CE044F20040C5F69F
:104C800002000068C00500280BD5FFE70C98B0F1C2
:104C9000805F06D1FFE740F60010C0F23D000E90A5
:104CA00017E044F20040C5F60200006880030028C7
:104CB0000BD5FFE70C98B0F1005F06D1FFE747F690
:104CC0004000C0F27D100E9002E000200E90FFE741
:104CD000FFE7FFE708E048F20000C0F2BB000E90DB
:104CE00002E000200E90FFE735E31898199980F450
:104CF00080500843002840F0B580FFE744F2504060
:104D0000C5F60200006800F4E0400B900B98069096
:104D1000A8B1FFE70698B0F5805F23D0FFE70698BB
:104D2000B0F5005F31D0FFE70698B0F5405F00F0C6
:104D30008F80FFE70698B0F5804F39D08EE044F2BF
:104D40000040C5F6020000688001002806D5FFE794
:104D500015A8FFF7FDF816980E9002E000200E90BF
:104D6000FFE77EE044F20040C5F602000068000163
:104D7000002806D5FFE712A8FFF736FA12980E9022
:104D800002E000200E90FFE76BE044F20040C5F621
:104D9000020000688000002806D5FFE70FA8FFF793
:104DA0006FFB0F980E9002E000200E90FFE758E096
:104DB00044F24C40C5F60200006800F040500C90F0
:104DC00044F20040C5F6020000684007002811D5F3
:104DD000FFE70C9870B9FFE744F20040C5F6020007
:104DE0000068C0F3C10149F20000C0F2D030C840F1
:104DF0000E902CE044F20040C5F602000068C005A9
:104E000000280BD5FFE70C98B0F1805F06D1FFE7D3
:104E100040F60010C0F23D000E9017E044F2004052
:104E2000C5F602000068800300280BD5FFE70C9848
:104E3000B0F1005F06D1FFE747F64000C0F27D10F9
:104E40000E9002E000200E90FFE7FFE7FFE708E08A
:104E500048F20000C0F2BB000E9002E000200E906D
:104E6000FFE777E21898199980F40050084300286A
:104E700040F09580FFE744F25040C5F6020000681C
:104E800000F4E0200B900B980590C8B1FFE705985F
:104E9000B0F5803F18D0FFE70598B0F5003F26D069
:104EA000FFE70598B0F5403F34D0FFE70598B0F52F
:104EB000802F4AD0FFE70598B0F5A02F58D06AE0C0
:104EC00001F01AFD0E9069E044F20040C5F60200C0
:104ED00000680001002806D5FFE712A8FFF784F953
:104EE00013980E9002E000200E90FFE756E044F287
:104EF0000040C5F6020000688000002806D5FFE7E4
:104F00000FA8FFF7BDFA10980E9002E000200E9057
:104F1000FFE743E044F20040C5F6020000684007A6
:104F200000280ED5FFE744F20040C5F602000068F5
:104F3000C0F3C10149F20000C0F2D030C8400E9069
:104F400002E000200E90FFE728E044F20040C5F6A2
:104F500002000068C005002806D5FFE740F60010F3
:104F6000C0F23D000E9002E000200E90FFE715E039
:104F700044F20040C5F6020000688003002806D510
:104F8000FFE747F64000C0F27D100E9002E00020DF
:104F90000E90FFE702E000200E90FFE7D9E118989D
:104FA000199980F400200843002840F09180FFE721
:104FB00044F25840C5F60200006800F440300B90FF
:104FC0000B98049050B1FFE70498B0F5803F18D0DB
:104FD000FFE70498B0F5003F26D075E044F20040AA
:104FE000C5F6020000680001002806D5FFE712A8F8
:104FF000FFF7FAF812980E9002E000200E90FFE7FB
:1050000065E044F20040C5F6020000688000002818
:1050100006D5FFE70FA8FFF733FA11980E9002E0CC
:1050200000200E90FFE752E044F24C40C5F602002B
:10503000006800F040500C9044F20040C5F60200B9
:1050400000684007002811D5FFE70C9870B9FFE70A
:1050500044F20040C5F602000068C0F3C10149F205
:105060000000C0F2D030C8400E902CE044F2004066
:10507000C5F602000068C00500280BD5FFE70C98B4
:10508000B0F1805F06D1FFE740F60010C0F23D00AE
:105090000E9017E044F20040C5F60200006880035D
:1050A00000280BD5FFE70C98B0F1005F06D1FFE7B1
:1050B00047F64000C0F27D100E9002E000200E90F6
:1050C000FFE7FFE7FFE702E000200E90FFE73FE188
:1050D0001898199980F480300843D8BBFFE744F250
:1050E0004C40C5F60200006800F480300B900B982D
:1050F000039028B1FFE70398B0F5803F13D025E077
:1051000044F20040C5F6020000688001002806D580
:10511000FFE715A8FEF71CFF16980E9002E000208E
:105120000E90FFE715E044F20040C5F6020000686B
:105130000001002806D5FFE712A8FFF755F81498DC
:105140000E9002E000200E90FFE702E000200E909B
:10515000FFE7FCE01898199980F480400843002884
:1051600040F09580FFE744F25840C5F60200006821
:1051700000F0E0400B900B980290C8B1FFE7029856
:10518000B0F1805F18D0FFE70298B0F1005F26D041
:10519000FFE70298B0F1405F34D0FFE70298B0F12A
:1051A000804F4AD0FFE70298B0F1A04F58D06AE094
:1051B000FEF7BAFE0E9069E044F20040C5F6020028
:1051C00000680001002806D5FFE712A8FFF70CF8D9
:1051D00013980E9002E000200E90FFE756E044F294
:1051E0000040C5F6020000688000002806D5FFE7F1
:1051F0000FA8FFF745F910980E9002E000200E90DE
:10520000FFE743E044F20040C5F6020000684007B3
:1052100000280ED5FFE744F20040C5F60200006802
:10522000C0F3C10149F20000C0F2D030C8400E9076
:1052300002E000200E90FFE728E044F20040C5F6AF
:1052400002000068C005002806D5FFE740F6001000
:10525000C0F23D000E9002E000200E90FFE715E046
:1052600044F20040C5F6020000688003002806D51D
:10527000FFE747F64000C0F27D100E9002E00020EC
:105280000E90FFE702E000200E90FFE75EE0189826
:10529000199980F400400843002853D1FFE744F2F5
:1052A0005040C5F60200006800F040500B900B988B
:1052B000019050B1FFE70198B0F1805F18D0FFE78F
:1052C0000198B0F1005F26D038E044F20040C5F606
:1052D000020000688003002806D5FFE747F640007B
:1052E000C0F27D100E9002E000200E90FFE728E053
:1052F00044F20040C5F6020000688001002806D58F
:10530000FFE715A8FEF724FE16980E9002E0002095
:105310000E90FFE715E044F20040C5F60200006879
:105320000001002806D5FFE712A8FEF75DFF1398DD
:105330000E9002E000200E90FFE702E000200E90A9
:10534000FFE702E000200E90FFE7FFE7FFE7FFE73F
:10535000FFE7FFE7FFE7FFE7FFE7FFE70E981AB079
:1053600080BD00000000000080B59AB018900020B9
:105370008DF857008DF856001898C078000700285F
:1053800048D5FFE71898806E149078B1FFE714981D
:10539000B0F5801F13D0FFE71498B0F5001F16D0AA
:1053A000FFE71498B0F5401F19D019E044F22C41E2
:1053B000C5F60201086840F40030086014E018984F
:1053C0000830022104F040FE8DF857000CE01898D8
:1053D0002830022104F020FF8DF8570004E003E09C
:1053E00001208DF85700FFE79DF8570060B9FFE7EF
:1053F00044F25041C5F60201086820F44010189AA2
:10540000926E1043086004E09DF857008DF8560036
:10541000FFE7FFE718984078C007002840D0FFE773
:105420001898806D1390042820D81399DFE801F0B4
:10543000030C141C1D0044F22C41C5F6020108683F
:1054400040F40030086015E018980830002104F09E
:10545000FBFD8DF857000DE018982830002104F06E
:10546000DBFE8DF8570005E004E003E001208DF835
:105470005700FFE79DF8570060B9FFE744F250413D
:10548000C5F60201086820F00700189A926D1043D3
:10549000086004E09DF857008DF85600FFE7FFE72D
:1054A00018984078800700284BD5FFE71898C06D02
:1054B000129088B1FFE71298402816D0FFE71298A3
:1054C00080281AD0FFE71298C0281ED0FFE7129854
:1054D000B0F5807F1AD01AE044F22C41C5F60201E3
:1054E000086840F40030086015E018980830002182
:1054F00004F0AAFD8DF857000DE01898283000211F
:1055000004F08AFE8DF8570005E004E003E0012076
:105510008DF85700FFE79DF8570060B9FFE744F2A8
:105520005041C5F60201086820F4E070189AD26D67
:105530001043086004E09DF857008DF85600FFE71F
:10554000FFE7189840784007002850D5FFE71898E3
:10555000D0F8A8001190A0B1FFE71198B0F5001F96
:1055600018D0FFE71198B0F5800F1BD0FFE7119816
:10557000B0F5C00F1ED0FFE71198B0F5000F1AD09C
:105580001AE044F22C41C5F60201086840F40030EC
:10559000086015E018980830002104F055FD8DF8DA
:1055A00057000DE018982830002104F035FE8DF8E2
:1055B000570005E004E003E001208DF85700FFE705
:1055C0009DF8570068B9FFE744F25841C5F602015B
:1055D000086820F46000189AD2F8A82010430860E8
:1055E00004E09DF857008DF85600FFE7FFE7189894
:1055F00040780007002850D5FFE71898D0F8AC0095
:105600001090A0B1FFE71098B0F1807F18D0FFE7AD
:105610001098B0F1007F1BD0FFE71098B0F1407FE9
:105620001ED0FFE71098B0F1806F1AD01AE044F254
:105630002C41C5F60201086840F40030086015E00E
:1056400018980830002104F0FFFC8DF857000DE099
:1056500018982830002104F0DFFD8DF8570005E090
:1056600004E003E001208DF85700FFE79DF85700A4
:1056700068B9FFE744F25841C5F60201086820F016
:10568000E060189AD2F8AC201043086004E09DF85E
:1056900057008DF85600FFE7FFE71898C07880079D
:1056A00000283ED5FFE71898C06C0F90F0B1FFE7D7
:1056B0000F98102808D0FFE70F9820280DD0FFE79B
:1056C0000F98302811D012E044F22C41C5F60201A7
:1056D000086840F4003008600DE018980830022196
:1056E00004F0B2FC8DF8570005E004E003E001206F
:1056F0008DF85700FFE79DF8570060B9FFE744F2C7
:105700004C41C5F60201086820F03000189AD26CAE
:105710001043086004E09DF857008DF85600FFE73D
:10572000FFE718984078C00600284ED5FFE7189884
:10573000006E0E90A0B1FFE70E98B0F5805F18D014
:10574000FFE70E98B0F5005F1BD0FFE70E98B0F5AD
:10575000405F1ED0FFE70E98B0F5804F1AD01AE0D8
:1057600044F22C41C5F60201086840F4003008609C
:1057700015E018980830002104F066FC8DF85700F9
:105780000DE018982830002104F046FD8DF85700F0
:1057900005E004E003E001208DF85700FFE79DF8E5
:1057A000570060B9FFE744F25041C5F602010868AE
:1057B00020F4E040189A126E1043086004E09DF84F
:1057C00057008DF85600FFE7FFE7189840788006ED
:1057D00000284CD5FFE71898406E0D90C8B1FFE740
:1057E0000D98B0F5803F15D0FFE70D98B0F5003F5C
:1057F00018D0FFE70D98B0F5403F1BD0FFE70D989C
:10580000B0F5802F17D0FFE70D98B0F5A02F13D07B
:1058100013E016E018980830012104F015FC8DF80B
:1058200057000EE018982830012104F0F5FC8DF89F
:10583000570006E005E004E003E001208DF8570082
:10584000FFE79DF8570060B9FFE744F25041C5F605
:105850000201086820F4E020189A526E1043086094
:1058600004E09DF857008DF85600FFE7FFE7189811
:105870004078400600284ED5FFE71898D0F8B000D1
:105880000C90C8B1FFE70C98B0F1805F15D0FFE72E
:105890000C98B0F1005F18D0FFE70C98B0F1405FB2
:1058A0001BD0FFE70C98B0F1804F17D0FFE70C98A2
:1058B000B0F1A04F13D013E016E018980830012182
:1058C00004F0C2FB8DF857000EE018982830012133
:1058D00004F0A2FC8DF8570006E005E004E003E0C8
:1058E00001208DF85700FFE79DF8570068B9FFE7E2
:1058F00044F25841C5F60201086820F0E040189AC9
:10590000D2F8B0201043086004E09DF857008DF8ED
:105910005600FFE7FFE718984078000600283BD5BF
:10592000FFE71898006F0B90D8B1FFE70B98B0F124
:10593000805F05D0FFE70B98B0F1005F09D011E060
:1059400044F22C41C5F60201086840F400300860BA
:105950000CE018980830012104F076FB8DF8570010
:1059600004E003E001208DF85700FFE79DF85700A1
:1059700060B9FFE744F25041C5F60201086820F023
:105980004050189A126F1043086004E09DF85700C9
:105990008DF85600FFE7FFE71898C078C007002889
:1059A00037D0FFE71898806C0A90032817D80A9917
:1059B000DFE801F014020B1344F22C41C5F602019A
:1059C000086840F4003008600DE0189808300221A3
:1059D00004F03AFB8DF8570005E004E003E00120F5
:1059E0008DF85700FFE79DF8570060B9FFE744F2D4
:1059F0004C41C5F60201086820F00300189A926C29
:105A00001043086004E09DF857008DF85600FFE74A
:105A1000FFE7189880784006002840F1B480FFE73F
:105A200044F60001C5F60201086840F48070086081
:105A3000FEF7DAF81690FFE744F60000C5F602001C
:105A40000068C00500280CD4FFE7FEF7CDF81699D2
:105A5000401A652804D3FFE703208DF8570000E0C3
:105A6000EAE79DF85700002840F08780FFE744F2FE
:105A70007040C5F60200006800F440701899D1F833
:105A8000B41001F44071884213D0FFE744F2704132
:105A9000C5F60201086820F440701790086840F4C9
:105AA00080300860086820F480300860179808602B
:105AB000FFE71898D0F8B400B0F5807F1FD1FFE75A
:105AC000FEF792F81690FFE744F27040C5F6020028
:105AD000006800F002010020B0EB510F0ED1FFE78B
