:020000040800F2
:100000003008002465030008295D00081159000824
:10001000215D0008E9080008897000080000000060
:10002000000000000000000000000000196300084C
:10003000F108000800000000C1600008216300080A
:100040008303000883030008830300088303000878
:100050008303000883030008830300088303000868
:100060008303000883030008830300088303000858
:100070008303000883030008830300088303000848
:100080008303000883030008D908000883030008DD
:100090008303000883030008830300088303000828
:1000A00083030008F9640008830300088303000841
:1000B0008303000883030008830300088303000808
:1000C00083030008830300088303000883030008F8
:1000D00083030008830300088303000883030008E8
:1000E0008303000883030008000000008303000866
:1000F00083030008830300088303000883030008C8
:1001000083030008830300088303000883030008B7
:1001100083030008830300088303000883030008A7
:100120008303000883030008830300088303000897
:100130008303000883030008830300088303000887
:1001400000000000000000000000000000000000AF
:100150008303000883030008830300088303000867
:100160008303000883030008830300088303000857
:1001700083030008830300088303000800000000D5
:100180008303000883030008830300088303000837
:100190008303000883030008830300088303000827
:1001A0008303000883030008830300088303000817
:1001B0008303000883030008830300088303000807
:1001C00083030008830300088303000883030008F7
:1001D00083030008830300088303000883030008E7
:1001E00083030008830300088303000883030008D7
:1001F00083030008830300088303000883030008C7
:1002000083030008830300088303000883030008B6
:1002100083030008830300088303000883030008A6
:100220008303000883030008830300080000000024
:100230008303000883030008000000008303000814
:100240008303000883030008830300088303000876
:100250008303000883030008830300088303000866
:100260008303000883030008830300088303000856
:1002700083030008830300088303000800000000D4
:1002800083030008830300088303000800000000C4
:10029000000000008303000800F002F800F052F8AC
:1002A00014A696E8000CB244B344DA4501D100F03C
:1002B00049F8BAE80F000FA696E83000A5EB040550
:1002C00004EB0607AAEB0704A7F101074FEA15158F
:1002D0004FEA3414A4F10104AC4201D300F032F827
:1002E00013F0010F18BFFB1A43F0010300F001F8EF
:1002F000DBE71847787C0000987C0000103A24BFA8
:1003000078C878C1FAD8520724BF30C830C144BF7A
:1003100004680C6070470000704700000023002450
:1003200000250026103A28BF78C1FBD8520728BF05
:1003300030C148BF0B6070471FB507F0D2FD1FBD2D
:1003400010B510BD00F0E8F81146FFF7F5FF06F014
:10035000B3FE00F006F903B4FFF7F2FF03BC00F0B0
:1003600009F900000A4880470A4880470A480047C0
:10037000FEE7FEE7FEE7FEE7FEE7FEE7FEE7FEE755
:10038000FEE7FEE705480649064A074B70470000AE
:1003900009090008096400089902000830020024D5
:1003A00030080024300400243004002453EA020CF6
:1003B00000F069802DE9F04B4FF00006002B1FBFC5
:1003C000B3FA83F503FA05F424FA05F65E4012BF8A
:1003D0001643B2FA82F502FA05F4C5F120051EBFF4
:1003E00022FA05FC44EA0C04203556EA044C4FEA94
:1003F000144418BF641C4FF000084FF000099042ED
:1004000071EB030C39D3002919BFB1FA81F701FA56
:1004100007F6B0FA80F700FA07F6C7F120071EBF0B
:1004200020FA07FC46EA0C062037B6FBF4FCA7EBE3
:100430000507103F07F01F0BCBF120062CFA06F63C
:100440000CFA0BFB44BFB3460026202FA4BF5E4628
:100450004FF0000B5BEA060C08BF4FF0010B19EBE5
:100460000B0948EB0608ABFB027C06FB02CC0BFB3E
:1004700003CCC01B71EB0C01C1E70B4602464146A1
:100480004846BDE8F08B13B5084318BF4FF0FF3066
:100490000146AFF30080BDE81C4070474FF00002FA
:1004A00000B5134694469646203922BFA0E80C506A
:1004B000A0E80C50B1F12001BFF4F7AF090728BF45
:1004C000A0E80C5048BF0CC05DF804EB890028BFC1
:1004D00040F8042B08BF704748BF20F8022B11F0EA
:1004E000804F18BF00F8012B704770477047704766
:1004F00010B500F009F8006810BD10B5044600F012
:1005000003F8046010BD0000004870471800002484
:1005100000487047180000247546FFF7F9FFAE4603
:1005200005006946534620F00700854618B020B5FF
:10053000FFF728FFBDE820404FF000064FF000070E
:100540004FF000084FF0000BAC46ACE8C009ACE837
:10055000C009ACE8C009ACE8C00921F007018D462C
:10056000704710B50446AFF300802046BDE8104048
:10057000FFF7F1BE01491820ABBEFEE726000200DE
:100580007047000000000000B0B50446006842F269
:10059000001140F48070C4F20201884218D142F286
:1005A0000830C4F20200006810F4403F18D003F095
:1005B000DBFB61680546B1F5803F05D0B1F5403FF2
:1005C0002CD0B1F5003F2AD1080CB5FBF0F526E0A0
:1005D00046F20830C5F60200006810F4403FE6D14C
:1005E0004FF40020002102F033FB61680546A1F5BD
:1005F00080224FEAB2420A2A11D8DFE802F0070748
:100600000707070755535951570000BF6FF0010006
:1006100000EA5140B5FBF0F501E000BFAD0801F084
:10062000EBFF41F2030188420ED8206842F60151E7
:10063000C0F231118D4281682CBF41F4807121F4E8
:1006400080718160B0BD00BF4BF62140C0F2BE009A
:10065000854205D82068816821F440718160B0BD71
:1006600047F64100C0F27D10854207D8206801227C
:10067000816862F309218160B0BD00BF20684FF23C
:100680008101C0F2FA218D42816805D8022262F30D
:1006900009218160B0BD00BF41F440718160B0BDEF
:1006A000ED09BCE76D09BAE72D09B8E72D0AB6E7F1
:1006B000AD09B4E70000000070B504460068826828
:1006C000836802F0040203F00803D2186CD0C268F9
:1006D000920121D5627D012A1ED1227D012A1BD1E2
:1006E0000168490613D44DF60441C0F20C010439E7
:1006F00050D0026852065CBF02685FEA426206D4CC
:10070000026852065CBF02685FEA4262EFD5402190
:100710000160012106E000BF022903D10221082661
:1007200012E000BF826852070AD58268920707D498
:100730004FF6C0738268C7F6FF731A4010328260AA
:1007400001294FF0040610D0826812070AD582688A
:10075000920707D44FF6C0738268C7F6FF731A403A
:1007600020328260032908BF0C2601F04DFF21686A
:100770008968314218D0054603E000BF80683042E6
:1007800012D001F041FF401B06282068F6D3816893
:100790003142F3D0606D40F010006065A06D40F014
:1007A0000100A065012070BD002070BD00000000A8
:1007B000B0B5016804468A688868C0074FF0000039
:1007C00031D012F0020218BFB0BD886800F00D00F1
:1007D00001281FD14FF6C0728868C7F6FF7210401B
:1007E000023088600320086001F00EFF21688968EC
:1007F000C90701D10020B0BD054602E08068C007EE
:10080000F8D001F001FF401B03282068F6D381686F
:10081000C907F3D0606D40F010006065A06D40F036
:100820000100A0650120B0BDF0B581B004460068AC
:100830008168C9074AD14FF6C0778168C7F6FF774C
:1008400007F17F0211420BD0606D40F0100060652F
:10085000A06D40F00100A065012001B0F0BD00BF17
:100860008168394041F00101816001F0CDFE42F222
:10087000000246F20836C4F20202216802F58073D3
:1008800002F54275C5F60206994208BF2E4691420E
:1008900008BF2E4699420546306814D110F01F005B
:1008A00014D110E08868C00704D18868384040F04F
:1008B0000100886001F0A8FE401B2168032802D3D4
:1008C0000868C007C0D00868C007EBD0002001B09E
:1008D000F0BD00000000000040F2E800C2F200405D
:1008E00001F07ABA00000000FEE7000000000000FE
:1008F0007047000000000000EFF3108072B600BFE8
:10090000FEE700000000000044F60400C5F6020007
:10091000816841F0020181600168890409D401689D
:1009200089045CBF01685FEA814102D401688904DF
:10093000F2D5704700000000B0B52DED088BB0EE89
:10094000408A0C46054690ED01AA06F009FCB0EE7F
:10095000409AB0EE480A95ED00BA06F0A9FC20EEE8
:100960004B0AAAEE090A84ED000AB0EE480A06F026
:100970009FFCB0EE409AB0EE480A95ED00BA06F042
:10098000EFFB2BEE000AAAEE090A84ED010ABDEC8A
:10099000088BB0BD0000000090ED001AB0EE000A18
:1009A000B0EE413A90ED012A81ED001AA2EE003A34
:1009B0009FED030A83EE000A81ED010A704700BF34
:1009C000D7B3DD3F00000000B0B52DED088BB0EED1
:1009D000408A0D46044691ED01AA06F0C1FBB0EE37
:1009E000409AB0EE480A95ED00BA06F061FC20EEA0
:1009F0004B0AAAEE090A84ED000AB0EE480A06F096
:100A000057FCB0EE409AB0EE480A95ED00BA06F0F9
:100A1000A7FB2BEE000AAAEE090A84ED010ABDEC41
:100A2000088BB0BD000000002DE9F0472DED068BCE
:100A300030EE202A814600220260C9F80420884650
:100A400080EE023AC9F8082080EE824AB4EE412ACC
:100A500021EE033AF1EE10FA21EE042A33FE00AA49
:100A600032FE209A31EE4A0AB5EE001A30EE490AFB
:100A700020EE018A18EE100A07F0C2F91AEE102AC9
:100A800006460C46104607F0BBF99FED310B57ECBC
:100A9000105B2A463B4606F0C7FF3246234606F067
:100AA000BFFD06F08BFD824607F0AAF919EE102A69
:100AB00004460E46104607F0A3F92A463B4606F0C8
:100AC000B3FF2246334606F0ABFD06F077FDA8F1F2
:100AD0000101052938D803EE10AA00EE100AB0EE85
:100AE000481AB0EE432ADFE801F0030F2317091D6F
:100AF000B0EE431AB0EE482A1AE000BFB0EE401A3A
:100B0000B0EE482A04E000BFB0EE481AB0EE402A2A
:100B1000B0EE430A0CE000BFB0EE401AB0EE432A3C
:100B200004E000BFB0EE431AB0EE402AB0EE480A2F
:100B3000BCEEC11ABCEEC22A89ED001ABCEEC00A96
:100B400089ED012A89ED020ABDEC068BBDE8F0872C
:100B5000000000000000E03FF0B581B02DED048BF7
:100B600010EE100AB0EE608A07F04AF9064618EE59
:100B7000100A0F4607F044F99FED1D0B04460D4681
:100B800053EC102B3046394606F04EFF22462B46DA
:100B900007F048F806F012FD9FED170B09EE100A5A
:100BA000304653EC102B394606F03EFF22462B46CA
:100BB00007F038F806F002FD00EE100A0020B5EE4E
:100BC000408AF1EE10FAC8BF0120B5EE409AF1EE6E
:100BD00010FAC8BF0230B5EE400AF1EE10FAC8BFF5
:100BE0000430BDEC048B01B0F0BD00BF00BF00BFFE
:100BF000AA4C58E87AB6FB3FAA4C58E87AB6FBBF35
:100C00002DE9F0472DED068B824611EE900AB0EEED
:100C100041AAB0EE608AB0EE409A07F0F1F89FED7D
:100C2000460B53EC102B06F0FFFE04461AEE100A9A
:100C30000D4607F0E5F802460B462046294606F029
:100C400097FD804618EE100A894607F0D9F802464B
:100C50000B464046494606F0E7FE06F0AFFC0AEEBA
:100C6000100A19EE100A07F0CBF8B6EE000A064695
:100C70000C4628EE000A10EE102A104607F0C0F8C5
:100C80009FED2F0B07460D4653EC102B30462146A7
:100C900006F0CAFE3A462B4606F0C4FF42464B46D3
:100CA00006F0C2FE06F08AFC9FED270B08EE100A44
:100CB000304653EC102B214606F0B6FE3A462B4642
:100CC00006F0B0FF42464B4606F0AEFE06F076FC5C
:100CD00000EE100ABAF1030F9FED1D1AB1EE484A5B
:100CE0000AFE012A08FE011ABAF1010FB1EE403ADC
:100CF000B1EE4A5A04FE011A03FE022ABAF1050FA8
:100D00000AFE011A00FE022ABAF1040F05FE011ABA
:100D100004FE022ABAF1060F00FE010A08FE022AAA
:100D2000BAF1020F03FE000A45FE020ABDEC068B73
:100D3000BDE8F08700BF00BFAA4C58E87AB6FB3F79
:100D4000AA4C58E87AB6EB3FAA4C58E87AB6EBBF03
:100D5000000000000000000000688168826801F067
:100D6000040102F0080289180AD14FF6FF72C16827
:100D7000C7F6DF72114001F10041C16000207047E9
:100D800001207047000000007047000000000000D4
:100D90002DE9F04181B00022009290F85020012A04
:100DA00006D14FF0020E704601B0BDE8F08100BFE1
:100DB000C268002A4FF0010280F8502002D00E6A6B
:100DC000012E1BD14A68092A16D10A684FF47856B9
:100DD0008B6A06EA524223B103F07C03CE6A3343A6
:100DE0001A43036844F20005C0F21045DE6C2E4041
:100DF0001643DE64C26528E0036826E0056E1DB177
:100E0000C36D00220AE000BF8B6A721E23B103F09B
:100E10007C03CD6A2B431A4300233546D1E9006495
:100E200004F01F04C6F38466A64032436E1E42EAF5
:100E300003020368C0E9172607D144F20005DE6CFF
:100E4000C0F210452E403243DA649A684FF6FF7CB8
:100E50001207C0F20F0C25D40A68002A0FD492FAA8
:100E6000A2F612EA0C0FB6FA86F608BF960E06F046
:100E70001F02012606FA02F2DE693243DA61DA68FD
:100E800091F8256091F8265022F44012002E4FEA86
:100E9000455601D0324304E091F8245042EA05520D
:100EA0003243DA609A689E6802F0040206F008068F
:100EB000921915D18A6ABAB1CA6AAAB191F82520E5
:100EC000012A19D1426D4FF0010E42F02002426515
:100ED00091F83020012A1A6919D022F0020224E088
:100EE0004FF0000EE0E000BF91F82520012ADA68FB
:100EF00003D142F0007202E0DA6822F000724FF093
:100F0000000EDA6091F83020012A1A69E5D14FF617
:100F10001D64CFF60044D1E90D5622400224CFF6DD
:100F2000FF74324304EB054422431A6107260A6822
:100F30008D68C2F34064C2F3045203EB840496400C
:100F4000676905FA02F227EA06063243626141F256
:100F50000002C5F60042126802F07042B2F1805FF2
:100F600074D14A69DC680E2505EA5404A2400C6974
:100F7000042C40F080801A6E1F6E0A6812EA0C087A
:100F800092FAA2F6B6FA86F4C2F38465264608BF42
:100F90002E46C7F38467B7420FD11C6E02F0F842A9
:100FA00004F0004422441A660A6802EA0C08C2F3FC
:100FB000846592FAA2F4B4FA84F45E6E27465E6EFB
:100FC000B8F1000F08BF2F46C6F38466BE420FD1AA
:100FD0005C6E02F0F84204F0004422445A660A684B
:100FE00002EA0C08C2F3846592FAA2F4B4FA84F41B
:100FF0009E6E27469E6EB8F1000F08BF2F46C6F3BF
:101000008466BE420FD1DC6E02F0F84204F0004468
:101010002244DA660A6802EA0C08C2F3846592FA8E
:10102000A2F4B4FA84F4DE6EB8F1000FDE6E08BFED
:101030002C46C6F38465A54236D1DC6E02F0F84238
:1010400004F000442244DA662EE000BFDC684A69FE
:10105000DD68E4064FEA550406D404F00E04A2400D
:101060000C69042C87D006E004F00804A2400C6947
:10107000042C3FF480AF03F160050E6806F0F846DB
:1010800055F82470324307F000473A4345F82420CE
:101090000A690C7F012C55F8226026F0004608BF33
:1010A00006F1004645F822609A68D20740F0CB80EE
:1010B0000A680024C968D3F8C05002EA0C06C4F2DA
:1010C0005274B54301F018062CFA06F704F52D0604
:1010D0001740B14247EA0501C3F8C0105DD142F2A2
:1010E0000011C4F202018B4226D042F20001C4F288
:1010F00002018B423CD11F21C1F2F0418A4240F3F0
:10110000BF8040F2FF71C2F630618A4240F3A8808E
:1011100040F60001C2F630618A4200F0158141F2CA
:101120000001C3F260218A4200F004810021C4F270
:1011300021318A421DD013E11F21C1F2F0418A42C0
:1011400000F388800721C0F690418A4200F3A68010
:101150000221C0F230418A4200F09D800421C0F695
:1011600060018A4240F0FC804024C1F6201400E077
:10117000002494FAA4F143F6C137B1FA81F1C0F228
:101180000A073C424FF0010708BFA10E01F01F0102
:1011900007FA01F1DF693943D961B2F1FF3F52DC4F
:1011A00042F2001743F48071C4F2020742F20006D3
:1011B000B942C4F2020635D1B168D6F80871394394
:1011C000C9073AD146F2083406F58077C5F602041D
:1011D00006F542752146BB4208BF2946B34240F29C
:1011E000000708BF2946CCF684370D68BA4205F0DF
:1011F000E07608BF15F4000160D00021CCF25271F6
:101200008A4277D10021B1EB166F73D1A4F54271F8
:101210008B4218D1216821F0E071314341F0807197
:10122000216010E04FF6005146F20837CFF6FF710B
:10123000C5F602077958C907C4D0416D4FF0010EB9
:1012400041F020014165002180F85010704601B046
:10125000BDE8F08140F2FF71C2F630618A425DDC88
:101260002021C1F2F0418A4274D040F20041C2F61E
:1012700000218A4274D140F60004C2F6306478E757
:101280000721C0F690418A4208DC0221C0F23041B9
:101290008A427FF463AF01246BE700BF0821C0F6E8
:1012A00090418A424CD01021C1F2C0018A4257D1EC
:1012B00040F20014C2F280145BE700BFA4F5427153
:1012C0008B42C0D1216842F6635221F0E071C0F236
:1012D0003E52314341F40001216040F20801C2F264
:1012E000004109688909A1FB02129109022202EB5F
:1012F000410141E0A4F542718B42A4D10021CCF61A
:10130000B8718A4208BF15F480019CD1216821F090
:10131000E071314341F48001216094E740F600011F
:10132000C2F630618A420FD041F20001C3F260215F
:101330008A4215D142F20004C3F2906419E700BF5B
:101340008024C1F6505414E741F20004C3F2602433
:101350000FE700BF40F20024C2F2B05409E700BF1B
:1013600000210024C4F684318A4204BF0024C4F65C
:10137000B874FEE6009901390091009900293FF404
:1013800062AF009901390091009900293FF45BAFE9
:10139000009901390091009900291FBF0099013976
:1013A0000091009918BF00293FF44DAFE2E700001B
:1013B00040F2E801C2F20041884218BF7047B0B560
:1013C0002DED028B84B004F043FD40F2980040F212
:1013D000B404C2F20040C2F20044214690ED000A7B
:1013E00040F21000C2F20040FFF7A6FA94EC020AA5
:1013F000FFF7B2FB9FED198A40F2B005B3EE081A71
:10140000F0EE481AC2F2004594EC020A2870FFF789
:10141000F7FB40F2E000B0EE481AC2F20040297833
:1014200080ED000AC0ED010A01A8FFF7FDFA40F2C5
:10143000BC00039BC2F20040DDE901120160C0E97B
:1014400001233420C4F2010001604260836004B0D3
:10145000BDEC028BBDE8B040704700BF0080BB46CA
:101460002DE9F04F81B042F2000B0446C4F2020BAA
:1014700046F208330BF580790BF542702268C5F609
:1014800002034A454FF0200708BF03465A450D4660
:1014900008BF0346D4F81080B8F1080FD3F800A0B5
:1014A00008BF402701F0B0F821680A683A4231D1FC
:1014B0000646681C25D065B901F0A6F821680868C1
:1014C00038420FD008683842F6D023E00868384226
:1014D00020D101F099F8801B2168A842F6D908684C
:1014E0003842F3D1606D40F004006065002084F85C
:1014F0005000032001B0BDE8F08F00BF08683842FB
:1015000008D10868384205D10868384204BF086825
:101510003842F3D049450AF01E0018BF8B46062812
:10152000584608BF08465FEACA6208BF08468B45AE
:1015300008BF5846CB6CCA68C068676D13F4C07F9B
:1015400047F40053636507D0830116D412F4406258
:1015500008BF10F4005210D10A6852060DD510F4DD
:1015600000120AD1626D22F480526265626DD2056A
:1015700003D4626D42F001026265B8F1080F03D135
:10158000400403D4602000E020200860002001B067
:10159000BDE8F08F00000000704700000000000070
:1015A00070B542F2001446F20836C4F20204016833
:1015B00004F50273C5F60206A4F58072A14208BFC5
:1015C0001E46914208BF1E4635688A68120711D42C
:1015D000CA68C96C11F4C07F08D1002A06D4416DD5
:1015E00041F020014165012070BD00BF90F850100E
:1015F000012901D1022070BD012180F8501006465A
:10160000FFF712F920B1002186F8501070BD00BF1D
:10161000716D3046C90501D4002102E0816D21F0D1
:101620000801816543F20102416D914305F01F02FB
:1016300001F5805141650168A14200D11AB9436D9D
:1016400023F480134365A1424FF060030B604FF019
:10165000000380F850300BD1002A1CBF05F01E0299
:10166000062A05D0416D41F480114165002070BD0E
:10167000C868800107D44FF6C0728868C7F6FF7249
:10168000104008308860002070BD0000000000009D
:1016900070B542F2001446F20836C4F20204016842
:1016A00004F50273C5F60206A4F58072A14208BFD4
:1016B0001E46914208BF1E4635688A68120711D43B
:1016C000CA68C96C11F4C07F08D1002A06D4416DE4
:1016D00041F020014165012070BD00BF90F850101D
:1016E000012901D1022070BD012180F85010064669
:1016F000FFF79AF820B1002186F8501070BD00BFA6
:10170000716D3046C90501D4002102E0816D21F0E0
:101710000801816543F20102416D05F01F0C914300
:1017200001F5805141650168A14202D1BCF1000F71
:1017300003D1436D23F48013436560230B600023C2
:1017400080F85030CB689B0203D54B6843F480632C
:101750004B6003696FF04006082B4FF0200308BF71
:101760006FF020064A6808BF402332404A604A684A
:10177000A14242EA03024A600CD1BCF1000F1CBF37
:1017800005F01E02062A05D0416D41F48011416525
:10179000002070BDC868800107D44FF6C072886809
:1017A000C7F6FF72104008308860002070BD00004E
:1017B00010B5044690F85000012801D1022010BD58
:1017C000012084F8500002212046FEF775FF18B171
:1017D000002184F8501010BD2068806840070BD4A9
:1017E0002046FEF7E5FF0028F2D1606D41F20111BD
:1017F0008843013003E000BF606D20F480506065D5
:101800000020002184F8501010BD000000000000EE
:10181000704700000000000070470000000000005A
:1018200090F85020012A01D10220704710B582B0F3
:1018300042F2083400230193C4F202040093A4F599
:1018400042720368934227D14FF6006ECFF6FF7EB7
:1018500054F80E209B681A4352071DD4D1F800C0DB
:101860002268BCF1000F22F4404323D04A681A4397
:1018700022604FF60052CFF6FF72A25854F80E3095
:101880001A43D20726D1226840F61F739A4389680B
:10189000114341EA0C011CE0416D41F0200141651A
:1018A0000121002280F8502002B0BDE81040084617
:1018B000704700BF4FF600512360CFF6FF716158AB
:1018C00054F80E201143C90704D1216840F61F7255
:1018D000914321600021E4E7F0B581B0002200923D
:1018E00090F85020012A03D10221084601B0F0BD32
:1018F0000768012380F85030BB685B0700F19681D0
:101900000C684FF6FF7CB4F1FF3FC0F20F0C4FEABA
:1019100094630FDD94FAA4F214EA0C0FB2FA82F287
:1019200008BFA20E012402F01F0204FA02F2FC69B1
:101930002243FA614A681F2603F01F03C2F3012401
:1019400002F01F02964007EB840403FA02F2256BB3
:1019500025EA060632432263BA68BB6802F0040235
:1019600003F00803D21840F096800A6807258E68B5
:10197000C2F34063C2F3045207EB830395405C69F2
:1019800006FA02F224EA05052A435A6141F20002EE
:10199000C5F60042126802F07042B2F1805F33D1A6
:1019A0004A69FB680E2606EA530302FA03F30C6940
:1019B000042C39D007F160020E6806F0F84652F8A0
:1019C0002450334305F000452B4342F824300B6983
:1019D0004E7E52F82350012E25F0004508BF05F138
:1019E000004542F823500A7E0B693E69013A03F034
:1019F0001F03B2FA82F226F4F0465209D2029A404C
:101A000032433A6147E000BFFA684B69FE68D2068C
:101A10004FEA560402D404F00E0201E004F008027A
:101A200093400C69042CC5D13A6E0B6802F0F84261
:101A30009B069A4218D13A6E22F000423A667A6EBC
:101A400002F0F8429A4214D0BA6E02F0F8429A427A
:101A500018D1BA6E22F00042BA66FA6E02F0F8426D
:101A60009A4214D017E000BF7A6E02F0F8429A4210
:101A7000EAD17A6E22F000427A66BA6E02F0F8423B
:101A80009A42E6D0FA6E02F0F8429A4203D1FA6E18
:101A900022F00042FA66BA68D20779D1D1F800E0A4
:101AA0000023C968D7F8C0200EEA0C04C4F25273B0
:101AB000A24301F018042CFA04F603F52D0506EAFA
:101AC0000E06A94246EA0201C7F8C0105DD142F2F3
:101AD0000011C4F202018F4226D042F20001C4F28A
:101AE00002018F423CD11F21C1F2F0418E4540F3EB
:101AF000C38040F2FF71C2F630618E4540F3A98089
:101B000040F60001C2F630618E4500F0478141F297
:101B10000001C3F260218E4500F036810021C4F23D
:101B200021318E451DD045E11F21C1F2F0418E4586
:101B300000F388800721C0F690418E4500F3AA800B
:101B40000221C0F230418E4500F0A1800421C0F690
:101B500060018E4540F02E814023C1F6201300E045
:101B6000002393FAA3F143F6C132B1FA81F1C0F236
:101B70000A0213424FF0010208BF990E01F01F0143
:101B800002FA01F1FA691143F961BEF1FF3F01DD8B
:101B9000002150E042F2000146F2083CC4F202018A
:101BA000C5F6020C01F5807201F542739742624658
:101BB00008BF1A468F4242F2001408BF1A4647F483
:101BC0008073C4F20204A342136827D18A68D1F853
:101BD00008111143C90729D1002103F0E074CCF6A4
:101BE00084318E4508BF13F4000163D00021CCF28C
:101BF00052718E4540F0A0800021B1EB146F40F08F
:101C00009B80ACF542718F42C2D1DCF8001021F00C
:101C1000E071214341F08071A5E000BF4FF6005113
:101C2000CFF6FF715CF80110C907D5D0416D41F0C6
:101C3000200141650121002280F85020084601B0B2
:101C4000F0BD00BF40F2FF71C2F630618E4500F377
:101C50008F802021C1F2F0418E4500F0A58040F236
:101C60000041C2F600218E4540F0A48040F60003FA
:101C7000C2F6306375E700BF0721C0F690418E457C
:101C800008DC0221C0F230418E457FF45FAF0123B2
:101C900067E700BF0821C0F690418E457AD0102139
:101CA000C1F2C0018E4540F0858040F20013C2F2BF
:101CB000801356E7ACF542718F427FF469AFDCF8D0
:101CC000001042F6635221F0E071C0F23E5221430F
:101CD00041F40001CCF8001040F20801C2F20041CA
:101CE00009688909A1FB02129109022202EB410154
:101CF0000091009900293FF44BAF00990139009100
:101D0000009900293FF444AF0099013900910099EE
:101D100000293FF43DAF0099013900910099002955
:101D20003FF436AF009901390091009900294FF036
:101D30000001E2D17FE700BFACF542718F424FF066
:101D400000017FF478AF0022CCF6B872964508BF48
:101D500013F480027FF46FAFDCF8001021F0E07123
:101D6000214341F48001CCF80010002163E700BF5B
:101D700040F60001C2F630618E450FD041F20001FD
:101D8000C3F260218E4515D142F20003C3F2906385
:101D9000E7E600BF8023C1F65053E2E641F20003BC
:101DA000C3F26023DDE600BF40F20023C2F2B0536D
:101DB000D7E600BF00210023C4F684318E4504BF5E
:101DC0000023C4F6B873CCE67047000000000000A2
:101DD00070470000000000002DE9F04F81B004467C
:101DE00042F2000046F20831C4F20200C5F60201D8
:101DF000276800F5807A00F54279574508BF4946C3
:101E0000874208BF49463E687D68B207D1F8008026
:101E10000FD515F002010CD0606DC00603D4606DC3
:101E200040F4006060652046FEF7AEFF276802219F
:101E30003960710708F01F0B02D515F0040104D1B9
:101E4000310755D515F0080152D0214651F8542FCD
:101E5000D20603D40A6842F400720A60FA6812F4E7
:101E6000406F3FD1BBFA8BF2ABF10503B3FA83F3BA
:101E700052095B09384642EA030CABF10903B3FA95
:101E800083F342F20002C4F20202574508BF104633
:101E90005B0943EA0C02D207024618BF3A46B84231
:101EA00008BF0246D26892041CD43A68120719D5BA
:101EB000BA6852070CD47A6822F00C027A6008687B
:101EC00020F4807008600868C00407D50AE000BFED
:101ED000606D04F1580140F010006065086840F042
:101EE000010008602046FFF76FFF27680C2139606A
:101EF000B10602D515F0200104D171062CD515F0DC
:101F0000400129D0214651F8542FD20603D40A6843
:101F100042F400520A6042F200023846C4F2020261
:101F2000574508BF104608F01E030246062B08BF9F
:101F30003A46BBF1000F08BF3A46B84208BF024616
:101F4000F86C10F4C07FFB68D26879D02046FFF7A8
:101F50002FFA27686020386030060CD515F0800015
:101F600009D0606D40F480306065204600F0C8F90B
:101F7000276880203860F0050DD515F480700AD0F0
:101F8000606D40F4003060652046FFF741FC276833
:101F90004FF480703860B0050DD515F400700AD08C
:101FA000606D40F4802060652046FFF735FC2768AF
:101FB0004FF400703860F00627D515F0100024D0DB
:101FC000206BA0B1BBF1000F5CD046F2083042F2AA
:101FD0000001C5F60200574508BF4846C4F2020199
:101FE0008F4208BF4846006810F4404F0BD0606D28
:101FF00040F480606065A06D40F00200A06520465E
:10200000FFF7E6FE276810203860700514D515F438
:10201000806011D0606D40F480406065A06D40F03C
:102020000800A0654FF480603860204601B0BDE82C
:10203000F04FFFF7B1BA00BF01B0BDE8F08F00BFAD
:10204000900106D503F4406002F40053C0187FF4F9
:102050007DAF386840067FF579AF12F400107FF449
:1020600075AFB868000711D4786820F06000786018
:10207000086820F4805008600868C0053FF566AF26
:102080000AE000BFF8688007B1D1BCE7606D04F1D9
:10209000580140F010006065086840F001000860D9
:1020A00054E700000000000070B582B0044600282C
:1020B0004FF0000001902DD0606D30B9204600F047
:1020C00023F90020A06584F8500020688168890009
:1020D0004FF6C071C5F6FF7102D582680A40826072
:1020E0008268D20031D4826801F18051114042F6F9
:1020F000635241F08051816040F20801C0F23E52CB
:10210000C2F2004109688909A1FB0212012101EB19
:10211000921105E00126304602B070BD01990139E7
:102120000191019989B1019901390191019961B137
:10213000019901390191019900291FBF01990139C4
:102140000191019918BF0029E8D18168C90009D41B
:10215000616D012641F010016165A16D41F0010141
:10216000A16500E000268168626D02F0100201F0B6
:1021700004018918616D40F0918021F48171023170
:1021800061658168C90728D142F2001240F480716C
:10219000C4F20202914242F20001C4F2020140F094
:1021A000A5808A68D1F808311A43D20715D101F504
:1021B000807201F5427346F2080C9042C5F6020C9B
:1021C0001A4618BF0CF54072884208BF1A4660686C
:1021D000116821F47C110843106000F00DFA41F2FF
:1021E000030100228842A068A0F1100188BF0122EB
:1021F000B1FA81F1237F49091140226B617D1546B7
:1022000016BF4D034A031C20012B45EA034141EA56
:10221000020141EA000106D1206A0022CFF6FE72D7
:1022200002EB40400143606A20B100F47870A26A7A
:102230001043014320684CF20303CFF6F073C268E9
:102240001A401143C1608168826801F0040102F004
:102250000802891836D1217D44F20305E26AC36879
:1022600042EA813123EA05021143C16094F8381033
:10227000012901691AD14FF61E020125CFF600424D
:10228000CFF6FF751140D4E90F231943636C05EBBA
:1022900002421143A26C1943114309E041F01000BE
:1022A00001266065304602B070BD00BF21F001011B
:1022B00001610169626B21F07041114301612046A7
:1022C000FEF762F92068E1680129026B22F00F0134
:1022D00002D1A269013A114301630121606D61F3EA
:1022E00001006065304602B070BD00BF46F20802D2
:1022F000C5F602021268D2073FF459AF6DE700003D
:1023000070470000000000002DE9F041B8B004461D
:1023100002A82830982100253395CDE93655CDE91E
:102320003455FEF7BBF842F200012068C4F2020106
:10233000884203D038B0BDE8F08100BF4FF40020E0
:102340000290022004900C210395CDE90510CDE9FF
:102350000700C020099002A84FF02008CDE90A85A7
:1023600000F04EFE08B1FEF7C7FA44F2E040002448
:10237000C5F60200C5F6020433AD032750F8081C69
:10238000002641F0200140F8081C50F8081C01F01C
:10239000200101910199016841F00101016001688A
:1023A00001F0010101910199016841F0040101600E
:1023B000016801F0040101910199016841F02001D7
:1023C00001600068294600F02000019001988020FB
:1023D000339020463497359600F032F804F50060CB
:1023E0002946CDE93387359600F02AF84FF480501E
:1023F0002946CDE9330704F5A050359600F020F8C2
:1024000012200021002200F0E7F9122000F0D0F99C
:1024100038B0BDE8F0810000B0B5044600F0F4F833
:1024200040F200010546C2F20041621C097818BF63
:102430000C4400BF00F0E8F8401BA042FAD3B0BD46
:102440002DE9F04F83B00F68002F00F0C98000F134
:10245000264642F2004506F1FF76C5F602050A223D
:10246000A8424FEAB62540F2040C08BF092200F149
:1024700020030093092DC5F6000C38BF4FEAB622A1
:10248000002400264FF0000801920AE008F101083C
:102490000F6837FA08F206F1020604F1040400F0AE
:1024A0009F80012202FA08FE17EA0E09EED0D1F849
:1024B00004B003220BF00307B2407D1E6FEA020A4C
:1024C000012D11D88268CD6802EA0A02B5402A437C
:1024D0008260CBF30015426822EA0E0205FA08F585
:1024E0002A43426004E000BF032F01D103271FE00D
:1024F000C2688D6802EA0A02B540022F42EA05026C
:10250000C26015D16FF0030204F01C0502EA580BFB
:10251000009A0F2352F80BE0AB400F692EEA030339
:10252000AF403B4342F80B30D1F804B00BF0030747
:10253000026807FA06F302EA0A021BF4403F42EA85
:1025400003020260A2D044F2F44340F2084EC5F602
:102550000203C5F6000E0F251A6842F002021A6047
:102560001A6802F00202029228F00302029B04F0B1
:102570000C0352F80E709D40AF43019D05FA03F322
:102580003B4342F80E304FF0B04EDEF800204B686F
:1025900042EA0907DD0258BF22EA09079D02CEF888
:1025A0000070DCF8002042EA090758BF22EA090758
:1025B0009D03CCF80070DCF8802042EA090758BF80
:1025C00022EA0907DB03CCF88070DCF87C2042EAC1
:1025D000090758BF22EA0907CCF87C7056E700BF0C
:1025E00003B0BDE8F08F0000002A08BF0904816134
:1025F000704700000000000041F20000C5F60040F6
:102600000068000C7047000040F22C20C2F200402D
:10261000006870470000000040F2000040F22C21EA
:10262000C2F20040C2F2004100780A68104408601B
:10263000704700000000000080B5032000F0FCF8A7
:1026400001F01AFC44F2184147F63473C5F6020152
:10265000C0F600030A68C2F303229A5C096801F01D
:102660000F0102F01F02595CD04040F20C02C2F28E
:10267000004201F01F0120FA01F1116040F208014F
:10268000C2F2004108600F2000F00AF800281CBFC9
:10269000012080BD00F07CF8002080BD000000001B
:1026A000B0B540F20005C2F200452978F1B1044608
:1026B00040F20800C2F200404FF47A72B2FBF1F12E
:1026C0000068B0FBF1F001F01FFF0F2C01464FF046
:1026D00001000AD8002918BFB0BD4FF0FF3000221A
:1026E000214600F079F800206C60B0BD0120B0BD3B
:1026F00010B54EF6A05E4378CEF2000E90F800C002
:102700004EF8083CDEF8003023F00103CEF800302C
:1027100043684EF8043C037BC27A817A447B1206FC
:1027200042EA0372837B42EAC141C27B41EA8441AF
:10273000447A41EA4341007A41EA024141EA0421F4
:1027400041EA400040EA0C00CEF8000010BD000055
:102750004EF62450CEF20000BFF35F8F016821F4E3
:102760008031016000210167704700000000000017
:102770004EF6245140F00100CEF2000108670868CF
:1027800040F480300860BFF34F8FBFF36F8F704706
:1027900081B044F2F440C5F60200016841F0020144
:1027A0000160006800F002000090009801B07047DE
:1027B000002848BF704700F01F01012202FA01F112
:1027C0004EF20012C0F34A10CEF2000242F820107E
:1027D000704700000000000070B54EF60C5C4FF032
:1027E000FF36CEF2000C00F1604505F56445DCF8DB
:1027F0000030C3F3022E8EF00703042B28BF0423FE
:10280000BEF1030406FA03F321EA030100F00F030B
:1028100038BF0024043B0028634406FA04F048BF94
:1028200003F10C05A14022EA0000084300012870D2
:1028300070BD0000000000004EF60C514FF6FF0383
:10284000CEF200010A681A4060F30A2242F080606A
:1028500040F0FD7008607047B0B544F60C05C5F651
:10286000020529684907296806D401F00701081AFA
:1028700018BF0120B0BD00BF21F007010843286048
:10288000FFF7C2FE044600BF55F8080C800407D4C9
:10289000FFF7BAFE001BB0F57A7FF5D90120B0BD75
:1028A0000020B0BD0000000080B501F05DFA44F2E8
:1028B000204147F63472C5F60201C0F600020968ED
:1028C000C1F30211515C01F01F01C84080BD00003E
:1028D00080B544F23041C5F6020151F8083C51F888
:1028E000082C51F804CCC2F3051E4A68BEF1000F53
:1028F0001AD0C2F3CC0203F0030300EE102A9FEDBE
:102900003A1AB8EE400A20EE010A9FED381ADFE8C5
:1029100003F00323110700BF51F8302C92060DD4A9
:102920009FED331A18E000BF00218160C0E900115B
:1029300080BD00BF9FED2F1A0EE000BF51F8302C74
:1029400049F20003C0F2D033C2F3C10223FA02F20B
:1029500001EE102AB8EE411A0A689FED273A6FF38C
:102960005F2202EE102A5FEACC7203FE000A03EE39
:1029700010EA0A68B8EE422AC2F34622B8EE433A99
:10298000013230EE020AB7EE002A81EE031A30EE71
:10299000020A21EE000A01EE102AB8EE411A80EE7A
:1029A000011ABCEEC11A80ED001A0A68C2F3064291
:1029B000013201EE102AB8EE411A80EE011ABCEE87
:1029C000C11A80ED011A0968C1F30661013101EEF7
:1029D000101AB8EE411A80EE010ABCEEC00A10EEE1
:1029E000101A816080BD00BF000000390024744AC5
:1029F0000024744C20BCBE4B00000000000000000E
:102A000080B544F2384EC5F6020E5EF8103C5EF812
:102A1000101C5EF80C2CC1F3053CDEF80410BCF170
:102A2000000F19D0C9089FED3C1AD20601EAE271E5
:102A300003F003026FF35F3100EE101AB8EE400AA4
:102A4000DFE802F0022210225EF8381C89060DD45D
:102A50009FED331A18E000BF00218160C0E900112A
:102A600080BD00BF9FED2D1A0EE000BF5EF8381C40
:102A700049F20002C0F2D032C1F3C10122FA01F1E1
:102A800001EE101AB8EE411ADEF800109FED253A5B
:102A90006FF35F2102EE101ADEF80010C1F3462139
:102AA000B8EE422A013100EE032A00EE10CAB7EE5A
:102AB000003AB8EE400A81EE000A32EE031A20EE28
:102AC000010A01EE101AB8EE411A80EE011ABCEEAE
:102AD000C11A80ED001ADEF80010C1F30641013181
:102AE00001EE101AB8EE411A80EE011ABCEEC11ABE
:102AF00080ED011ADEF80010C1F30661013101EE2C
:102B0000101AB8EE411A80EE010ABCEEC00A10EEAF
:102B1000101A816080BD00BF0024744A20BCBE4BE7
:102B20000024744C0000003980B544F2404EC5F6D4
:102B3000020E5EF8183C5EF8181C5EF8142CC1F307
:102B4000055CDEF80410BCF1000F19D0C9089FED38
:102B50003C1AD20501EAE27103F003026FF35F3120
:102B600000EE101AB8EE400ADFE802F0022210224E
:102B70005EF8401C89060DD49FED331A18E000BFA3
:102B800000218160C0E9001180BD00BF9FED2D1ABA
:102B90000EE000BF5EF8401C49F20002C0F2D032E5
:102BA000C1F3C10122FA01F101EE101AB8EE411A87
:102BB000DEF800109FED253A6FF35F2102EE101A48
:102BC000DEF80010C1F34621B8EE422A013100EED2
:102BD000032A00EE10CAB7EE003AB8EE400A81EEC2
:102BE000000A32EE031A20EE010A01EE101AB8EEC6
:102BF000411A80EE011ABCEEC11A80ED001ADEF80F
:102C00000010C1F30641013101EE101AB8EE411A6D
:102C100080EE011ABCEEC11A80ED011ADEF8001038
:102C2000C1F30661013101EE101AB8EE411A80EECF
:102C3000010ABCEEC00A10EE101A816080BD00BF10
:102C40000024744A20BCBE4B0024744C00000039A0
:102C500010B584B0024641F6FF7300209B1A70EB5A
:102C6000010329DB40F2FF339B1A70EB010351DAB9
:102C700082F480630B4300F0E58082F400630B4331
:102C800000F00E8182F48052114340F0A98144F299
:102C90000041C5F60201086DC0F30232042A00F2B9
:102CA000988148F20000C0F2BB00DFE812F00D018D
:102CB0000F0127019901310147F6FF739B1A70EB51
:102CC000010353DA82F400430B4300F0DB8082F40B
:102CD00080330B4300F0048182F40022114340F062
:102CE0007F8144F20041C5F60201886DC0F30142C4
:102CF0000020DFE812F0EB0005000D01750100BFB8
:102D00000868800040F1658101A8FFF70DFF039876
:102D100004B010BD82F480730B4353D082F4007270
:102D2000114340F05D8144F20041C5F60201086D97
:102D3000C0F38212042A00F24C8148F20000C0F273
:102D4000BB00DFE812F0C100C300DB004D0105004D
:102D5000C86C0A68520700F04052086802D5002A81
:102D600000F0DE80C00500F1EF80F7E082F4005350
:102D70000B434FD082F48042114340F0318144F242
:102D80000044C5F60204A06DC0F30270052800F2ED
:102D90002081DFE810F00700190103010D01F700A1
:102DA000270100BF00F0E0FF216A47F63472C0F649
:102DB0000002C1F30211515C01F01F01C84004B0D0
:102DC00010BD00BF44F20041C5F60201086D00F0DD
:102DD0000702042A00F2FD8048F20000C0F2BB00A6
:102DE000DFE812F0720074008C00FE00060000BFE5
:102DF000C86C0A68520700F04052086802D5002AE1
:102E000000F08E80C00540F1A980B2F1805F00F033
:102E10009E80A3E044F20040C5F60200016DC1F3BC
:102E20000241052900F2D580DFE811F00600D0004C
:102E3000BA00C800AE00DE0004B0BDE8104000F0EB
:102E4000BBBF00BF44F20041C5F60201886DC0F36C
:102E50004252042A00F2BD8048F20000C0F2BB00DA
:102E6000DFE802F032344CBE040000BFC86C0A68D0
:102E7000520700F04052086840F16480002A4FD0A9
:102E800060E000BF44F20041C5F60201086DC0F3E6
:102E900001720020DFE802F0021874A40868A4E0C0
:102EA00044F20041C5F60201886DC0F30262042AB3
:102EB00000F28F8048F20000C0F2BB00DFE802F0B1
:102EC00004061E90280000BF086811E00868000191
:102ED00040F17F8001A8FFF793FD019804B010BD79
:102EE00044F20040C5F60200C16C0068C90321D459
:102EF00080016ED501A8FFF7EBFC70E00868800048
:102F000067D501A8FFF710FE019804B010BD00BFFF
:102F1000C86C0A68520700F04052086812D58AB996
:102F2000C0F3C10049F20001C0F2D03121FA00F033
:102F300004B010BD00014CD501A8FFF761FD039856
:102F400004B010BDC00509D5B2F1805F06D140F6CE
:102F50000010C0F23D0004B010BD00BF0868B2F11F
:102F6000005F00F400314FF0000004BF47F640005E
:102F7000C0F27D10002908BF084604B010BD00BF94
:102F8000086824E0206800E0006840F60011C005F1
:102F9000C0F23D0101EAE07004B010BD206800E01D
:102FA0000068800015D501A8FFF7BEFD17E000BF3F
:102FB000206840070DD52068B2E700BF01684907C7
:102FC00007D50068ACE700BF206800E0006800019A
:102FD00002D4002004B010BD01A8FFF711FD029833
:102FE00004B010BD206800E0006847F6400180038F
:102FF000C0F27D1101EAE07004B010BD00000000D5
:103000002DE9F0470446C07844F22C480007C5F685
:10301000020828D5A06E4FEA305103292AD8DFE8EC
:1030200001F0030B131B00BFD8F8001041F400316E
:10303000C8F8001010E000BF04F10800022103F0FE
:1030400043F8064680B906E004F12800022103F0A7
:10305000CFF8064640B9A06ED8F8241021F44011EC
:103060000843C8F8240000266078C00706D135461A
:103070002FE000BF01266078C007F8D0A06D0428BB
:1030800058D83546DFE800F004140E0B0B0000BFE3
:10309000D8F80000354640F40030C8F800002F464C
:1030A000C5B90DE004F12800002103F0A1F804E007
:1030B00004F10800002103F007F805462F464DB93A
:1030C000D8F82400A16D20F0070000250843C8F8B7
:1030D000240037466078800731D5E06D4FEAB010A4
:1030E00004285FD8DFE800F004140E0A0A0000BFCD
:1030F000D8F8000040F40030C8F800002E46FDB9B2
:103100000EE000BF04F12800002103F071F804E094
:1031100004F10800002102F0D7FF05462E467DB9D4
:10312000D8F82400E16D20F4E07000250843C8F8C9
:10313000240004E00125012760788007CDD43E46B5
:103140006078400733D5D4F8A8004FEA70500428BF
:1031500060D8DFE800F003130D090900D8F800007B
:1031600040F40030C8F80000A9460DBB0EE000BFD7
:1031700004F12800002103F03BF804E004F108000A
:10318000002102F0A1FF0546A9468DB9D8F82C0010
:10319000D4F8A81020F4600000250843C8F82C00DB
:1031A00005E000BF0125012660784007CBD4B14679
:1031B0006078000734D5D4F8AC004FEA30600428BA
:1031C0005ED8DFE800F003130D090900D8F800000D
:1031D00040F40030C8F800002F4615BB0EE000BFD9
:1031E00004F12800002103F003F804E004F10800D2
:1031F000002102F069FF05462F4695B9D8F82C004A
:10320000D4F8AC1020F0E06000250843C8F82C008A
:1032100006E000BF01254FF0010960780007CAD41D
:103220004F46E078800730D5E06C4FEA3010032835
:1032300020D8DFE800F00903150900BFD8F8000026
:1032400040F40030C8F800002E46ADB9D8F8200090
:10325000E16C20F0300000250843C8F8200014E09D
:1032600004F10800022102F02FFF05462E461DB989
:10327000ECE700BF012501266078C00609D434E0E0
:1032800001250127E0788007CED43E466078C0064D
:103290002BD5206E4FEA3030042839D8DFE800F013
:1032A00004140E0A0A0000BFD8F8000040F40030F1
:1032B000C8F800002F46CDB90EE000BF04F1280089
:1032C000002102F095FF04E004F10800002102F063
:1032D000FBFE05462F464DB9D8F82400216E20F498
:1032E000E04000250843C8F824003746607880068F
:1032F00035D5606E4FEA3040052815D8DFE800F07C
:10330000041A0E04040400BF2E46DDB91EE000BFFF
:103310000125012760788006EBD420E004F1280025
:10332000012102F065FF0AE00125012660784006D0
:1033300019D449E004F10800012102F0C5FE054658
:103340002E461DB1607840060DD43DE0D8F824002B
:10335000616E20F4E02000250843C8F824003E46B2
:103360006078400630D5D4F8B0004FEA30700528B8
:103370000ED8DFE800F00313070303032F46ADB9AF
:1033800018E000BF04F12800012102F031FF0AE03B
:1033900001250127607800061AD43CE004F10800FA
:1033A000012102F091FE05462F461DB1607800060E
:1033B0000ED430E0D8F82C00D4F8B01020F0E04063
:1033C00000250843C8F82C0037466078000622D54F
:1033D000206F58B1B0F1005F0CD0B0F1805F37D1F1
:1033E000D8F8000040F40030C8F800002E469DB91F
:1033F00008E000BF04F10800012102F065FE054667
:103400002E464DB9D8F82400216F20F040500025F9
:103410000843C8F824003E46E078C0071DD0A06CE1
:10342000032855D8DFE800F008024A08D8F8000061
:1034300040F40030C8F80000A9467DB9D8F8200053
:10344000A16C20F0030000250843C8F8200004E028
:1034500001250126E078C007E1D1B146A0784006F9
:1034600002D44F4618E000BFD8F8D40340F480706F
:10347000C8F8D403FFF7C8F8064600BFD8F8D4034D
:10348000C00507D4FFF7C0F8801B6428F6D90325D0
:10349000032701E02F46FDB12078C00700F06F80C0
:1034A000E06F4FEAF00005284ED8DFE800F0035344
:1034B00047030303002D2E4654D157E004F10800C2
:1034C000022102F001FE0546002DA946C6D1B5E74E
:1034D00001254FF00109C1E7D8F84410D4F8B40031
:1034E000414011F4407F11D0D8F84410D8F844205E
:1034F00042F48032C8F84420D8F8442021F44071C6
:1035000022F48032C8F84420C8F84410B0F5807F17
:1035100040F0E082FFF778F8064641F2883A03254A
:10352000032700BFD8F84400800700F1D182FFF7DD
:103530006BF8801B5045F5D9AEE700BF04F12800B9
:10354000012102F055FE0AE00125012620788007BE
:1035500019D446E004F10800012102F0B5FD05464A
:103560002E461DB1207880070DD43AE0D8F8280007
:10357000E16F20F0380000250843C8F828003E46D7
:10358000207880072DD5A06F05280FD8DFE800F040
:1035900004140804040400BF2F46ADB918E000BFAE
:1035A00004F12800012102F023FE0AE00125012791
:1035B0002078400719D447E004F10800012102F007
:1035C00083FD05462F461DB1207840070DD43BE012
:1035D000D8F82800A16F20F0070000250843C8F89C
:1035E00028003746207840072ED5D4F894000528C7
:1035F0000ED8DFE800F00313070303032E46ADB92E
:1036000018E000BF04F12800012102F0F1FD0AE0FA
:1036100001250126207880061AD44BE004F1080029
:10362000012102F051FD05462E461DB1207880068D
:103630000ED43FE0D8F82C00D4F8941020F0070006
:1036400000250843C8F82C003E462078800631D576
:10365000D4F890004FEA307005280FD8DFE800F06A
:1036600004140804040400BF2F46ADB918E000BFDD
:1036700004F12800022102F0BBFD0AE00125012728
:10368000207840061AD44BE004F10800002102F033
:103690001BFD05462F461DB1207840060ED43FE0A5
:1036A000D8F82800D4F8901020F0E0400025084316
:1036B000C8F8280037462078400631D5D4F89C0059
:1036C0004FEAB02005280FD8DFE800F00414080402
:1036D000040400BF2E46ADB918E000BF04F1280075
:1036E000022102F085FD0AE001250126207800066E
:1036F0001AD44EE004F10800002102F0E5FC054672
:103700002E461DB1207800060ED442E0D8F82C00D9
:10371000D4F89C1020F4E05000250843C8F82C0091
:103720003E462078000634D5D4F8A0004FEA703029
:10373000052815D8DFE800F0041A0E04040400BFC1
:103740002F46E5B12068010727D4C1063ED4000307
:1037500055D477E004F12800022102F049FD0AE087
:103760000125012720680107EFD516E004F10800C4
:10377000002102F0A9FC0546002D2F46E2D1D8F821
:103780002C00D4F8A01020F4604000250843C8F8AD
:103790002C00374620680107D7D5D4F88400B0F54F
:1037A000805F09D104F12800022102F021FD0028E8
:1037B00018BF0127D4F88400D8F8281021F440510C
:1037C0000843C8F828002068C106C0D5D4F898007E
:1037D000B0F5807F09D104F12800022102F008FD34
:1037E000002818BF0127D4F89800D8F82C1021F42D
:1037F00040710843C8F82C002068000322D5D4F893
:10380000A400B0F5003F11D0B0F5803F08D00028EB
:1038100044D104F10800002102F056FC05E000BF8D
:1038200004F12800022102F0E3FC05462E4655B9BA
:10383000D8F82C00D4F8A41020F440300025084318
:10384000C8F82C003E46A07840072CD5D4F8880054
:10385000B0F5401F0BD0B0F5001F0BD0B0F5801FA6
:103860002AD1D8F8000040F40030C8F800002F46F4
:10387000D5B907E004F12800012102F0B9FC0546A2
:103880002F468DB9D8F82800D4F8881020F44010BD
:1038900000250843C8F8280005E000BF01250126DF
:1038A000A0784007D2D43746A078C00709D13E4659
:1038B0002168880015D532E001250127A078C007CE
:1038C000F5D0206DB0F5803F10D018BBD8F80000BF
:1038D00040F40030C8F800002E4685B12168880009
:1038E0001DD460688A0326D469E000BF04F1080093
:1038F000022102F0E9FB0546002D2E46EED1D8F854
:103900002000216D20F4803000250843C8F82000F5
:10391000CDE700BF0125012621688800E1D504F12B
:103920002800022102F064FC002818BF0126D4E917
:1039300000108A0343D5D4F880206FF0010303EB15
:103940003223022B0BD34FEA322343B1012B40F039
:10395000B980D8F8003043F40033C8F800303DB3E4
:10396000CA022FD4CA0037D48A0240D44A0048D4AD
:10397000CA0F55D109025DD4C10766D181076FD442
:10398000410779D4010700F18380C10600F18C80E2
:10399000800607D504F12800022102F029FC002846
:1039A00018BF0125002D18BF01252846BDE8F08766
:1039B000D8F8283023F440731A43C8F82820354635
:1039C000CA02CFD5D8F82420636F22F000421A43F0
:1039D000C8F82420CA00C7D558F81C2CD4F8B83031
:1039E00022F480421A4348F81C2C8A02BED5D8F82B
:1039F0002420E36E22F080721A43C8F824204A0083
:103A0000B6D558F81C2C22F4004248F81C2CD4F8E7
:103A1000BC2058F81C3C1A4348F81C2CCA0FA9D0EB
:103A2000D8F82020636D22F040521A43C8F82020B5
:103A30000902A1D5D8F82810D4F88C2021F440012F
:103A40001143C8F82810C10798D004F108000021DC
:103A500002F03AFB002818BF0546606881078FD541
:103A600004F10800012102F02FFB002818BF0546D1
:103A7000606841077FF586AF04F10800022102F07B
:103A800023FB002818BF0546606801077FF57DAF5E
:103A900004F12800002102F0ABFB002818BF054606
:103AA0006068C1067FF574AF04F12800012102F0BF
:103AB0009FFB002818BF0546606880063FF56AAF87
:103AC00070E700BF0125CA027FF54CAF7AE700BF5F
:103AD000D4F8B4004FF6CF7358F81C2CC0F2FF0393
:103AE00000F4407122F47C5203EA10136FF31F308C
:103AF000B1F5407F08BF1A43002548F81C2CD8F8C0
:103B000044100843C8F84400FFF7ABBC00000000B5
:103B10002DE9F04381B0002800F0208142F2000935
:103B20000446C5F20029D9F8000000F00F008142D8
:103B30000DD9D9F8000020F00F000843C9F80000A3
:103B4000D9F8000000F00F00884240F0078120689B
:103B500044F218464207C5F602060AD522693368C0
:103B600003F070039A4204D9336823F070031A43B8
:103B7000326002070AD56269736803F070039A42E3
:103B800004D9736823F070031A437260C2060AD521
:103B9000A269736803F4E0639A4204D9736823F45A
:103BA000E0631A43726082060AD5E269B36803F0E3
:103BB00070039A4204D9B36823F070031A43B260C9
:103BC00010F002020AD0E368376807F00F07BB4223
:103BD00004D9376827F00F073B433360C3073FD052
:103BE000306820F47062D4E901031A43326001287E
:103BF00056F8182C0AD0032804D002280AD19203C0
:103C00000BD4ABE0920108D4A8E000BFD20504D4E5
:103C1000A4E000BF520740F1A180884656F8081C76
:103C200021F00701084346F8080CFEF7EDFC0546B5
:103C300041F2883756F8080C616800F03800B0EBA4
:103C4000C10F09D0FEF7E0FC401BB842F2D90320B7
:103C500001B0BDE8F08300BF2068414600F00202D9
:103C600052B1E268336803F00F039A4204D233681A
:103C700023F00F031A433260D9F8002002F00F023C
:103C800091420CD2D9F8002022F00F020A43C9F861
:103C90000020D9F8002002F00F028A425ED14107CD
:103CA0000AD52169326802F07002914204D232686A
:103CB00022F070021143316001070AD56169726810
:103CC00002F07002914204D2726822F07002114335
:103CD0007160C1060AD5A169726802F4E06291427E
:103CE00004D2726822F4E0621143716080060AD542
:103CF000E069B16801F07001884204D2B16821F036
:103D000070010843B06000F0B7F8316847F63472CC
:103D1000C0F60002C1F30321515C336803F00F03C6
:103D200001F01F01D25C20FA01F102F01F0040F205
:103D30000C02C2F2004221FA00F0106040F20400CE
:103D400040F20802C2F20040C2F200420068116074
:103D500001B0BDE8F043FEF7A3BC00BF012001B0F5
:103D6000BDE8F0830000000080B500F085F844F263
:103D7000184147F63473C5F60201C0F600030A681D
:103D8000C2F303229A5C096801F00F0102F01F02DE
:103D9000595C20FA02F201F01F0040F20C01C2F25D
:103DA000004122FA00F0086040F20801C2F200412E
:103DB0000A6080BD0000000080B500F05DF844F2AC
:103DC000184C47F63473C5F6020CC0F60003DCF855
:103DD0000020C2F303229A5CDCF8001001F00F010E
:103DE00002F01F02595CD04040F20C02C2F20042C5
:103DF00001F01F0120FA01F1116040F20802C2F245
:103E000000421060DCF80400C0F30210185C00F0FF
:103E10001F0021FA00F080BD80B500F02DF844F2BB
:103E2000184C47F63473C5F6020CC0F60003DCF8F4
:103E30000020C2F303229A5CDCF8001001F00F01AD
:103E400002F01F02595CD04040F20C02C2F2004264
:103E500001F01F0120FA01F1116040F20802C2F2E4
:103E600000421060DCF80400C0F30220185C00F08F
:103E70001F0021FA00F080BD44F20041C5F60201A6
:103E80000869C0F3C200032816D002280ED000280B
:103E900032D10868800649F20000C0F2D03058BF25
:103EA00070470968C1F3C101C840704747F6400038
:103EB000C0F27D10704700BF8B6A886AD1F82CC0B1
:103EC0004A6BC0F30510E8B1C2F3CC0203F0030360
:103ED00000EE102A9FED2A1AB8EE400A20EE010AE1
:103EE0009FED281ADFE803F0022110210A689206EC
:103EF0000ED49FED261A18E040F60010C0F23D00E7
:103F0000704700BF002070479FED1F1A0DE000BFF3
:103F10000A6849F20003C0F2D033C2F3C10223FAA7
:103F200002F201EE102AB8EE411A0A6B9FED183A20
:103F30006FF35F2202EE102A5FEACC7203FE000AE2
:103F400003EE100A086BB8EE422AC0F34620B8EE22
:103F5000433A013030EE020AB7EE002A81EE031A2E
:103F600030EE020A21EE000A01EE100AB8EE411A04
:103F700080EE010ABCEEC00A10EE100A704700BFC6
:103F8000000000390024744A20BCBE4B0024744C4D
:103F9000000000000000000070B3F0B581B00446DE
:103FA000007844F20046C007C5F6020626D1207804
:103FB000800740F1C280306910F03801B06A3FD00C
:103FC000182908BF5FEA80703AD0E068316800289D
:103FD00062D021F0190108433060FEF715FB054659
:103FE0003068400748D4FEF70FFB401B0228F7D982
:103FF000032001B0F0BD00BF01207047306900F020
:104000003801B06A102905D018290BD100F003003F
:10401000022807D130688003C9D560680028C6D15E
:104020003CE100BF6168306800294FD0B1F5A02F96
:1040300044D0B1F5803F5FD140F4803062E000BFF2
:1040400030684007E06802D5002800F02781316819
:1040500021F0190108433060FEF7D6FA054600BF8B
:104060003068400708D4FEF7CFFA401B02284FF013
:104070000300F5D901B0F0BDFEF7BEFA41F203012D
:1040800088424FD820697168402821F47C3151D191
:1040900041F4003050E000BF21F001003060FEF735
:1040A000B3FA05463068400747D5FEF7ADFA401B26
:1040B00002284FF00300F5D9DCE700BF40F4802070
:1040C0003060306840F480301CE000BF20F4803065
:1040D0003060306820F480203060FEF795FA0546A5
:1040E000306880037FF563AFFEF78EFA401B6428CB
:1040F0004FF00300F4D9BDE720F480303060306821
:1041000020F480203060FEF77FFA05463068800397
:104110003FF54DAFFEF778FA401B6428F6D903202F
:1041200001B0F0BD7068216920F0FE4040EA0160F6
:1041300002E000BF41EA003070602078C00654D52C
:10414000306900F03801B06A082905D0182919D162
:1041500000F00300012815D13068C00503D5E069DF
:10416000802840F09B80FEF747FA41F20301884225
:104170001ED8206A7168202821F0F84132D141F020
:10418000804031E0E0690028306819D040F08000BC
:104190003060FEF739FA05463068C005E3D4FEF713
:1041A00033FA401B02284FF00300F5D962E700BF45
:1041B000F068216A20F07C5040EA0160F06014E071
:1041C00020F080003060FEF71FFA05463068C00519
:1041D0000BD5FEF719FA401B02284FF00300F5D962
:1041E00048E700BF41EA80607060207800073FD454
:1041F0002078800656D42078400769D4656A9DB33C
:10420000306900F03800182840F0A880012DB16A0C
:10421000306B43D001F00302A36A9A423ED1C1F34E
:104220000511E26A914239D10146226B6FF35F2199
:10423000013A914232D1C0F34622616B01398A4280
:104240002CD1C0F30642A16B01398A4226D1C0F3BA
:104250000660E16B0139884220D1706BA16CC0F31C
:10426000CC00814240F03481002001B0F0BD00BF9D
:1042700060690028706F41D040F001007067FEF760
:10428000C3F90546706F8007B2D4FEF7BDF9401B35
:104290000228F7D9032001B0F0BD00BF012001B012
:1042A000F0BD00BFA0690028306845D040F48050C0
:1042B0003060FEF7A9F90546306880049BD4FEF70C
:1042C000A3F9401B0228F7D9032001B0F0BD00BFBD
:1042D000D6F8000440F48070C6F80004FEF794F9A4
:1042E000054600BFD6F80004C00519D4FEF78CF9C6
:1042F000401B6428F6D9032001B0F0BD20F0010076
:104300007067FEF781F90546706F80077FF570AF23
:10431000FEF77AF9401B02284FF00300F4D9A9E612
:10432000A168306F002943D0052939D0012957D120
:1043300040F001005AE000BF20F480503060FEF7EA
:1043400063F90546306880047FF555AFFEF75CF9E8
:10435000401B02284FF00300F4D98BE6306820F0B0
:1043600080703060FEF750F9022D05460CD100BF79
:10437000306880014CD5FEF747F9401B02284FF00A
:104380000300F5D976E600BF306880017FF56CAF99
:10439000FEF73AF9401B02284FF00300F4D969E612
:1043A00040F004003067306F40F001001EE000BFB5
:1043B00020F001003067306F20F004003067FEF716
:1043C00023F9054641F28837306F80077FF516AF35
:1043D000FEF71AF9401BB8424FF00300F4D949E642
:1043E00020F001003067306F20F004003067FEF7E6
:1043F0000BF9054641F28837306F80073FF5FEAE76
:10440000FEF702F9401BB8424FF00300F4D931E641
:1044100004F12807B06A40F2F33188438ECF084395
:10442000591E40EA02104FF47E426FF35F21B062E2
:1044300002EB47204FF4FE0280B2E36B0844A16B0D
:1044400002EB01414FF0FE4201F4FE0102EB036278
:10445000084402F0FE4108443063F06A4FF6F871F8
:1044600020F00100F062706BA26C884340EAC20049
:104470007063F06A216C20F00C000843F062F06A6F
:10448000616C20F002000843F062F06A40F4803072
:10449000F062F06A40F40030F062F06A40F480208C
:1044A000F062F06A40F00100F062306840F0807025
:1044B0003060FEF7A9F80446306880013FF5D4AEBD
:1044C000FEF7A2F8001B02284FF00300F4D9D1E553
:1044D000F06A20F00100F062FEF796F80546FEF75C
:1044E00093F8A842FBD0706B4FF6F871A26C88432A
:1044F00040EAC2007063F06A40F00100F062002000
:1045000001B0F0BD00000000411E0020B0EB116FB3
:1045100002D00120704700BF4EF21002F023CEF20D
:10452000000251604EF62351CEF200010B700721BC
:1045300090601160704700007047000000000000AC
:1045400070470000000000007047000000000000FD
:1045500090F83C20012A01D102207047B0B5CB6809
:1045600048F2FF7ED1E901C223F47C5322F4705259
:10457000CFF6F07E42EA03040CEA0E030A682343F6
:1045800022F477220C691A4324F47623D0F800C071
:104590001A434B691A438B6A22F4742E23F4702356
:1045A0008A6940F200454CF48064C4F2010543EA94
:1045B0000E03AC4243EA02430FD1002523F07C7284
:1045C0004B6ACFF6F045CC6905EA03531A4324F051
:1045D0000073096A1A4342EA0103CCF8443000210F
:1045E00080F83C100020B0BD90F83C20012A4FF02C
:1045F00002025ED0B0B580F83D2040F2004C026867
:10460000C4F2010C42F4806363455368D2F808E0B9
:1046100002BF23F470034C68234341F2FF740D681A
:10462000C4F2000423F07003A24243EA050353607E
:104630000CDC40F2FF73C4F200039A4216DCB2F1C4
:10464000804F29D040F2004318E000BF40F2FF3312
:10465000C4F201039A4217DC41F60003C4F20003DE
:104660009A4219D00023C4F2010309E040F6000386
:10467000C4F200039A420FD040F60043C4F2000394
:104680009A4209D00DE000BF44F20003C4F20103D6
:104690009A4201D0624504D12EF080038968194303
:1046A00091600022012180F83D1080F83C20BDE897
:1046B000B04010467047000071B1042906D00829A7
:1046C00012D14622825C012A12D019E04522825C76
:1046D000012A0DD014E000BF90F84420012A0FD128
:1046E000022280F8442013E04722825C012A07D18D
:1046F0000222082906D0042908D180F8452007E0C5
:104700000120704780F8462002E000BF80F8472073
:10471000026801F00F00042101FA00F0116A8143E0
:104720001162116A0843106241F2FF70516CC4F2C9
:104730000000824241F4004050640DDC40F2FF7002
:10474000C4F20000824215DCB2F1804F2AD040F260
:104750000040C4F2000023E040F2FF30C4F2010048
:10476000824213DC41F60000C4F20000824219D0FC
:10477000002013E040F60000C4F20000824211D095
:1047800040F60040C4F200000AE000BF44F200001E
:10479000C4F20100824205D040F20040C4F20100A0
:1047A00082420BD107219068C0F201010140002034
:1047B000062918BFB1F5803F00D17047106840F05E
:1047C000010010600020704760B310B5044690F8F7
:1047D0003D0028B9002084F83C00204600F024F871
:1047E000022084F83D002068211D01F08DFE01208B
:1047F00084F8480084F83E0084F83F0084F84000C4
:1048000084F8410084F8420084F8430084F84400AE
:1048100084F8450084F8460084F8470084F83D0099
:10482000002010BD0120704700210068C4F2010182
:10483000884218BF704780B582B044F2F040002231
:10484000C5F60200016841F0010101600068002125
:1048500000F00100019001981920FDF7BDFF19201B
:1048600002B0BDE88040FDF7A3BF000000000000DB
:1048700090F83D10012917D1022180F83D10016800
:1048800041F2FF70C4F2000081420FDC40F2FF7081
:10489000C4F20000814217DCB1F1804F2CD040F20D
:1048A0000040C4F2000025E00120704740F2FF30D4
:1048B000C4F20100814213DC41F60000C4F20000A2
:1048C000814219D0002013E040F60000C4F200003D
:1048D000814211D040F60040C4F200000AE000BF5F
:1048E00044F20000C4F20100814205D040F20040D1
:1048F000C4F2010081420BD107228868C0F2010294
:1049000002400020062A18BFB2F5803F00D1704750
:10491000086840F0010008600020704700000000B7
:1049200090F83D1001291BD1022180F83D1001684B
:1049300041F2FF70C4F200008142C86840F00100FB
:10494000C8600FDC40F2FF70C4F20000814217DC47
:10495000B1F1804F2CD040F20040C4F2000025E0BD
:104960000120704740F2FF30C4F20100814213DCA5
:1049700041F60000C4F20000814219D0002013E08B
:1049800040F60000C4F20000814211D040F6004021
:10499000C4F200000AE000BF44F20000C4F20100CB
:1049A000814205D040F20040C4F2010081420BD1A7
:1049B00007228868C0F2010202400020062A18BFC0
:1049C000B2F5803F00D17047086840F001000860F0
:1049D000002070470000000090F83C20012A4FF0B2
:1049E000020200F0AA8080B580F83D208822D0F82D
:1049F00000C0CFF6CE72DCF808301A40CCF80820A0
:104A00000B686F2B0EDDB3F1101F37DAB3F5005FC3
:104A10006EDA702B00F0B680B3F5805F00F0848012
:104A2000D8E000BF2F2B33DD4F2B39DC302B6FD07C
:104A3000402B40F0CF80D1F804E0C968DCF820308A
:104A4000DCF8202022F00102CCF82020DCF818202D
:104A500022F0F00242EA011123F00A02CCF8181009
:104A600042EA0E01CCF820104FF68872DCF80810EC
:104A7000CFF6CF721140473154E000BF2F21C0F272
:104A800010018B423ADCB3F1101F41D020213BE0F2
:104A9000002B18BF102B3BD0202B39D09AE000BF41
:104AA000502B4DD0602B40F09580D1F804E0C968C0
:104AB000DCF82030DCF8202022F01002CCF8202096
:104AC000DCF8182022F4704242EA013123F0A002FF
:104AD000CCF8181042EA0E11CCF820104FF688726C
:104AE000DCF80810CFF6CF72114067311AE000BF32
:104AF0005CD0B3F5801F0BD06CE000BF3021C0F25A
:104B000010018B4204D04021C0F210018B4261D1D0
:104B10004FF68872DCF80810CFF6CF7211401943B7
:104B200041F00701CCF808100022012180F83D1067
:104B3000002180F83C10BDE880401046704700BF5F
:104B4000D1F804E0C968DCF82030DCF8202022F03D
:104B50000102CCF82020DCF8182022F0F00242EA12
:104B6000011123F00A02CCF8181042EA0E01CCF829
:104B700020104FF68872DCF80810CFF6CF72114083
:104B80005731CFE701F1040E9EE80C40DCF8081025
:104B90001A4321F47F4142EA0E221143CCF8081057
:104BA000DCF8081041F07701BCE700BF01F1040E0A
:104BB0009EE80C40DCF808101A4321F47F4142EAD9
:104BC0000E221143CCF80810DCF8081041F48041A3
:104BD000A8E700BF0122A8E770470000000000001E
:104BE000F0B581B004460068C5680669B10717D5FD
:104BF00015F0020114D06FF002010161012121774B
:104C00008069800704D02046FFF7E6FF06E000BF7A
:104C1000204600F09DF8204600F02EFB0020207773
:104C2000700719D515F0040016D020686FF0040144
:104C3000016102212177806910F4407F04D0204671
:104C4000FFF7CAFF06E000BF204600F081F82046CB
:104C500000F012FB00202077300717D515F0080070
:104C600014D020686FF00801016104212177C06928
:104C7000800703D02046FFF7AFFF05E0204600F095
:104C800067F8204600F0F8FA00202077F00619D5E2
:104C900015F0100016D020686FF010010161082196
:104CA0002177C06910F4407F04D02046FFF794FFBD
:104CB00006E000BF204600F04BF8204600F0DCFA8A
:104CC00000202077F00718BF15F0010006D02068FB
:104CD0006FF001010161204600F00EFC05F0800735
:104CE00016F4025F18BF002F02D1F00509D410E0BE
:104CF00020686FF4025101612046FFF721FCF005A6
:104D000007D537B120686FF4807101612046FFF745
:104D100013FC700609D515F0400006D020686FF02E
:104D200040010161204600F0EBFBB0060CD515F008
:104D3000200009D020686FF020010161204601B0F9
:104D4000BDE8F040FFF700BC01B0F0BD000000007E
:104D5000704700000000000090F83C30012B01D1AA
:104D6000022070474FEAB202052A00F223812DE9A2
:104D7000F041DFE812F00700BB005700950031005A
:104D8000F90000BF036843F6FF76C4F201061C6A0F
:104D9000B3421A6A24F0020422F001021A621A468F
:104DA000D3F804C052F818EF8D6844EA0504D1F82E
:104DB000008040F3818144F20007C4F20107BB4246
:104DC00000F0858144F60007C4F20107BB4200F001
:104DD0007E8144F2004776E1036843F6FF77C4F230
:104DE0000107D3F820C0BB421A6A22F480321A624B
:104DF0001A465C6852F8546F0D68D1F808E040F329
:104E0000DF8044F20007C4F20107BB4200F0E380F8
:104E100044F60007C4F20107BB4200F0DC8044F214
:104E20000047D4E0036840F2004E43F48067C4F2C8
:104E3000010E1C6A77451A6A24F4007422F4807209
:104E40001A621A465D6852F81CCF8E6844EA06243E
:104E500007D1CE6840F2FF47360224F44064BE43D7
:104E6000344343F6FF76D1F80080C4F20106B34222
:104E700040F3D28044F20007C4F20107BB4200F0C5
:104E8000D28044F60007C4F20107BB4200F0CB8099
:104E900044F20047C4F20107BB4200F0C480C9E0FD
:104EA000036843F6FF77C4F20107D3F820C0BB4282
:104EB0001A6A22F480521A621A465C6852F81C6F11
:104EC0000D68D1F808E040F3CD8044F20007C4F249
:104ED0000107BB4200F0D18044F60007C4F201078D
:104EE000BB4200F0CA8044F20047C2E0036840F2CF
:104EF000004E43F48067C4F2010E1C6A77451A6ABB
:104F000024F0200422F010021A621A465D6852F85A
:104F100018CF8E6844EA061407D1CE686FF04007B8
:104F200024F0C00407EA0616344343F6FF76D1F8AE
:104F30000080C4F20106B34240F3E08044F200076F
:104F4000C4F20107BB4200F0E08044F60007C4F25F
:104F50000107BB4200F0D98044F20047C4F20107C8
:104F6000BB4200F0D280D7E0036843F6FF77C4F27B
:104F70000107D3F820C0BB421A6A22F480121A62D9
:104F80001A465C6852F8546F0D68D1F808E040F397
:104F9000058144F20007C4F20107BB4200F0098119
:104FA00044F60007C4F20107BB4200F0028144F25C
:104FB0000047FAE00121002280F83C2008467047B3
:104FC0000027C4F20107BB4205D040F20047C4F2FB
:104FD0000107BB4204D14F6924F4803444EA07241A
:104FE0004FF68C775C60CFF6FE7703373E402CF4AB
:104FF000003746EA05045C654E6809699E6547EA24
:105000000E471F625F6D47F008075F655F6D27F011
:1050100004075F65EEE000BF0027C4F20107BB4252
:1050200001D0734506D1D1E90576374325F44056C2
:1050300046EA07154FF68C775D60CFF6FE7707EAF4
:105040000C0747EA0807DF614F680969DF631C62E4
:10505000DF6947F00807DF61DF6927F00407DF61D8
:10506000C8E000BF0027C4F20107BB4205D040F2F0
:105070000047C4F20107BB4204D14F6924F48044C5
:1050800044EA871448F6FF475C60CFF6FF673E406E
:105090002CF4005746EA0524DC614E6809691E6459
:1050A00047EA0E371F62DF6947F40067DF61DF6997
:1050B00027F48067DF619CE00027C4F20107BB4250
:1050C00005D040F20047C4F20107BB4205D1CF68CA
:1050D00024F00C0427F004073C43B34234DD44F2CF
:1050E0000006C4F20106B34239D044F60006C4F209
:1050F0000106B34233D044F200462CE00027C4F24C
:105100000107BB4201D0734506D1D1E9057637438B
:1051100025F4406646EA870548F6FF475D60CFF60E
:10512000FF6707EA0C0747EA08279F614F6809698C
:105130009F631C629F6947F400679F619F6927F422
:1051400080679F6155E000BF0026C4F20106B342AC
:1051500005D040F20046C4F20106B34206D12CF459
:105160004077D1E90565374347EA050C4FF68C7562
:10517000C3F804C0CFF6FE750EEA050747EA080734
:105180009F614F6809695F631C629F6947F0080768
:105190009F619F6927F004079F612BE00027C4F2FD
:1051A0000107BB4205D040F20047C4F20107BB42F1
:1051B00004D14F6924F4802444EA872448F6FF4749
:1051C0005C60CFF6FF6707F540773E402CF4001790
:1051D00046EA05245C654E680969DE6547EA0E57B4
:1051E0001F625F6D47F400675F655F6D27F480673E
:1051F0005F6509021368194311600021BDE8F041A1
:10520000002280F83C2008467047000000000000A3
:1052100060B310B5044690F83D0028B9002084F82A
:105220003C00204600F024F8022084F83D0020686D
:10523000211D01F069F9012084F8480084F83E003E
:1052400084F83F0084F8400084F8410084F842006C
:1052500084F8430084F8440084F8450084F846004C
:1052600084F8470084F83D00002010BD01207047FD
:1052700070470000000000007047000000000000C0
:1052800080B5C9B10B1F4FF03F0C4FEAB30E43225C
:10529000BEF1040F38BF0CEBB302825C012A13D1BC
:1052A000BEF1030F1ED8DFE80EF00319111500BF81
:1052B000022280F83F2018E090F83E20012A03D116
:1052C000022280F83E2010E0012080BD022280F8FA
:1052D00041200AE0022280F8422006E0022280F803
:1052E000402002E0022280F84320026801F01F0003
:1052F000012101FA00F0116A814311624FF6FF713A
:10530000C4F200018A42116A40EA0100106219DC0D
:1053100040F2FF70C4F2000082422FDD40F6000030
:10532000C4F20000824243D040F60040C4F20000C4
:1053300082423DD041F60000C4F20000824237D0E4
:1053400048E000BF43F6FF700021C4F20100C4F240
:105350000101824244F20000C4F2010018DD8242E1
:105360001ED044F60003C4F201039A4218D044F25E
:105370000043C4F201039A4212D02BE0B2F1804FF5
:1053800016D040F20040C4F20000824210D021E06A
:105390008A4205D040F20043C4F201039A4219D177
:1053A000536C8A4243F40041516418BF82420BD1CE
:1053B00007219068C0F2010101400020062918BFB2
:1053C000B1F5803F06D180BD40F20040C4F201003B
:1053D0008242EDD0106840F001001060002080BDD6
:1053E000026801F01F0C012303FA0CFC136A23EA84
:1053F0000C0343F6FF7CC4F2010C13626245136A8E
:10540000136213DD44F20003C4F201039A4218D080
:1054100044F60003C4F201039A4212D044F200435E
:10542000C4F201039A420CD019E000BF0023C4F279
:1054300001039A4205D040F20043C4F201039A42AC
:105440000DD1D2F820C041F211131CEA030F06D18E
:10545000D2F820C040F244431CEA030F12D0D2F825
:1054600020C041F211131CEA030F16D1D2F820C05C
:1054700040F244431CEA030F0FD1136823F00103E9
:1054800013600AE0536C23F400435364D2F820C045
:1054900041F211131CEA030FE8D04FEAB1010429CD
:1054A00022D8DFE801F0031B0F150900012180F865
:1054B0003E100020704700BF012180F842100020FC
:1054C000704700BF012180F840100020704700BFE6
:1054D000012180F841100020704700BF012180F8B1
:1054E0003F100020704700BF012180F843100020CA
:1054F000704700000000000070470000000000003E
:10550000704700000000000090F88410012901D1CC
:10551000022070472421C0F8881001680A680B68CF
:1055200022F0005223F001030B60002343660A605F
:105530002021C0F8881080F88430002070470000D7
:1055400090F88420012A01D10220704770B52422EE
:10555000C0F888200268D0F864E0BEF1000FD2F8ED
:1055600000C0136823F001031360936823F06063A5
:1055700041EA0301916019D0916847F65C7E936817
:10558000C0F6000E5B0F47F66475C1F34266C0F6C5
:1055900000051EF80340E95C2301B3FBF1F11EF89E
:1055A0000630AE5D1B01B3FBF6F301E001210123E0
:1055B000A0F86A102021A0F86830C2F800C0C0F836
:1055C0008810002180F88410002070BD00000000C9
:1055D00090F88420012A01D10220704770B524225E
:1055E000C0F888200268D0F864E0BEF1000FD2F85D
:1055F00000C0136823F001031360936823F0604335
:1056000041EA0301916019D0916847F65C7E936886
:10561000C0F6000E5B0F47F66475C1F34266C0F634
:1056200000051EF80340E95C2301B3FBF1F11EF80D
:105630000630AE5D1B01B3FBF6F301E0012101234F
:10564000A0F86A102021A0F86830C2F800C0C0F8A5
:105650008810002180F88410002070BD0000000038
:1056600010B5D8B10446D0F8880028B9002084F8D5
:105670008400204600F028F82420C4F88800206820
:10568000A16A0268002922F00101016002D02046CF
:1056900000F0E2FF204601F007F908B1012010BD3B
:1056A0002068416821F490414160816821F02A011D
:1056B0008160016841F0010101602046BDE81040B1
:1056C00001F03AB800000000B0B5B8B0044602A836
:1056D0000830B82100253395CDE93655CDE934554C
:1056E000FAF7DCFE41F200012068C4F201018842B1
:1056F00002D038B0B0BD00BF0120029002A80395CF
:10570000FDF77EFC08B1FBF7F7F844F2E040C5F680
:105710000200016941F010010161016901F010010D
:1057200001910199016841F002010160006833A90B
:1057300000F00200019001984FF4404033900220A5
:1057400034900020CDE935000420379040F200402D
:10575000C5F60200FCF774FE38B0B0BD00000000D2
:105760002DE9F04381B00446D0F88800202807D105
:105770000120002918BF002A06D101B0BDE8F0833E
:10578000022001B0BDE8F0831D460E460020C4F89B
:1057900090002120C4F888001746FCF735FFA4F8D4
:1057A00054708146A4F85670A168B1F5805F02D1AB
:1057B0002069002866D037460020B4F8561000292A
:1057C000216867D06A1C28D0002D53D0804600BFC6
:1057D000C86900060AD4FCF717FFA0EB0900A8422D
:1057E00000F2848021680868F2E700BF17B117F85B
:1057F000010B04E038F8020B00276FF35F2088628A
:10580000B4F856000138A4F85600B4F85600002841
:10581000DED13FE0CA69120609D4CA69120606D46D
:10582000CA6912065CBFCA695FEA0262F2D51FB19B
:1058300017F8012B05E000BF30F8022B00276FF3AB
:105840005F228A62B4F85620013AA4F85620B4F8D0
:105850005620002AE1D11DE030F8022B00276FF31B
:105860005F228A62B4F85620013AA4F85620B4F8B0
:1058700056207AB1CA69120636D5002FECD017F837
:10588000012BEEE700273046B4F8561000292168B6
:105890007FF498AFC86940061ED42DB3681C14D19C
:1058A000C86940062AD4C869400627D4C86940069A
:1058B00024D4C86940064FF00000F1D50DE000BFC8
:1058C00020680168C069400618D4FCF79DFEA0EB73
:1058D0000900A842F4D909E000202021C4F888106A
:1058E00001B0BDE8F08300BFFCF78EFE032020214D
:1058F000C4F8881001B0BDE8F08300BF002020216B
:10590000C4F8881001B0BDE8F0830000000000007A
:10591000FEE70000000000002DE9F0419AB001A868
:105920003C210024CDE91844CDE91644CDE91444C6
:10593000CDE91244CDE91044FAF7B0FD40F2E80099
:1059400042F20001C2F20040C4F2020108220160EA
:105950004FF48021C0E901140121C16002614FF4BC
:105960008052848281610477C0E90944C462C0E93D
:105970000C2480F83840C163FCF796FB08B1FAF7B5
:10598000BBFF40F2E80017A9C2F200401794FBF7F2
:1059900047FF08B1FAF7B0FF40F2E80440F24008D0
:1059A000C2F20044C1F620182046FBF7D5F90620C4
:1059B000119010A92046CDF840800025129540F2A4
:1059C000FF7713970426CDE914658DF85950FBF73E
:1059D00083FF08B1FAF790FF09200290052001A982
:1059E000CDE90307032009908020CDF80480CDE99C
:1059F0000B0040F2E8008DF82050C2F20040ADF8F4
:105A00002850CDE905658DF82A508DF83450FBF704
:105A1000BFF908B1FAF770FF802001A9C1F6505014
:105A2000019040F20F10029040F2E800C2F20040F4
:105A3000FBF7AEF908B1FAF75FFF40F2001001A9D9
:105A4000C2F28010019040F21520029040F2E8006E
:105A5000C2F20040FBF79CF908B1FAF74DFF1AB00B
:105A6000BDE8F0810000000070B586B044F2E0406F
:105A70000025C5F602000595CDE90355CDE9015590
:105A8000016840F6000441F0800101600168C5F63C
:105A9000020401F0800100910099016841F00101C8
:105AA00001600168002201F0010100910099016884
:105AB00041F00401016001684FF4806601F00401C7
:105AC00000910099016841F020010160016801F036
:105AD000200100910099016841F010010160016806
